{
  "contractName": "metaMaster",
  "abi": [
    {
      "inputs": [],
      "stateMutability": "nonpayable",
      "type": "constructor"
    },
    {
      "anonymous": false,
      "inputs": [
        {
          "indexed": true,
          "internalType": "address",
          "name": "creator",
          "type": "address"
        },
        {
          "indexed": false,
          "internalType": "address",
          "name": "collection",
          "type": "address"
        }
      ],
      "name": "NewCollection",
      "type": "event"
    },
    {
      "anonymous": false,
      "inputs": [
        {
          "indexed": true,
          "internalType": "address",
          "name": "previousOwner",
          "type": "address"
        },
        {
          "indexed": true,
          "internalType": "address",
          "name": "newOwner",
          "type": "address"
        }
      ],
      "name": "OwnershipTransferred",
      "type": "event"
    },
    {
      "inputs": [
        {
          "internalType": "address",
          "name": "",
          "type": "address"
        }
      ],
      "name": "collectionOwner",
      "outputs": [
        {
          "internalType": "address",
          "name": "",
          "type": "address"
        }
      ],
      "stateMutability": "view",
      "type": "function"
    },
    {
      "inputs": [],
      "name": "createdCollectionNum",
      "outputs": [
        {
          "internalType": "uint256",
          "name": "",
          "type": "uint256"
        }
      ],
      "stateMutability": "view",
      "type": "function"
    },
    {
      "inputs": [
        {
          "internalType": "uint256",
          "name": "",
          "type": "uint256"
        }
      ],
      "name": "createdCollections",
      "outputs": [
        {
          "internalType": "address",
          "name": "",
          "type": "address"
        }
      ],
      "stateMutability": "view",
      "type": "function"
    },
    {
      "inputs": [],
      "name": "feeCollector",
      "outputs": [
        {
          "internalType": "address",
          "name": "",
          "type": "address"
        }
      ],
      "stateMutability": "view",
      "type": "function"
    },
    {
      "inputs": [],
      "name": "feeInBips",
      "outputs": [
        {
          "internalType": "uint256",
          "name": "",
          "type": "uint256"
        }
      ],
      "stateMutability": "view",
      "type": "function"
    },
    {
      "inputs": [
        {
          "internalType": "address",
          "name": "collection",
          "type": "address"
        },
        {
          "internalType": "uint96",
          "name": "token_id",
          "type": "uint96"
        }
      ],
      "name": "getSaleInfo",
      "outputs": [
        {
          "components": [
            {
              "internalType": "address",
              "name": "sales",
              "type": "address"
            },
            {
              "internalType": "address",
              "name": "collection",
              "type": "address"
            },
            {
              "internalType": "uint96",
              "name": "token_id",
              "type": "uint96"
            },
            {
              "internalType": "address",
              "name": "token",
              "type": "address"
            },
            {
              "internalType": "uint128",
              "name": "price",
              "type": "uint128"
            },
            {
              "internalType": "uint64",
              "name": "duetime",
              "type": "uint64"
            },
            {
              "internalType": "address",
              "name": "seller",
              "type": "address"
            }
          ],
          "internalType": "struct NFTInfoStorage.salesInfo",
          "name": "",
          "type": "tuple"
        }
      ],
      "stateMutability": "view",
      "type": "function"
    },
    {
      "inputs": [
        {
          "internalType": "uint256",
          "name": "limit",
          "type": "uint256"
        },
        {
          "internalType": "uint256",
          "name": "offset",
          "type": "uint256"
        }
      ],
      "name": "getSales",
      "outputs": [
        {
          "components": [
            {
              "internalType": "address",
              "name": "sales",
              "type": "address"
            },
            {
              "internalType": "address",
              "name": "collection",
              "type": "address"
            },
            {
              "internalType": "uint96",
              "name": "token_id",
              "type": "uint96"
            },
            {
              "internalType": "address",
              "name": "token",
              "type": "address"
            },
            {
              "internalType": "uint128",
              "name": "price",
              "type": "uint128"
            },
            {
              "internalType": "uint64",
              "name": "duetime",
              "type": "uint64"
            },
            {
              "internalType": "address",
              "name": "seller",
              "type": "address"
            }
          ],
          "internalType": "struct NFTInfoStorage.salesInfo[]",
          "name": "records",
          "type": "tuple[]"
        }
      ],
      "stateMutability": "view",
      "type": "function"
    },
    {
      "inputs": [
        {
          "internalType": "address",
          "name": "collcetion",
          "type": "address"
        },
        {
          "internalType": "uint256",
          "name": "limit",
          "type": "uint256"
        },
        {
          "internalType": "uint256",
          "name": "offset",
          "type": "uint256"
        }
      ],
      "name": "getSalesByCollection",
      "outputs": [
        {
          "components": [
            {
              "internalType": "address",
              "name": "sales",
              "type": "address"
            },
            {
              "internalType": "address",
              "name": "collection",
              "type": "address"
            },
            {
              "internalType": "uint96",
              "name": "token_id",
              "type": "uint96"
            },
            {
              "internalType": "address",
              "name": "token",
              "type": "address"
            },
            {
              "internalType": "uint128",
              "name": "price",
              "type": "uint128"
            },
            {
              "internalType": "uint64",
              "name": "duetime",
              "type": "uint64"
            },
            {
              "internalType": "address",
              "name": "seller",
              "type": "address"
            }
          ],
          "internalType": "struct NFTInfoStorage.salesInfo[]",
          "name": "records",
          "type": "tuple[]"
        }
      ],
      "stateMutability": "view",
      "type": "function"
    },
    {
      "inputs": [
        {
          "internalType": "address",
          "name": "user",
          "type": "address"
        },
        {
          "internalType": "uint256",
          "name": "limit",
          "type": "uint256"
        },
        {
          "internalType": "uint256",
          "name": "offset",
          "type": "uint256"
        }
      ],
      "name": "getSalesByUser",
      "outputs": [
        {
          "components": [
            {
              "internalType": "address",
              "name": "sales",
              "type": "address"
            },
            {
              "internalType": "address",
              "name": "collection",
              "type": "address"
            },
            {
              "internalType": "uint96",
              "name": "token_id",
              "type": "uint96"
            },
            {
              "internalType": "address",
              "name": "token",
              "type": "address"
            },
            {
              "internalType": "uint128",
              "name": "price",
              "type": "uint128"
            },
            {
              "internalType": "uint64",
              "name": "duetime",
              "type": "uint64"
            },
            {
              "internalType": "address",
              "name": "seller",
              "type": "address"
            }
          ],
          "internalType": "struct NFTInfoStorage.salesInfo[]",
          "name": "records",
          "type": "tuple[]"
        }
      ],
      "stateMutability": "view",
      "type": "function"
    },
    {
      "inputs": [],
      "name": "getSalesCount",
      "outputs": [
        {
          "internalType": "uint256",
          "name": "",
          "type": "uint256"
        }
      ],
      "stateMutability": "view",
      "type": "function"
    },
    {
      "inputs": [
        {
          "internalType": "address",
          "name": "user",
          "type": "address"
        }
      ],
      "name": "getSalesCountByUser",
      "outputs": [
        {
          "internalType": "uint256",
          "name": "",
          "type": "uint256"
        }
      ],
      "stateMutability": "view",
      "type": "function"
    },
    {
      "inputs": [
        {
          "internalType": "address",
          "name": "user",
          "type": "address"
        },
        {
          "internalType": "uint256",
          "name": "limit",
          "type": "uint256"
        },
        {
          "internalType": "uint256",
          "name": "offset",
          "type": "uint256"
        }
      ],
      "name": "getUserBids",
      "outputs": [
        {
          "components": [
            {
              "internalType": "address",
              "name": "sales",
              "type": "address"
            },
            {
              "internalType": "address",
              "name": "collection",
              "type": "address"
            },
            {
              "internalType": "uint96",
              "name": "token_id",
              "type": "uint96"
            },
            {
              "internalType": "address",
              "name": "token",
              "type": "address"
            },
            {
              "internalType": "uint128",
              "name": "price",
              "type": "uint128"
            },
            {
              "internalType": "uint64",
              "name": "duetime",
              "type": "uint64"
            },
            {
              "internalType": "address",
              "name": "seller",
              "type": "address"
            }
          ],
          "internalType": "struct NFTInfoStorage.salesInfo[]",
          "name": "records",
          "type": "tuple[]"
        }
      ],
      "stateMutability": "view",
      "type": "function"
    },
    {
      "inputs": [
        {
          "internalType": "address",
          "name": "user",
          "type": "address"
        }
      ],
      "name": "getUserBidsCount",
      "outputs": [
        {
          "internalType": "uint256",
          "name": "",
          "type": "uint256"
        }
      ],
      "stateMutability": "view",
      "type": "function"
    },
    {
      "inputs": [
        {
          "internalType": "address",
          "name": "user",
          "type": "address"
        },
        {
          "internalType": "uint256",
          "name": "limit",
          "type": "uint256"
        },
        {
          "internalType": "uint256",
          "name": "offset",
          "type": "uint256"
        }
      ],
      "name": "getUserBuys",
      "outputs": [
        {
          "components": [
            {
              "internalType": "address",
              "name": "sales",
              "type": "address"
            },
            {
              "internalType": "address",
              "name": "collection",
              "type": "address"
            },
            {
              "internalType": "uint96",
              "name": "token_id",
              "type": "uint96"
            },
            {
              "internalType": "address",
              "name": "token",
              "type": "address"
            },
            {
              "internalType": "uint128",
              "name": "price",
              "type": "uint128"
            },
            {
              "internalType": "uint64",
              "name": "duetime",
              "type": "uint64"
            },
            {
              "internalType": "address",
              "name": "seller",
              "type": "address"
            }
          ],
          "internalType": "struct NFTInfoStorage.salesInfo[]",
          "name": "records",
          "type": "tuple[]"
        }
      ],
      "stateMutability": "view",
      "type": "function"
    },
    {
      "inputs": [
        {
          "internalType": "address",
          "name": "user",
          "type": "address"
        }
      ],
      "name": "getUserBuysCount",
      "outputs": [
        {
          "internalType": "uint256",
          "name": "",
          "type": "uint256"
        }
      ],
      "stateMutability": "view",
      "type": "function"
    },
    {
      "inputs": [
        {
          "internalType": "uint256",
          "name": "",
          "type": "uint256"
        }
      ],
      "name": "marketSales",
      "outputs": [
        {
          "internalType": "address",
          "name": "",
          "type": "address"
        }
      ],
      "stateMutability": "view",
      "type": "function"
    },
    {
      "inputs": [],
      "name": "owner",
      "outputs": [
        {
          "internalType": "address",
          "name": "",
          "type": "address"
        }
      ],
      "stateMutability": "view",
      "type": "function"
    },
    {
      "inputs": [
        {
          "internalType": "uint256",
          "name": "record",
          "type": "uint256"
        },
        {
          "internalType": "address",
          "name": "bidder",
          "type": "address"
        }
      ],
      "name": "recordDelBid",
      "outputs": [],
      "stateMutability": "nonpayable",
      "type": "function"
    },
    {
      "inputs": [
        {
          "internalType": "uint256",
          "name": "record",
          "type": "uint256"
        },
        {
          "internalType": "address",
          "name": "seller",
          "type": "address"
        }
      ],
      "name": "recordItemCancel",
      "outputs": [],
      "stateMutability": "nonpayable",
      "type": "function"
    },
    {
      "inputs": [
        {
          "internalType": "uint256",
          "name": "record",
          "type": "uint256"
        },
        {
          "internalType": "address",
          "name": "seller",
          "type": "address"
        },
        {
          "internalType": "address",
          "name": "buyer",
          "type": "address"
        },
        {
          "internalType": "address",
          "name": "token",
          "type": "address"
        },
        {
          "internalType": "uint256",
          "name": "price",
          "type": "uint256"
        }
      ],
      "name": "recordItemSold",
      "outputs": [],
      "stateMutability": "nonpayable",
      "type": "function"
    },
    {
      "inputs": [
        {
          "internalType": "uint256",
          "name": "record",
          "type": "uint256"
        },
        {
          "internalType": "address",
          "name": "bidder",
          "type": "address"
        }
      ],
      "name": "recordNewBid",
      "outputs": [],
      "stateMutability": "nonpayable",
      "type": "function"
    },
    {
      "inputs": [
        {
          "internalType": "uint256",
          "name": "record",
          "type": "uint256"
        },
        {
          "internalType": "address",
          "name": "seller",
          "type": "address"
        }
      ],
      "name": "recordNewItem",
      "outputs": [],
      "stateMutability": "nonpayable",
      "type": "function"
    },
    {
      "inputs": [],
      "name": "renounceOwnership",
      "outputs": [],
      "stateMutability": "nonpayable",
      "type": "function"
    },
    {
      "inputs": [
        {
          "internalType": "address",
          "name": "",
          "type": "address"
        }
      ],
      "name": "tokenIsSupported",
      "outputs": [
        {
          "internalType": "bool",
          "name": "",
          "type": "bool"
        }
      ],
      "stateMutability": "view",
      "type": "function"
    },
    {
      "inputs": [
        {
          "internalType": "address",
          "name": "newOwner",
          "type": "address"
        }
      ],
      "name": "transferOwnership",
      "outputs": [],
      "stateMutability": "nonpayable",
      "type": "function"
    },
    {
      "inputs": [
        {
          "internalType": "address",
          "name": "",
          "type": "address"
        },
        {
          "internalType": "uint256",
          "name": "",
          "type": "uint256"
        }
      ],
      "name": "userOwnedCollections",
      "outputs": [
        {
          "internalType": "address",
          "name": "",
          "type": "address"
        }
      ],
      "stateMutability": "view",
      "type": "function"
    },
    {
      "inputs": [
        {
          "internalType": "address",
          "name": "user",
          "type": "address"
        }
      ],
      "name": "userOwnedCollectionNum",
      "outputs": [
        {
          "internalType": "uint256",
          "name": "",
          "type": "uint256"
        }
      ],
      "stateMutability": "view",
      "type": "function"
    },
    {
      "inputs": [
        {
          "internalType": "string",
          "name": "_name",
          "type": "string"
        },
        {
          "internalType": "string",
          "name": "_symbol",
          "type": "string"
        },
        {
          "internalType": "string",
          "name": "_baseURI",
          "type": "string"
        },
        {
          "internalType": "uint256",
          "name": "_max_supply",
          "type": "uint256"
        },
        {
          "internalType": "string",
          "name": "_metaInfo",
          "type": "string"
        },
        {
          "internalType": "address",
          "name": "royaltiesReceiver",
          "type": "address"
        },
        {
          "internalType": "uint256",
          "name": "royaltiesPercentageInBips",
          "type": "uint256"
        }
      ],
      "name": "createCollection",
      "outputs": [
        {
          "internalType": "address",
          "name": "",
          "type": "address"
        }
      ],
      "stateMutability": "nonpayable",
      "type": "function"
    },
    {
      "inputs": [
        {
          "internalType": "address",
          "name": "_collection",
          "type": "address"
        },
        {
          "internalType": "string",
          "name": "_metaInfo",
          "type": "string"
        }
      ],
      "name": "setCollectionMetaInfo",
      "outputs": [],
      "stateMutability": "nonpayable",
      "type": "function"
    },
    {
      "inputs": [
        {
          "internalType": "address",
          "name": "_collection",
          "type": "address"
        },
        {
          "internalType": "address",
          "name": "royaltiesReceiver",
          "type": "address"
        },
        {
          "internalType": "uint256",
          "name": "royaltiesPercentageInBips",
          "type": "uint256"
        }
      ],
      "name": "setCollectionRoyalty",
      "outputs": [],
      "stateMutability": "nonpayable",
      "type": "function"
    },
    {
      "inputs": [
        {
          "internalType": "address",
          "name": "_sale",
          "type": "address"
        }
      ],
      "name": "addMarketSale",
      "outputs": [],
      "stateMutability": "nonpayable",
      "type": "function"
    },
    {
      "inputs": [],
      "name": "marketSalesNum",
      "outputs": [
        {
          "internalType": "uint256",
          "name": "",
          "type": "uint256"
        }
      ],
      "stateMutability": "view",
      "type": "function"
    },
    {
      "inputs": [
        {
          "internalType": "address",
          "name": "collection",
          "type": "address"
        },
        {
          "internalType": "uint256",
          "name": "token_id",
          "type": "uint256"
        },
        {
          "internalType": "uint256",
          "name": "market",
          "type": "uint256"
        },
        {
          "internalType": "address",
          "name": "_token",
          "type": "address"
        },
        {
          "internalType": "uint256",
          "name": "_price",
          "type": "uint256"
        },
        {
          "internalType": "uint256",
          "name": "_duration",
          "type": "uint256"
        }
      ],
      "name": "sell",
      "outputs": [],
      "stateMutability": "nonpayable",
      "type": "function"
    },
    {
      "inputs": [
        {
          "internalType": "address",
          "name": "_feeCollector",
          "type": "address"
        },
        {
          "internalType": "uint256",
          "name": "_feeInBips",
          "type": "uint256"
        }
      ],
      "name": "setFeeConfig",
      "outputs": [],
      "stateMutability": "nonpayable",
      "type": "function"
    },
    {
      "inputs": [
        {
          "internalType": "address",
          "name": "_token",
          "type": "address"
        },
        {
          "internalType": "bool",
          "name": "_status",
          "type": "bool"
        }
      ],
      "name": "setTokenSupport",
      "outputs": [],
      "stateMutability": "nonpayable",
      "type": "function"
    },
    {
      "inputs": [
        {
          "internalType": "address",
          "name": "_collection",
          "type": "address"
        },
        {
          "internalType": "address",
          "name": "_recipient",
          "type": "address"
        },
        {
          "internalType": "string",
          "name": "_hash",
          "type": "string"
        }
      ],
      "name": "mint",
      "outputs": [
        {
          "internalType": "uint256",
          "name": "",
          "type": "uint256"
        }
      ],
      "stateMutability": "nonpayable",
      "type": "function"
    },
    {
      "inputs": [
        {
          "internalType": "address",
          "name": "_collection",
          "type": "address"
        },
        {
          "internalType": "string",
          "name": "_hash",
          "type": "string"
        },
        {
          "internalType": "uint256",
          "name": "market",
          "type": "uint256"
        },
        {
          "internalType": "address",
          "name": "_token",
          "type": "address"
        },
        {
          "internalType": "uint256",
          "name": "_price",
          "type": "uint256"
        },
        {
          "internalType": "uint256",
          "name": "_duration",
          "type": "uint256"
        }
      ],
      "name": "mintAndSell",
      "outputs": [],
      "stateMutability": "nonpayable",
      "type": "function"
    },
    {
      "inputs": [
        {
          "internalType": "address",
          "name": "_collection",
          "type": "address"
        },
        {
          "internalType": "uint256",
          "name": "_tokenId",
          "type": "uint256"
        },
        {
          "internalType": "address",
          "name": "_recipient",
          "type": "address"
        }
      ],
      "name": "transfer",
      "outputs": [],
      "stateMutability": "nonpayable",
      "type": "function"
    }
  ],
  "bytecode": "0x608060405234801561001057600080fd5b5061001a3361006b565b600d80546001600160a01b0319163317905560fa600e5560008052600f6020527ff4803e074bd026baaf6ed2e288c9515f68c72fb7216eebdd7cae1718a53ec375805460ff191660011790556100bb565b600080546001600160a01b038381166001600160a01b0319831681178455604051919092169283917f8be0079c531659141344cd1fd0a4f28419497f9722a3daafe3b4186f6b6457e09190a35050565b614e8580620000cb6000396000f3fe60806040523480156200001157600080fd5b5060043610620002615760003560e01c8063836512551162000149578063d7bb552211620000c7578063e782fae71162000086578063e782fae714620005d2578063ec24e62414620005e9578063f2fde38b14620005f2578063fa4c21fe1462000609578063ffff0d11146200062057600080fd5b8063d7bb5522146200054c578063dbba0f011462000563578063dd8027db146200057a578063e07a31111462000584578063e7061950146200059b57600080fd5b8063b77ff84f1162000114578063b77ff84f14620004b2578063b78fd5b314620004de578063c415b95c14620004f5578063c543e0fe1462000509578063cdfde4e4146200053557600080fd5b806383651255146200045b5780638da5cb5b1462000472578063a24992011462000484578063b22eb9ba146200049b57600080fd5b80632c32b2d611620001e357806363a24e2211620001a257806363a24e2214620003dc57806365e84a2014620003f3578063712811be146200040a578063715018a6146200043a578063807421f1146200044457600080fd5b80632c32b2d614620003695780632feeab36146200038057806341084242146200039757806346eb67ef14620003ae57806352374f6f14620003c557600080fd5b806315412a96116200023057806315412a9614620002bd5780631a92777914620002e3578063221375a614620002fa57806328044ef914620003115780632b171c71146200033d57600080fd5b806308d3fed314620002665780630c6a753f146200027f5780630e716d9714620002965780631221548214620002b3575b600080fd5b6200027d6200027736600462002659565b62000646565b005b6200027d620002903660046200227e565b620006b6565b620002a0600e5481565b6040519081526020015b60405180910390f35b620002a0600b5481565b620002d4620002ce3660046200240c565b62000727565b604051620002aa9190620027e8565b620002d4620002f4366004620026e3565b62000897565b620002a06200030b366004620021cf565b620009d8565b620002a0620003223660046200218f565b6001600160a01b031660009081526009602052604090205490565b620002a06200034e3660046200218f565b6001600160a01b031660009081526005602052604090205490565b620002d46200037a3660046200240c565b62000aa4565b6200027d6200039136600462002659565b62000b5c565b6200027d620003a836600462002659565b62000b9d565b6200027d620003bf36600462002681565b62000c06565b620002a0620003d63660046200218f565b62000d8c565b6200027d620003ed36600462002311565b62000dac565b6200027d6200040436600462002238565b62000dd6565b620004216200041b36600462002396565b62000f1e565b6040516001600160a01b039091168152602001620002aa565b6200027d62000f57565b620004216200045536600462002625565b62000fa2565b620002d46200046c3660046200240c565b62000fcd565b6000546001600160a01b031662000421565b6200027d62000495366004620022bc565b6200118d565b6200027d620004ac3660046200218f565b6200122f565b62000421620004c336600462002625565b600a602052600090815260409020546001600160a01b031681565b620002d4620004ef3660046200240c565b620012d5565b600d5462000421906001600160a01b031681565b620004216200051a3660046200218f565b6008602052600090815260409020546001600160a01b031681565b6200027d6200054636600462002659565b6200143b565b6200027d6200055d36600462002444565b6200147c565b6200027d62000574366004620023c5565b62001768565b620002a062001836565b6200027d6200059536600462002396565b62001847565b620005c1620005ac3660046200218f565b600f6020526000908152604090205460ff1681565b6040519015158152602001620002aa565b620002a0620005e33660046200218f565b620018aa565b600c54620002a0565b6200027d620006033660046200218f565b620018c9565b620004216200061a36600462002546565b62001978565b62000637620006313660046200248b565b62001bf6565b604051620002aa9190620028f8565b3360009081526007602052604090205460ff166200066357600080fd5b6200067060018362001c1b565b50600082815260036020908152604080832080546001600160a01b031916331790556001600160a01b038416835260069091529020620006b1908362001c1b565b505050565b33620006ca6000546001600160a01b031690565b6001600160a01b031614620006fc5760405162461bcd60e51b8152600401620006f390620028a0565b60405180910390fd5b6001600160a01b03919091166000908152600f60205260409020805460ff1916911515919091179055565b6060826001600160401b0381111562000744576200074462002987565b6040519080825280602002602001820160405280156200078157816020015b6200076d6200209f565b815260200190600190039081620007635790505b50905060006001815b8481108015620007975750815b8015620007ad57506000831180620007ad575080155b15620007f0576001600160a01b0387166000908152600660205260409020620007d7908462001c32565b9350915080620007e7816200293d565b9150506200078a565b5060005b8581108015620008015750815b8015620008175750600083118062000817575080155b156200088d576001600160a01b038716600090815260066020526040902062000841908462001c32565b9350915081156200087857620008578362001c4e565b8482815181106200086c576200086c62002971565b60200260200101819052505b8062000884816200293d565b915050620007f4565b5050509392505050565b6060826001600160401b03811115620008b457620008b462002987565b604051908082528060200260200182016040528015620008f157816020015b620008dd6200209f565b815260200190600190039081620008d35790505b50905060006001815b8481108015620009075750815b80156200091d575060008311806200091d575080155b1562000949576200093060018462001c32565b935091508062000940816200293d565b915050620008fa565b5060005b85811080156200095a5750815b8015620009705750600083118062000970575080155b15620009cf576200098360018462001c32565b935091508115620009ba57620009998362001c4e565b848281518110620009ae57620009ae62002971565b60200260200101819052505b80620009c6816200293d565b9150506200094d565b50505092915050565b6001600160a01b03838116600090815260086020526040812054909116331462000a165760405162461bcd60e51b8152600401620006f390620028d5565b60405163d0def52160e01b81526001600160a01b0385169063d0def5219062000a469086908690600401620027c2565b602060405180830381600087803b15801562000a6157600080fd5b505af115801562000a76573d6000803e3d6000fd5b505050506040513d601f19601f8201168201806040525081019062000a9c91906200263f565b949350505050565b6060826001600160401b0381111562000ac15762000ac162002987565b60405190808252806020026020018201604052801562000afe57816020015b62000aea6200209f565b81526020019060019003908162000ae05790505b50905060005b8381101562000b545762000b1e8562000631868662002908565b82828151811062000b335762000b3362002971565b6020026020010181905250808062000b4b906200293d565b91505062000b04565b509392505050565b3360009081526007602052604090205460ff1662000b7957600080fd5b6001600160a01b0381166000908152600460205260409020620006b1908362001c1b565b3360009081526007602052604090205460ff1662000bba57600080fd5b600082815260036020908152604080832080546001600160a01b03191690556001600160a01b03841683526006909152902062000bf8908362001dc3565b50620006b160018362001dc3565b3360009081526007602052604090205460ff1662000c2357600080fd5b600085815260036020908152604080832080546001600160a01b03191690556001600160a01b038716835260069091529020606086901c90869062000c69908262001dc3565b5062000c7760018862001dc3565b506001600160a01b039485166000908152600560208181526040808420815160e081018352338152968a168784019081526001600160601b03968716928801928352988a16606088019081526001600160801b03988916608089019081526001600160401b0342811660a08b019081529d8d1660c08b01908152845460018181018755958a52969098209951959096029098018054948c166001600160a01b031995861617815599519251909616600160a01b02918a169190911790880155925160028701805491891691851691909117905592516003860180549851909416600160801b026001600160c01b0319909816941693909317959095179055516004909101805491909216921691909117905550565b6001600160a01b0381166000908152600460205260408120545b92915050565b600062000dbb873388620009d8565b905062000dcd8782878787876200147c565b50505050505050565b6001600160a01b0383811660009081526008602052604090205416331462000e125760405162461bcd60e51b8152600401620006f390620028d5565b612710600e548262000e25919062002908565b111562000e685760405162461bcd60e51b815260206004820152601060248201526f526f79616c7479206f766572666c6f7760801b6044820152606401620006f3565b60405163b514371560e01b81526001600160a01b03838116600483015284169063b514371590602401600060405180830381600087803b15801562000eac57600080fd5b505af115801562000ec1573d6000803e3d6000fd5b5050604051637bc41acd60e11b8152600481018490526001600160a01b038616925063f788359a91506024015b600060405180830381600087803b15801562000f0957600080fd5b505af115801562000dcd573d6000803e3d6000fd5b6009602052816000526040600020818154811062000f3b57600080fd5b6000918252602090912001546001600160a01b03169150829050565b3362000f6b6000546001600160a01b031690565b6001600160a01b03161462000f945760405162461bcd60e51b8152600401620006f390620028a0565b62000fa0600062001e66565b565b600c818154811062000fb357600080fd5b6000918252602090912001546001600160a01b0316905081565b6060826001600160401b0381111562000fea5762000fea62002987565b6040519080825280602002602001820160405280156200102757816020015b620010136200209f565b815260200190600190039081620010095790505b506001600160a01b0385166000908152600560205260409020549091508083111562001051578092505b806200105e858562002908565b1115620010745762001071838262002923565b93505b60005b8481101562001184576001600160a01b0386166000908152600560205260409020620010a4828462002923565b81548110620010b757620010b762002971565b60009182526020918290206040805160e08101825260059390930290910180546001600160a01b039081168452600182015480821695850195909552600160a01b9094046001600160601b03169183019190915260028101548316606083015260038101546001600160801b0381166080840152600160801b90046001600160401b031660a08301526004015490911660c0820152835184908390811062001163576200116362002971565b602002602001018190525080806200117b906200293d565b91505062001077565b50509392505050565b6001600160a01b03828116600090815260086020526040902054163314620011c95760405162461bcd60e51b8152600401620006f390620028d5565b6040516374d670ef60e01b81526001600160a01b038316906374d670ef90620011f79084906004016200283a565b600060405180830381600087803b1580156200121257600080fd5b505af115801562001227573d6000803e3d6000fd5b505050505050565b33620012436000546001600160a01b031690565b6001600160a01b0316146200126c5760405162461bcd60e51b8152600401620006f390620028a0565b600c805460018082019092557fdf6966c971051c3d54ec59162606531493a51404a002842f56009d7e5cf4a8c70180546001600160a01b0319166001600160a01b0384169081179091556000908152600760205260409020805460ff1916909117905550565b50565b6060826001600160401b03811115620012f257620012f262002987565b6040519080825280602002602001820160405280156200132f57816020015b6200131b6200209f565b815260200190600190039081620013115790505b50905060006001815b8481108015620013455750815b80156200135b575060008311806200135b575080155b156200139e576001600160a01b038716600090815260046020526040902062001385908462001c32565b935091508062001395816200293d565b91505062001338565b5060005b8581108015620013af5750815b8015620013c557506000831180620013c5575080155b156200088d576001600160a01b0387166000908152600460205260409020620013ef908462001c32565b9350915081156200142657620014058362001c4e565b8482815181106200141a576200141a62002971565b60200260200101819052505b8062001432816200293d565b915050620013a2565b3360009081526007602052604090205460ff166200145857600080fd5b6001600160a01b0381166000908152600460205260409020620006b1908362001dc3565b600c548410620014be5760405162461bcd60e51b815260206004820152600c60248201526b15dc9bdb99c81b585c9ad95d60a21b6044820152606401620006f3565b6040516331a9108f60e11b81526004810186905233906001600160a01b03881690636352211e9060240160206040518083038186803b1580156200150157600080fd5b505afa15801562001516573d6000803e3d6000fd5b505050506040513d601f19601f820116820180604052508101906200153c9190620021af565b6001600160a01b031614620015655760405162461bcd60e51b8152600401620006f390620028d5565b6001600160a01b0383166000908152600f602052604090205460ff16620015bd5760405162461bcd60e51b815260206004820152600b60248201526a2bb937b733903a37b5b2b760a91b6044820152606401620006f3565b816001600160801b03168214620016085760405162461bcd60e51b815260206004820152600e60248201526d5072696365206f766572666c6f7760901b6044820152606401620006f3565b856001600160a01b031663086b244433600c87815481106200162e576200162e62002971565b60009182526020909120015460405160e084901b6001600160e01b03191681526001600160a01b0392831660048201529116602482015260448101889052606401600060405180830381600087803b1580156200168a57600080fd5b505af11580156200169f573d6000803e3d6000fd5b50505050600c8481548110620016b957620016b962002971565b60009182526020909120015460405163370b008160e01b81526001600160a01b0388811660048301526024820188905233604483015285811660648301526084820185905260a482018490529091169063370b00819060c401602060405180830381600087803b1580156200172d57600080fd5b505af115801562001742573d6000803e3d6000fd5b505050506040513d601f19601f8201168201806040525081019062000dcd91906200263f565b6040516331a9108f60e11b81526004810183905233906001600160a01b03851690636352211e9060240160206040518083038186803b158015620017ab57600080fd5b505afa158015620017c0573d6000803e3d6000fd5b505050506040513d601f19601f82011682018060405250810190620017e69190620021af565b6001600160a01b031614620017fa57600080fd5b60405163021ac91160e21b81523360048201526001600160a01b0382811660248301526044820184905284169063086b24449060640162000eee565b60006200184260015490565b905090565b336200185b6000546001600160a01b031690565b6001600160a01b031614620018845760405162461bcd60e51b8152600401620006f390620028a0565b600d80546001600160a01b0319166001600160a01b039390931692909217909155600e55565b6001600160a01b03811660009081526006602052604081205462000da6565b33620018dd6000546001600160a01b031690565b6001600160a01b031614620019065760405162461bcd60e51b8152600401620006f390620028a0565b6001600160a01b0381166200196d5760405162461bcd60e51b815260206004820152602660248201527f4f776e61626c653a206e6577206f776e657220697320746865207a65726f206160448201526564647265737360d01b6064820152608401620006f3565b620012d28162001e66565b6000612710600e54836200198d919062002908565b1115620019d05760405162461bcd60e51b815260206004820152601060248201526f526f79616c7479206f766572666c6f7760801b6044820152606401620006f3565b600088888888604051620019e490620020db565b620019f394939291906200284f565b604051809103906000f08015801562001a10573d6000803e3d6000fd5b506040516374d670ef60e01b81529091506001600160a01b038216906374d670ef9062001a429088906004016200283a565b600060405180830381600087803b15801562001a5d57600080fd5b505af115801562001a72573d6000803e3d6000fd5b5050604051637bc41acd60e11b8152600481018690526001600160a01b038416925063f788359a9150602401600060405180830381600087803b15801562001ab957600080fd5b505af115801562001ace573d6000803e3d6000fd5b505060405163b514371560e01b81526001600160a01b0387811660048301528416925063b51437159150602401600060405180830381600087803b15801562001b1657600080fd5b505af115801562001b2b573d6000803e3d6000fd5b5050506001600160a01b038216600081815260086020908152604080832080546001600160a01b031990811633908117909255908452600983528184208054600181018255908552838520018054821686179055600b80548552600a90935290832080549091169093179092558154925062001ba7836200293d565b90915550506040516001600160a01b038216815233907f5b84d9550adb7000df7bee717735ecd3af48ea3f66c6886d52e8227548fb228c9060200160405180910390a298975050505050505050565b62001c006200209f565b600062001c0e848462001eb6565b905062000a9c8162001c4e565b600062001c2b8383600162001eee565b9392505050565b60008062001c438484600162001eff565b915091509250929050565b62001c586200209f565b6000828152600360205260409020546001600160a01b03168062001cb65750506040805160e081018252600080825260208201819052918101829052606081018290526080810182905260a0810182905260c0810191909152919050565b6000806000806000856001600160a01b03166364b3b844896040518263ffffffff1660e01b815260040162001ced91815260200190565b60c06040518083038186803b15801562001d0657600080fd5b505afa15801562001d1b573d6000803e3d6000fd5b505050506040513d601f19601f8201168201806040525081019062001d419190620024c9565b50945094509450945094508462001d5757600095505b6040805160e0810182526001600160a01b03978816815260608a811c60208301526001600160601b03909a1691810191909152938616978401979097526001600160801b039190911660808301526001600160401b031660a08201529390911660c08401525090919050565b600081158062001ddc575062001dda838362001f4a565b155b1562001deb5750600062000da6565b60008281526001848101602090815260408084208480529091528083205482845292205462001e1f92869290919062001fd4565b6000828152600184810160209081526040808420848052909152808320839055818352822082905584549091859162001e5a90849062002923565b90915550919392505050565b600080546001600160a01b038381166001600160a01b0319831681178455604051919092169283917f8be0079c531659141344cd1fd0a4f28419497f9722a3daafe3b4186f6b6457e09190a35050565b600062001ed76bffffffffffffffffffffffff19606085901b168262002908565b905062001c2b6001600160601b0383168262002908565b600062000a9c846000858562002009565b60008062001f0e858562001f4a565b62001f1f5750600090508062001f42565b505060008281526001848101602090815260408084208515158552909152909120545b935093915050565b6000818152600183016020908152604080832083805290915281205415801562001f8e57506000828152600180850160209081526040808420928452919052902054155b1562001fcb57600080805260018085016020908152604080842092845291905290205482141562001fc25750600162000da6565b50600062000da6565b50600162000da6565b600082815260019094016020818152604080872093158088529382528087208690559486529081528385209115855252912055565b600062002017858462001f4a565b1580156200202c57506200202c858562001f4a565b1562002094576000848152600186016020908152604080832085151584529091529020546200205e8686868662001fd4565b6200206c8685838662001fd4565b600186600001600082825462002083919062002908565b909155506001925062000a9c915050565b506000949350505050565b6040805160e081018252600080825260208201819052918101829052606081018290526080810182905260a0810182905260c081019190915290565b61248d80620029c383390190565b8035620020f6816200299d565b919050565b600082601f8301126200210d57600080fd5b81356001600160401b03808211156200212a576200212a62002987565b604051601f8301601f19908116603f0116810190828211818310171562002155576200215562002987565b816040528381528660208588010111156200216f57600080fd5b836020870160208301376000602085830101528094505050505092915050565b600060208284031215620021a257600080fd5b813562001c2b816200299d565b600060208284031215620021c257600080fd5b815162001c2b816200299d565b600080600060608486031215620021e557600080fd5b8335620021f2816200299d565b9250602084013562002204816200299d565b915060408401356001600160401b038111156200222057600080fd5b6200222e86828701620020fb565b9150509250925092565b6000806000606084860312156200224e57600080fd5b83356200225b816200299d565b925060208401356200226d816200299d565b929592945050506040919091013590565b600080604083850312156200229257600080fd5b82356200229f816200299d565b91506020830135620022b181620029b3565b809150509250929050565b60008060408385031215620022d057600080fd5b8235620022dd816200299d565b915060208301356001600160401b03811115620022f957600080fd5b6200230785828601620020fb565b9150509250929050565b60008060008060008060c087890312156200232b57600080fd5b863562002338816200299d565b955060208701356001600160401b038111156200235457600080fd5b6200236289828a01620020fb565b9550506040870135935060608701356200237c816200299d565b9598949750929560808101359460a0909101359350915050565b60008060408385031215620023aa57600080fd5b8235620023b7816200299d565b946020939093013593505050565b600080600060608486031215620023db57600080fd5b8335620023e8816200299d565b925060208401359150604084013562002401816200299d565b809150509250925092565b6000806000606084860312156200242257600080fd5b83356200242f816200299d565b95602085013595506040909401359392505050565b60008060008060008060c087890312156200245e57600080fd5b86356200246b816200299d565b9550602087013594506040870135935060608701356200237c816200299d565b600080604083850312156200249f57600080fd5b8235620024ac816200299d565b915060208301356001600160601b0381168114620022b157600080fd5b60008060008060008060c08789031215620024e357600080fd5b8651620024f081620029b3565b602088015190965062002503816200299d565b809550506040870151935060608701519250608087015162002525816200299d565b60a088015190925062002538816200299d565b809150509295509295509295565b600080600080600080600060e0888a0312156200256257600080fd5b87356001600160401b03808211156200257a57600080fd5b620025888b838c01620020fb565b985060208a01359150808211156200259f57600080fd5b620025ad8b838c01620020fb565b975060408a0135915080821115620025c457600080fd5b620025d28b838c01620020fb565b965060608a0135955060808a0135915080821115620025f057600080fd5b50620025ff8a828b01620020fb565b9350506200261060a08901620020e9565b915060c0880135905092959891949750929550565b6000602082840312156200263857600080fd5b5035919050565b6000602082840312156200265257600080fd5b5051919050565b600080604083850312156200266d57600080fd5b823591506020830135620022b1816200299d565b600080600080600060a086880312156200269a57600080fd5b853594506020860135620026ae816200299d565b93506040860135620026c0816200299d565b92506060860135620026d2816200299d565b949793965091946080013592915050565b60008060408385031215620026f757600080fd5b50508035926020909101359150565b6000815180845260005b818110156200272e5760208185018101518683018201520162002710565b8181111562002741576000602083870101525b50601f01601f19169290920160200192915050565b80516001600160a01b0390811683526020808301518216908401526040808301516001600160601b0316908401526060808301518216908401526080808301516001600160801b03169084015260a0828101516001600160401b03169084015260c09182015116910152565b6001600160a01b038316815260406020820181905260009062000a9c9083018462002706565b6020808252825182820181905260009190848201906040850190845b818110156200282e576200281a83855162002756565b9284019260e0929092019160010162002804565b50909695505050505050565b60208152600062001c2b602083018462002706565b60808152600062002864608083018762002706565b828103602084015262002878818762002706565b905082810360408401526200288e818662002706565b91505082606083015295945050505050565b6020808252818101527f4f776e61626c653a2063616c6c6572206973206e6f7420746865206f776e6572604082015260600190565b6020808252600990820152682737ba1037bbb732b960b91b604082015260600190565b60e0810162000da6828462002756565b600082198211156200291e576200291e6200295b565b500190565b6000828210156200293857620029386200295b565b500390565b60006000198214156200295457620029546200295b565b5060010190565b634e487b7160e01b600052601160045260246000fd5b634e487b7160e01b600052603260045260246000fd5b634e487b7160e01b600052604160045260246000fd5b6001600160a01b0381168114620012d257600080fd5b8015158114620012d257600080fdfe60806040523480156200001157600080fd5b506040516200248d3803806200248d83398101604081905262000034916200029e565b83836200004133620000f1565b81516200005690600190602085019062000141565b5080516200006c90600290602084019062000141565b50508251620000849150601090602085019062000141565b50600d8190556001600160601b0381168114620000e75760405162461bcd60e51b815260206004820152601b60248201527f546f6f206d616e7920737570706c6965733a206f766572666c6f770000000000604482015260640160405180910390fd5b505050506200038a565b600080546001600160a01b038381166001600160a01b0319831681178455604051919092169283917f8be0079c531659141344cd1fd0a4f28419497f9722a3daafe3b4186f6b6457e09190a35050565b8280546200014f9062000337565b90600052602060002090601f016020900481019282620001735760008555620001be565b82601f106200018e57805160ff1916838001178555620001be565b82800160010185558215620001be579182015b82811115620001be578251825591602001919060010190620001a1565b50620001cc929150620001d0565b5090565b5b80821115620001cc5760008155600101620001d1565b600082601f830112620001f957600080fd5b81516001600160401b038082111562000216576200021662000374565b604051601f8301601f19908116603f0116810190828211818310171562000241576200024162000374565b816040528381526020925086838588010111156200025e57600080fd5b600091505b8382101562000282578582018301518183018401529082019062000263565b83821115620002945760008385830101525b9695505050505050565b60008060008060808587031215620002b557600080fd5b84516001600160401b0380821115620002cd57600080fd5b620002db88838901620001e7565b95506020870151915080821115620002f257600080fd5b6200030088838901620001e7565b945060408701519150808211156200031757600080fd5b506200032687828801620001e7565b606096909601519497939650505050565b600181811c908216806200034c57607f821691505b602082108114156200036e57634e487b7160e01b600052602260045260246000fd5b50919050565b634e487b7160e01b600052604160045260246000fd5b6120f3806200039a6000396000f3fe608060405234801561001057600080fd5b50600436106101cf5760003560e01c806370a0823111610104578063b5143715116100a2578063d0def52111610071578063d0def521146103c7578063e985e9c5146103da578063f2fde38b14610416578063f788359a1461042957600080fd5b8063b514371514610386578063b70aeaf414610399578063b88d4fde146103a1578063c87b56dd146103b457600080fd5b80638da5cb5b116100de5780638da5cb5b1461034757806395d89b4114610358578063a22cb46514610360578063a3a51bd51461037357600080fd5b806370a0823114610319578063715018a61461032c57806374d670ef1461033457600080fd5b806323b872dd1161017157806332cb6b0c1161014b57806332cb6b0c146102d757806342842e0e146102e05780634f6ccce7146102f35780636352211e1461030657600080fd5b806323b872dd1461027f5780632a55205a146102925780632f745c59146102c457600080fd5b8063086b2444116101ad578063086b24441461023c578063095ea7b31461025157806318160ddd146102645780632175c9901461027657600080fd5b806301ffc9a7146101d457806306fdde03146101fc578063081812fc14610211575b600080fd5b6101e76101e2366004611cfb565b61043c565b60405190151581526020015b60405180910390f35b610204610467565b6040516101f39190611e59565b61022461021f366004611d6a565b6104f9565b6040516001600160a01b0390911681526020016101f3565b61024f61024a366004611b8f565b610520565b005b61024f61025f366004611cd1565b610572565b6009545b6040519081526020016101f3565b610268600f5481565b61024f61028d366004611b8f565b610683565b6102a56102a0366004611d83565b6106a9565b604080516001600160a01b0390931683526020830191909152016101f3565b6102686102d2366004611cd1565b6106e0565b610268600d5481565b61024f6102ee366004611b8f565b610776565b610268610301366004611d6a565b610791565b610224610314366004611d6a565b610824565b610268610327366004611b41565b610884565b61024f61090a565b61024f610342366004611d35565b61094f565b6000546001600160a01b0316610224565b61020461099f565b61024f61036e366004611c47565b6109ae565b600e54610224906001600160a01b031681565b61024f610394366004611b41565b6109b9565b610204610a14565b61024f6103af366004611bcb565b610aa2565b6102046103c2366004611d6a565b610ada565b6102686103d5366004611c83565b610ae5565b6101e76103e8366004611b5c565b6001600160a01b03918216600090815260066020908152604080832093909416825291909152205460ff1690565b61024f610424366004611b41565b610c4f565b61024f610437366004611d6a565b610cf9565b600063152a902d60e11b6001600160e01b031983161480610461575061046182610d37565b92915050565b60606001805461047690611fcf565b80601f01602080910402602001604051908101604052809291908181526020018280546104a290611fcf565b80156104ef5780601f106104c4576101008083540402835291602001916104ef565b820191906000526020600020905b8154815290600101906020018083116104d257829003601f168201915b5050505050905090565b600061050482610d5c565b506000908152600560205260409020546001600160a01b031690565b336105336000546001600160a01b031690565b6001600160a01b0316146105625760405162461bcd60e51b815260040161055990611ebe565b60405180910390fd5b61056d838383610dbb565b505050565b600061057d82610824565b9050806001600160a01b0316836001600160a01b031614156105eb5760405162461bcd60e51b815260206004820152602160248201527f4552433732313a20617070726f76616c20746f2063757272656e74206f776e656044820152603960f91b6064820152608401610559565b336001600160a01b0382161480610607575061060781336103e8565b6106795760405162461bcd60e51b815260206004820152603e60248201527f4552433732313a20617070726f76652063616c6c6572206973206e6f7420746f60448201527f6b656e206f776e6572206e6f7220617070726f76656420666f7220616c6c00006064820152608401610559565b61056d8383610f62565b61068d3382610fd0565b6105625760405162461bcd60e51b815260040161055990611ef3565b6000806000612710600f54856106bf9190611f6d565b6106c99190611f59565b600e546001600160a01b0316969095509350505050565b60006106eb83610884565b821061074d5760405162461bcd60e51b815260206004820152602b60248201527f455243373231456e756d657261626c653a206f776e657220696e646578206f7560448201526a74206f6620626f756e647360a81b6064820152608401610559565b506001600160a01b03919091166000908152600760209081526040808320938352929052205490565b61056d83838360405180602001604052806000815250610aa2565b600061079c60095490565b82106107ff5760405162461bcd60e51b815260206004820152602c60248201527f455243373231456e756d657261626c653a20676c6f62616c20696e646578206f60448201526b7574206f6620626f756e647360a01b6064820152608401610559565b600982815481106108125761081261207b565b90600052602060002001549050919050565b6000818152600360205260408120546001600160a01b0316806104615760405162461bcd60e51b8152602060048201526018602482015277115490cdcc8c4e881a5b9d985b1a59081d1bdad95b88125160421b6044820152606401610559565b60006001600160a01b0382166108ee5760405162461bcd60e51b815260206004820152602960248201527f4552433732313a2061646472657373207a65726f206973206e6f7420612076616044820152683634b21037bbb732b960b91b6064820152608401610559565b506001600160a01b031660009081526004602052604090205490565b3361091d6000546001600160a01b031690565b6001600160a01b0316146109435760405162461bcd60e51b815260040161055990611ebe565b61094d600061104f565b565b336109626000546001600160a01b031690565b6001600160a01b0316146109885760405162461bcd60e51b815260040161055990611ebe565b805161099b9060119060208401906119f6565b5050565b60606002805461047690611fcf565b61099b33838361109f565b336109cc6000546001600160a01b031690565b6001600160a01b0316146109f25760405162461bcd60e51b815260040161055990611ebe565b600e80546001600160a01b0319166001600160a01b0392909216919091179055565b60118054610a2190611fcf565b80601f0160208091040260200160405190810160405280929190818152602001828054610a4d90611fcf565b8015610a9a5780601f10610a6f57610100808354040283529160200191610a9a565b820191906000526020600020905b815481529060010190602001808311610a7d57829003601f168201915b505050505081565b610aac3383610fd0565b610ac85760405162461bcd60e51b815260040161055990611ef3565b610ad48484848461116e565b50505050565b6060610461826111a1565b600033610afa6000546001600160a01b031690565b6001600160a01b031614610b205760405162461bcd60e51b815260040161055990611ebe565b600d546009541115610b685760405162461bcd60e51b8152602060048201526011602482015270105b1b081d1bdad95b9cc81b5a5b9d1959607a1b6044820152606401610559565b6000825111610b7657600080fd5b600c82604051610b869190611dd1565b9081526040519081900360200190205460ff1660011415610ba657600080fd5b6001600c83604051610bb89190611dd1565b908152604051908190036020019020805460ff9290921660ff199092169190911790556000610be660095490565b610bf1906001611f41565b9050610bfd848261129d565b610c0781846112b7565b604080518281526001600160a01b03861660208201527ff3cea5493d790af0133817606f7350a91d7f154ea52eaa79d179d4d231e50102910160405180910390a19392505050565b33610c626000546001600160a01b031690565b6001600160a01b031614610c885760405162461bcd60e51b815260040161055990611ebe565b6001600160a01b038116610ced5760405162461bcd60e51b815260206004820152602660248201527f4f776e61626c653a206e6577206f776e657220697320746865207a65726f206160448201526564647265737360d01b6064820152608401610559565b610cf68161104f565b50565b33610d0c6000546001600160a01b031690565b6001600160a01b031614610d325760405162461bcd60e51b815260040161055990611ebe565b600f55565b60006001600160e01b0319821663780e9d6360e01b1480610461575061046182611351565b6000818152600360205260409020546001600160a01b0316610cf65760405162461bcd60e51b8152602060048201526018602482015277115490cdcc8c4e881a5b9d985b1a59081d1bdad95b88125160421b6044820152606401610559565b826001600160a01b0316610dce82610824565b6001600160a01b031614610e325760405162461bcd60e51b815260206004820152602560248201527f4552433732313a207472616e736665722066726f6d20696e636f72726563742060448201526437bbb732b960d91b6064820152608401610559565b6001600160a01b038216610e945760405162461bcd60e51b8152602060048201526024808201527f4552433732313a207472616e7366657220746f20746865207a65726f206164646044820152637265737360e01b6064820152608401610559565b610e9f8383836113a1565b610eaa600082610f62565b6001600160a01b0383166000908152600460205260408120805460019290610ed3908490611f8c565b90915550506001600160a01b0382166000908152600460205260408120805460019290610f01908490611f41565b909155505060008181526003602052604080822080546001600160a01b0319166001600160a01b0386811691821790925591518493918716917fddf252ad1be2c89b69c2b068fc378daa952ba7f163c4a11628f55a4df523b3ef91a4505050565b600081815260056020526040902080546001600160a01b0319166001600160a01b0384169081179091558190610f9782610824565b6001600160a01b03167f8c5be1e5ebec7d5bd14f71427d1e84f3dd0314c0f7b2291e5b200ac8c7c3b92560405160405180910390a45050565b600080610fdc83610824565b9050806001600160a01b0316846001600160a01b0316148061102357506001600160a01b0380821660009081526006602090815260408083209388168352929052205460ff165b806110475750836001600160a01b031661103c846104f9565b6001600160a01b0316145b949350505050565b600080546001600160a01b038381166001600160a01b0319831681178455604051919092169283917f8be0079c531659141344cd1fd0a4f28419497f9722a3daafe3b4186f6b6457e09190a35050565b816001600160a01b0316836001600160a01b031614156111015760405162461bcd60e51b815260206004820152601960248201527f4552433732313a20617070726f766520746f2063616c6c6572000000000000006044820152606401610559565b6001600160a01b03838116600081815260066020908152604080832094871680845294825291829020805460ff191686151590811790915591519182527f17307eab39ab6107e8899845ad3d59bd9653f200f220920489ca2b5937696c31910160405180910390a3505050565b611179848484610dbb565b611185848484846113ac565b610ad45760405162461bcd60e51b815260040161055990611e6c565b60606111ac82610d5c565b6000828152600b6020526040812080546111c590611fcf565b80601f01602080910402602001604051908101604052809291908181526020018280546111f190611fcf565b801561123e5780601f106112135761010080835404028352916020019161123e565b820191906000526020600020905b81548152906001019060200180831161122157829003601f168201915b50505050509050600061124f6114b9565b9050805160001415611262575092915050565b81511561129457808260405160200161127c929190611ded565b60405160208183030381529060405292505050919050565b611047846114c8565b61099b82826040518060200160405280600081525061152f565b6000828152600360205260409020546001600160a01b03166113325760405162461bcd60e51b815260206004820152602e60248201527f45524337323155524953746f726167653a2055524920736574206f66206e6f6e60448201526d32bc34b9ba32b73a103a37b5b2b760911b6064820152608401610559565b6000828152600b60209081526040909120825161056d928401906119f6565b60006001600160e01b031982166380ac58cd60e01b148061138257506001600160e01b03198216635b5e139f60e01b145b8061046157506301ffc9a760e01b6001600160e01b0319831614610461565b61056d838383611562565b60006001600160a01b0384163b156114ae57604051630a85bd0160e11b81526001600160a01b0385169063150b7a02906113f0903390899088908890600401611e1c565b602060405180830381600087803b15801561140a57600080fd5b505af192505050801561143a575060408051601f3d908101601f1916820190925261143791810190611d18565b60015b611494573d808015611468576040519150601f19603f3d011682016040523d82523d6000602084013e61146d565b606091505b50805161148c5760405162461bcd60e51b815260040161055990611e6c565b805181602001fd5b6001600160e01b031916630a85bd0160e11b149050611047565b506001949350505050565b60606010805461047690611fcf565b60606114d382610d5c565b60006114dd6114b9565b905060008151116114fd5760405180602001604052806000815250611528565b806115078461161a565b604051602001611518929190611ded565b6040516020818303038152906040525b9392505050565b6115398383611718565b61154660008484846113ac565b61056d5760405162461bcd60e51b815260040161055990611e6c565b6001600160a01b0383166115bd576115b881600980546000838152600a60205260408120829055600182018355919091527f6e1540171b6c0c960b71a7020d9f60077f6af931a8bbf590da0223dacf75c7af0155565b6115e0565b816001600160a01b0316836001600160a01b0316146115e0576115e08382611866565b6001600160a01b0382166115f75761056d81611903565b826001600160a01b0316826001600160a01b03161461056d5761056d82826119b2565b60608161163e5750506040805180820190915260018152600360fc1b602082015290565b8160005b811561166857806116528161200a565b91506116619050600a83611f59565b9150611642565b60008167ffffffffffffffff81111561168357611683612091565b6040519080825280601f01601f1916602001820160405280156116ad576020820181803683370190505b5090505b8415611047576116c2600183611f8c565b91506116cf600a86612025565b6116da906030611f41565b60f81b8183815181106116ef576116ef61207b565b60200101906001600160f81b031916908160001a905350611711600a86611f59565b94506116b1565b6001600160a01b03821661176e5760405162461bcd60e51b815260206004820181905260248201527f4552433732313a206d696e7420746f20746865207a65726f20616464726573736044820152606401610559565b6000818152600360205260409020546001600160a01b0316156117d35760405162461bcd60e51b815260206004820152601c60248201527f4552433732313a20746f6b656e20616c7265616479206d696e746564000000006044820152606401610559565b6117df600083836113a1565b6001600160a01b0382166000908152600460205260408120805460019290611808908490611f41565b909155505060008181526003602052604080822080546001600160a01b0319166001600160a01b03861690811790915590518392907fddf252ad1be2c89b69c2b068fc378daa952ba7f163c4a11628f55a4df523b3ef908290a45050565b6000600161187384610884565b61187d9190611f8c565b6000838152600860205260409020549091508082146118d0576001600160a01b03841660009081526007602090815260408083208584528252808320548484528184208190558352600890915290208190555b5060009182526008602090815260408084208490556001600160a01b039094168352600781528383209183525290812055565b60095460009061191590600190611f8c565b6000838152600a60205260408120546009805493945090928490811061193d5761193d61207b565b90600052602060002001549050806009838154811061195e5761195e61207b565b6000918252602080832090910192909255828152600a9091526040808220849055858252812055600980548061199657611996612065565b6001900381819060005260206000200160009055905550505050565b60006119bd83610884565b6001600160a01b039093166000908152600760209081526040808320868452825280832085905593825260089052919091209190915550565b828054611a0290611fcf565b90600052602060002090601f016020900481019282611a245760008555611a6a565b82601f10611a3d57805160ff1916838001178555611a6a565b82800160010185558215611a6a579182015b82811115611a6a578251825591602001919060010190611a4f565b50611a76929150611a7a565b5090565b5b80821115611a765760008155600101611a7b565b600067ffffffffffffffff80841115611aaa57611aaa612091565b604051601f8501601f19908116603f01168101908282118183101715611ad257611ad2612091565b81604052809350858152868686011115611aeb57600080fd5b858560208301376000602087830101525050509392505050565b80356001600160a01b0381168114611b1c57600080fd5b919050565b600082601f830112611b3257600080fd5b61152883833560208501611a8f565b600060208284031215611b5357600080fd5b61152882611b05565b60008060408385031215611b6f57600080fd5b611b7883611b05565b9150611b8660208401611b05565b90509250929050565b600080600060608486031215611ba457600080fd5b611bad84611b05565b9250611bbb60208501611b05565b9150604084013590509250925092565b60008060008060808587031215611be157600080fd5b611bea85611b05565b9350611bf860208601611b05565b925060408501359150606085013567ffffffffffffffff811115611c1b57600080fd5b8501601f81018713611c2c57600080fd5b611c3b87823560208401611a8f565b91505092959194509250565b60008060408385031215611c5a57600080fd5b611c6383611b05565b915060208301358015158114611c7857600080fd5b809150509250929050565b60008060408385031215611c9657600080fd5b611c9f83611b05565b9150602083013567ffffffffffffffff811115611cbb57600080fd5b611cc785828601611b21565b9150509250929050565b60008060408385031215611ce457600080fd5b611ced83611b05565b946020939093013593505050565b600060208284031215611d0d57600080fd5b8135611528816120a7565b600060208284031215611d2a57600080fd5b8151611528816120a7565b600060208284031215611d4757600080fd5b813567ffffffffffffffff811115611d5e57600080fd5b61104784828501611b21565b600060208284031215611d7c57600080fd5b5035919050565b60008060408385031215611d9657600080fd5b50508035926020909101359150565b60008151808452611dbd816020860160208601611fa3565b601f01601f19169290920160200192915050565b60008251611de3818460208701611fa3565b9190910192915050565b60008351611dff818460208801611fa3565b835190830190611e13818360208801611fa3565b01949350505050565b6001600160a01b0385811682528416602082015260408101839052608060608201819052600090611e4f90830184611da5565b9695505050505050565b6020815260006115286020830184611da5565b60208082526032908201527f4552433732313a207472616e7366657220746f206e6f6e20455243373231526560408201527131b2b4bb32b91034b6b83632b6b2b73a32b960711b606082015260800190565b6020808252818101527f4f776e61626c653a2063616c6c6572206973206e6f7420746865206f776e6572604082015260600190565b6020808252602e908201527f4552433732313a2063616c6c6572206973206e6f7420746f6b656e206f776e6560408201526d1c881b9bdc88185c1c1c9bdd995960921b606082015260800190565b60008219821115611f5457611f54612039565b500190565b600082611f6857611f6861204f565b500490565b6000816000190483118215151615611f8757611f87612039565b500290565b600082821015611f9e57611f9e612039565b500390565b60005b83811015611fbe578181015183820152602001611fa6565b83811115610ad45750506000910152565b600181811c90821680611fe357607f821691505b6020821081141561200457634e487b7160e01b600052602260045260246000fd5b50919050565b600060001982141561201e5761201e612039565b5060010190565b6000826120345761203461204f565b500690565b634e487b7160e01b600052601160045260246000fd5b634e487b7160e01b600052601260045260246000fd5b634e487b7160e01b600052603160045260246000fd5b634e487b7160e01b600052603260045260246000fd5b634e487b7160e01b600052604160045260246000fd5b6001600160e01b031981168114610cf657600080fdfea2646970667358221220cd80d35c3658f90612be4d8af432d2aaff80aa34c6033c7c4add1966787eefb764736f6c63430008070033a2646970667358221220cda55c364b1cda5fcd7eaf387e57de8d4592e0203564db3837f0cfefb8a1f18b64736f6c63430008070033",
  "immutableReferences": {},
  "source": "// SPDX-License-Identifier: Apache-2.0\r\npragma solidity ^0.8.0;\r\n\r\nimport '@openzeppelin/contracts/token/ERC721/IERC721.sol';\r\n\r\nimport './NFTInfoStorage.sol';\r\nimport './NFTCollection.sol';\r\nimport './interface/ISales.sol';\r\n\r\ncontract metaMaster is Ownable, NFTInfoStorage{\r\n    //------------\r\n    //collection manager\r\n    //------------\r\n    event NewCollection(address indexed creator, address collection);\r\n\r\n    mapping(address => address) public collectionOwner;\r\n    mapping (address => address[]) public userOwnedCollections;\r\n\r\n    mapping(uint256 => address) public createdCollections;\r\n    uint256 public createdCollectionNum;\r\n\r\n    function userOwnedCollectionNum(address user) public view returns(uint){\r\n        return userOwnedCollections[user].length;\r\n    }\r\n\r\n    function createCollection(string memory _name, string memory _symbol,\r\n            string memory _baseURI, uint _max_supply, string memory _metaInfo,\r\n            address royaltiesReceiver, uint royaltiesPercentageInBips) public returns(address) {\r\n        require(royaltiesPercentageInBips + feeInBips <= 10000, \"Royalty overflow\");\r\n        NFTCollection _collection = new NFTCollection(_name, _symbol, _baseURI, _max_supply);\r\n        _collection.setMetaInfo(_metaInfo);\r\n        _collection.setRoyaltiesPercentageInBips(royaltiesPercentageInBips);\r\n        _collection.setRoyaltiesReceiver(royaltiesReceiver);\r\n        collectionOwner[address(_collection)] = msg.sender;\r\n        userOwnedCollections[msg.sender].push(address(_collection));\r\n        createdCollections[createdCollectionNum] = address(_collection);\r\n        createdCollectionNum ++;\r\n        emit NewCollection(msg.sender, address(_collection));\r\n        return address(_collection);\r\n    }\r\n\r\n    function setCollectionMetaInfo(address _collection, string memory _metaInfo) external{\r\n        require(collectionOwner[address(_collection)] == msg.sender, \"Not owner\");\r\n        NFTCollection(_collection).setMetaInfo(_metaInfo);\r\n    }\r\n\r\n    function setCollectionRoyalty(address _collection, address royaltiesReceiver, uint royaltiesPercentageInBips) external{\r\n        require(collectionOwner[address(_collection)] == msg.sender, \"Not owner\");\r\n        require(royaltiesPercentageInBips + feeInBips <= 10000, \"Royalty overflow\");\r\n        NFTCollection(_collection).setRoyaltiesReceiver(royaltiesReceiver);\r\n        NFTCollection(_collection).setRoyaltiesPercentageInBips(royaltiesPercentageInBips);\r\n    }\r\n\r\n    //------------\r\n    //sales: manager\r\n    //------------\r\n\r\n    address[] public marketSales;\r\n\r\n    function addMarketSale(address _sale) external onlyOwner{\r\n        marketSales.push(_sale);\r\n        setSale(_sale, true);\r\n    }\r\n\r\n    function marketSalesNum() public view returns(uint256){\r\n        return marketSales.length;\r\n    } \r\n\r\n    //------------\r\n    //sales: interaction\r\n    //------------\r\n\r\n    function sell(address collection, uint token_id,\r\n        uint market, address _token, uint _price, uint _duration) public {\r\n        require(market < marketSales.length, \"Wrong market\");\r\n        require(IERC721(collection).ownerOf(token_id) == msg.sender, \"Not owner\");\r\n        require(tokenIsSupported[_token], \"Wrong token\");\r\n        require(_price == uint256(uint128(_price)), \"Price overflow\");\r\n        NFTCollection(collection).transferByMaster(msg.sender, marketSales[market], token_id);\r\n        ISales(marketSales[market]).create(collection, token_id, msg.sender, _token, _price, _duration);\r\n    }\r\n\r\n    //------------\r\n    //fee manager\r\n    //------------\r\n\r\n    address public feeCollector;\r\n\r\n    uint public feeInBips;\r\n\r\n    function setFeeConfig(address _feeCollector, uint _feeInBips) external onlyOwner{\r\n        feeCollector = _feeCollector;\r\n        feeInBips = _feeInBips;\r\n    }\r\n\r\n    mapping(address => bool) public tokenIsSupported;\r\n\r\n    function setTokenSupport(address _token, bool _status) external onlyOwner{\r\n        tokenIsSupported[_token] = _status;\r\n    }\r\n\r\n    //------------\r\n    //nft manager\r\n    //------------\r\n\r\n    function mint(address _collection, address _recipient, string memory _hash) public returns(uint){\r\n        require(collectionOwner[address(_collection)] == msg.sender, \"Not owner\");\r\n        return NFTCollection(_collection).mint(_recipient, _hash);\r\n    }\r\n\r\n    function mintAndSell(address _collection, string memory _hash,\r\n        uint market, address _token, uint _price, uint _duration) external {\r\n        uint _tokenId = mint(_collection, msg.sender, _hash);\r\n        sell(_collection, _tokenId, market, _token, _price, _duration);\r\n    }\r\n\r\n    //------------\r\n    //transfer NFT\r\n    //------------\r\n\r\n    function transfer(address _collection, uint _tokenId, address _recipient) public{\r\n        require(IERC721(_collection).ownerOf(_tokenId) == msg.sender);\r\n        NFTCollection(_collection).transferByMaster(msg.sender, _recipient, _tokenId);\r\n    }\r\n\r\n    //------------\r\n    //constructor\r\n    //------------\r\n\r\n    constructor() {\r\n        feeCollector = msg.sender;\r\n        feeInBips = 250;\r\n        tokenIsSupported[address(0)] = true;\r\n    }\r\n\r\n\r\n}\r\n",
  "sourcePath": "E:\\\\metaLifeProtocol\\contracts\\metaMaster.sol",
  "compiler": {
    "name": "solc",
    "version": "0.8.7+commit.e28d00a7.Emscripten.clang"
  },
  "schemaVersion": "3.4.7",
  "updatedAt": "2022-07-20T15:04:49.394Z",
  "devdoc": {
    "kind": "dev",
    "methods": {
      "owner()": {
        "details": "Returns the address of the current owner."
      },
      "renounceOwnership()": {
        "details": "Leaves the contract without owner. It will not be possible to call `onlyOwner` functions anymore. Can only be called by the current owner. NOTE: Renouncing ownership will leave the contract without an owner, thereby removing any functionality that is only available to the owner."
      },
      "transferOwnership(address)": {
        "details": "Transfers ownership of the contract to a new account (`newOwner`). Can only be called by the current owner."
      }
    },
    "version": 1
  },
  "userdoc": {
    "kind": "user",
    "methods": {},
    "version": 1
  }
}