{
  "contractName": "NFTCollection",
  "abi": [
    {
      "inputs": [
        {
          "internalType": "string",
          "name": "name_",
          "type": "string"
        },
        {
          "internalType": "string",
          "name": "symbol_",
          "type": "string"
        },
        {
          "internalType": "string",
          "name": "baseURI_",
          "type": "string"
        },
        {
          "internalType": "uint256",
          "name": "max_supply_",
          "type": "uint256"
        }
      ],
      "stateMutability": "nonpayable",
      "type": "constructor"
    },
    {
      "anonymous": false,
      "inputs": [
        {
          "indexed": true,
          "internalType": "address",
          "name": "owner",
          "type": "address"
        },
        {
          "indexed": true,
          "internalType": "address",
          "name": "approved",
          "type": "address"
        },
        {
          "indexed": true,
          "internalType": "uint256",
          "name": "tokenId",
          "type": "uint256"
        }
      ],
      "name": "Approval",
      "type": "event"
    },
    {
      "anonymous": false,
      "inputs": [
        {
          "indexed": true,
          "internalType": "address",
          "name": "owner",
          "type": "address"
        },
        {
          "indexed": true,
          "internalType": "address",
          "name": "operator",
          "type": "address"
        },
        {
          "indexed": false,
          "internalType": "bool",
          "name": "approved",
          "type": "bool"
        }
      ],
      "name": "ApprovalForAll",
      "type": "event"
    },
    {
      "anonymous": false,
      "inputs": [
        {
          "indexed": false,
          "internalType": "uint256",
          "name": "tokenId",
          "type": "uint256"
        },
        {
          "indexed": false,
          "internalType": "address",
          "name": "recipient",
          "type": "address"
        }
      ],
      "name": "Mint",
      "type": "event"
    },
    {
      "anonymous": false,
      "inputs": [
        {
          "indexed": true,
          "internalType": "address",
          "name": "previousOwner",
          "type": "address"
        },
        {
          "indexed": true,
          "internalType": "address",
          "name": "newOwner",
          "type": "address"
        }
      ],
      "name": "OwnershipTransferred",
      "type": "event"
    },
    {
      "anonymous": false,
      "inputs": [
        {
          "indexed": true,
          "internalType": "address",
          "name": "from",
          "type": "address"
        },
        {
          "indexed": true,
          "internalType": "address",
          "name": "to",
          "type": "address"
        },
        {
          "indexed": true,
          "internalType": "uint256",
          "name": "tokenId",
          "type": "uint256"
        }
      ],
      "name": "Transfer",
      "type": "event"
    },
    {
      "inputs": [],
      "name": "MAX_SUPPLY",
      "outputs": [
        {
          "internalType": "uint256",
          "name": "",
          "type": "uint256"
        }
      ],
      "stateMutability": "view",
      "type": "function"
    },
    {
      "inputs": [
        {
          "internalType": "address",
          "name": "to",
          "type": "address"
        },
        {
          "internalType": "uint256",
          "name": "tokenId",
          "type": "uint256"
        }
      ],
      "name": "approve",
      "outputs": [],
      "stateMutability": "nonpayable",
      "type": "function"
    },
    {
      "inputs": [
        {
          "internalType": "address",
          "name": "owner",
          "type": "address"
        }
      ],
      "name": "balanceOf",
      "outputs": [
        {
          "internalType": "uint256",
          "name": "",
          "type": "uint256"
        }
      ],
      "stateMutability": "view",
      "type": "function"
    },
    {
      "inputs": [
        {
          "internalType": "uint256",
          "name": "tokenId",
          "type": "uint256"
        }
      ],
      "name": "getApproved",
      "outputs": [
        {
          "internalType": "address",
          "name": "",
          "type": "address"
        }
      ],
      "stateMutability": "view",
      "type": "function"
    },
    {
      "inputs": [
        {
          "internalType": "address",
          "name": "owner",
          "type": "address"
        },
        {
          "internalType": "address",
          "name": "operator",
          "type": "address"
        }
      ],
      "name": "isApprovedForAll",
      "outputs": [
        {
          "internalType": "bool",
          "name": "",
          "type": "bool"
        }
      ],
      "stateMutability": "view",
      "type": "function"
    },
    {
      "inputs": [],
      "name": "metaInfo",
      "outputs": [
        {
          "internalType": "string",
          "name": "",
          "type": "string"
        }
      ],
      "stateMutability": "view",
      "type": "function"
    },
    {
      "inputs": [],
      "name": "name",
      "outputs": [
        {
          "internalType": "string",
          "name": "",
          "type": "string"
        }
      ],
      "stateMutability": "view",
      "type": "function"
    },
    {
      "inputs": [],
      "name": "owner",
      "outputs": [
        {
          "internalType": "address",
          "name": "",
          "type": "address"
        }
      ],
      "stateMutability": "view",
      "type": "function"
    },
    {
      "inputs": [
        {
          "internalType": "uint256",
          "name": "tokenId",
          "type": "uint256"
        }
      ],
      "name": "ownerOf",
      "outputs": [
        {
          "internalType": "address",
          "name": "",
          "type": "address"
        }
      ],
      "stateMutability": "view",
      "type": "function"
    },
    {
      "inputs": [],
      "name": "renounceOwnership",
      "outputs": [],
      "stateMutability": "nonpayable",
      "type": "function"
    },
    {
      "inputs": [],
      "name": "royaltiesPercentageInBips",
      "outputs": [
        {
          "internalType": "uint256",
          "name": "",
          "type": "uint256"
        }
      ],
      "stateMutability": "view",
      "type": "function"
    },
    {
      "inputs": [],
      "name": "royaltiesReceiver",
      "outputs": [
        {
          "internalType": "address",
          "name": "",
          "type": "address"
        }
      ],
      "stateMutability": "view",
      "type": "function"
    },
    {
      "inputs": [
        {
          "internalType": "address",
          "name": "from",
          "type": "address"
        },
        {
          "internalType": "address",
          "name": "to",
          "type": "address"
        },
        {
          "internalType": "uint256",
          "name": "tokenId",
          "type": "uint256"
        }
      ],
      "name": "safeTransferFrom",
      "outputs": [],
      "stateMutability": "nonpayable",
      "type": "function"
    },
    {
      "inputs": [
        {
          "internalType": "address",
          "name": "from",
          "type": "address"
        },
        {
          "internalType": "address",
          "name": "to",
          "type": "address"
        },
        {
          "internalType": "uint256",
          "name": "tokenId",
          "type": "uint256"
        },
        {
          "internalType": "bytes",
          "name": "data",
          "type": "bytes"
        }
      ],
      "name": "safeTransferFrom",
      "outputs": [],
      "stateMutability": "nonpayable",
      "type": "function"
    },
    {
      "inputs": [
        {
          "internalType": "address",
          "name": "operator",
          "type": "address"
        },
        {
          "internalType": "bool",
          "name": "approved",
          "type": "bool"
        }
      ],
      "name": "setApprovalForAll",
      "outputs": [],
      "stateMutability": "nonpayable",
      "type": "function"
    },
    {
      "inputs": [],
      "name": "symbol",
      "outputs": [
        {
          "internalType": "string",
          "name": "",
          "type": "string"
        }
      ],
      "stateMutability": "view",
      "type": "function"
    },
    {
      "inputs": [
        {
          "internalType": "uint256",
          "name": "index",
          "type": "uint256"
        }
      ],
      "name": "tokenByIndex",
      "outputs": [
        {
          "internalType": "uint256",
          "name": "",
          "type": "uint256"
        }
      ],
      "stateMutability": "view",
      "type": "function"
    },
    {
      "inputs": [
        {
          "internalType": "address",
          "name": "owner",
          "type": "address"
        },
        {
          "internalType": "uint256",
          "name": "index",
          "type": "uint256"
        }
      ],
      "name": "tokenOfOwnerByIndex",
      "outputs": [
        {
          "internalType": "uint256",
          "name": "",
          "type": "uint256"
        }
      ],
      "stateMutability": "view",
      "type": "function"
    },
    {
      "inputs": [],
      "name": "totalSupply",
      "outputs": [
        {
          "internalType": "uint256",
          "name": "",
          "type": "uint256"
        }
      ],
      "stateMutability": "view",
      "type": "function"
    },
    {
      "inputs": [
        {
          "internalType": "address",
          "name": "from",
          "type": "address"
        },
        {
          "internalType": "address",
          "name": "to",
          "type": "address"
        },
        {
          "internalType": "uint256",
          "name": "tokenId",
          "type": "uint256"
        }
      ],
      "name": "transferFrom",
      "outputs": [],
      "stateMutability": "nonpayable",
      "type": "function"
    },
    {
      "inputs": [
        {
          "internalType": "address",
          "name": "newOwner",
          "type": "address"
        }
      ],
      "name": "transferOwnership",
      "outputs": [],
      "stateMutability": "nonpayable",
      "type": "function"
    },
    {
      "inputs": [
        {
          "internalType": "string",
          "name": "metaInfo_",
          "type": "string"
        }
      ],
      "name": "setMetaInfo",
      "outputs": [],
      "stateMutability": "nonpayable",
      "type": "function"
    },
    {
      "inputs": [
        {
          "internalType": "uint256",
          "name": "newRoyaltiesPercentageInBips",
          "type": "uint256"
        }
      ],
      "name": "setRoyaltiesPercentageInBips",
      "outputs": [],
      "stateMutability": "nonpayable",
      "type": "function"
    },
    {
      "inputs": [
        {
          "internalType": "address",
          "name": "newRoyaltiesReceiver",
          "type": "address"
        }
      ],
      "name": "setRoyaltiesReceiver",
      "outputs": [],
      "stateMutability": "nonpayable",
      "type": "function"
    },
    {
      "inputs": [
        {
          "internalType": "uint256",
          "name": "_tokenId",
          "type": "uint256"
        },
        {
          "internalType": "uint256",
          "name": "_salePrice",
          "type": "uint256"
        }
      ],
      "name": "royaltyInfo",
      "outputs": [
        {
          "internalType": "address",
          "name": "receiver",
          "type": "address"
        },
        {
          "internalType": "uint256",
          "name": "royaltyAmount",
          "type": "uint256"
        }
      ],
      "stateMutability": "view",
      "type": "function"
    },
    {
      "inputs": [
        {
          "internalType": "address",
          "name": "recipient",
          "type": "address"
        },
        {
          "internalType": "string",
          "name": "hash",
          "type": "string"
        }
      ],
      "name": "mint",
      "outputs": [
        {
          "internalType": "uint256",
          "name": "tokenId",
          "type": "uint256"
        }
      ],
      "stateMutability": "nonpayable",
      "type": "function"
    },
    {
      "inputs": [
        {
          "internalType": "uint256",
          "name": "tokenId",
          "type": "uint256"
        }
      ],
      "name": "tokenURI",
      "outputs": [
        {
          "internalType": "string",
          "name": "",
          "type": "string"
        }
      ],
      "stateMutability": "view",
      "type": "function"
    },
    {
      "inputs": [
        {
          "internalType": "bytes4",
          "name": "interfaceId",
          "type": "bytes4"
        }
      ],
      "name": "supportsInterface",
      "outputs": [
        {
          "internalType": "bool",
          "name": "",
          "type": "bool"
        }
      ],
      "stateMutability": "view",
      "type": "function"
    },
    {
      "inputs": [
        {
          "internalType": "address",
          "name": "from",
          "type": "address"
        },
        {
          "internalType": "address",
          "name": "to",
          "type": "address"
        },
        {
          "internalType": "uint256",
          "name": "tokenId",
          "type": "uint256"
        }
      ],
      "name": "transferByMaster",
      "outputs": [],
      "stateMutability": "nonpayable",
      "type": "function"
    }
  ],
  "bytecode": "0x60806040523480156200001157600080fd5b506040516200248d3803806200248d83398101604081905262000034916200029e565b83836200004133620000f1565b81516200005690600190602085019062000141565b5080516200006c90600290602084019062000141565b50508251620000849150601090602085019062000141565b50600d8190556001600160601b0381168114620000e75760405162461bcd60e51b815260206004820152601b60248201527f546f6f206d616e7920737570706c6965733a206f766572666c6f770000000000604482015260640160405180910390fd5b505050506200038a565b600080546001600160a01b038381166001600160a01b0319831681178455604051919092169283917f8be0079c531659141344cd1fd0a4f28419497f9722a3daafe3b4186f6b6457e09190a35050565b8280546200014f9062000337565b90600052602060002090601f016020900481019282620001735760008555620001be565b82601f106200018e57805160ff1916838001178555620001be565b82800160010185558215620001be579182015b82811115620001be578251825591602001919060010190620001a1565b50620001cc929150620001d0565b5090565b5b80821115620001cc5760008155600101620001d1565b600082601f830112620001f957600080fd5b81516001600160401b038082111562000216576200021662000374565b604051601f8301601f19908116603f0116810190828211818310171562000241576200024162000374565b816040528381526020925086838588010111156200025e57600080fd5b600091505b8382101562000282578582018301518183018401529082019062000263565b83821115620002945760008385830101525b9695505050505050565b60008060008060808587031215620002b557600080fd5b84516001600160401b0380821115620002cd57600080fd5b620002db88838901620001e7565b95506020870151915080821115620002f257600080fd5b6200030088838901620001e7565b945060408701519150808211156200031757600080fd5b506200032687828801620001e7565b606096909601519497939650505050565b600181811c908216806200034c57607f821691505b602082108114156200036e57634e487b7160e01b600052602260045260246000fd5b50919050565b634e487b7160e01b600052604160045260246000fd5b6120f3806200039a6000396000f3fe608060405234801561001057600080fd5b50600436106101cf5760003560e01c806370a0823111610104578063b5143715116100a2578063d0def52111610071578063d0def521146103c7578063e985e9c5146103da578063f2fde38b14610416578063f788359a1461042957600080fd5b8063b514371514610386578063b70aeaf414610399578063b88d4fde146103a1578063c87b56dd146103b457600080fd5b80638da5cb5b116100de5780638da5cb5b1461034757806395d89b4114610358578063a22cb46514610360578063a3a51bd51461037357600080fd5b806370a0823114610319578063715018a61461032c57806374d670ef1461033457600080fd5b806323b872dd1161017157806332cb6b0c1161014b57806332cb6b0c146102d757806342842e0e146102e05780634f6ccce7146102f35780636352211e1461030657600080fd5b806323b872dd1461027f5780632a55205a146102925780632f745c59146102c457600080fd5b8063086b2444116101ad578063086b24441461023c578063095ea7b31461025157806318160ddd146102645780632175c9901461027657600080fd5b806301ffc9a7146101d457806306fdde03146101fc578063081812fc14610211575b600080fd5b6101e76101e2366004611cfb565b61043c565b60405190151581526020015b60405180910390f35b610204610467565b6040516101f39190611e59565b61022461021f366004611d6a565b6104f9565b6040516001600160a01b0390911681526020016101f3565b61024f61024a366004611b8f565b610520565b005b61024f61025f366004611cd1565b610572565b6009545b6040519081526020016101f3565b610268600f5481565b61024f61028d366004611b8f565b610683565b6102a56102a0366004611d83565b6106a9565b604080516001600160a01b0390931683526020830191909152016101f3565b6102686102d2366004611cd1565b6106e0565b610268600d5481565b61024f6102ee366004611b8f565b610776565b610268610301366004611d6a565b610791565b610224610314366004611d6a565b610824565b610268610327366004611b41565b610884565b61024f61090a565b61024f610342366004611d35565b61094f565b6000546001600160a01b0316610224565b61020461099f565b61024f61036e366004611c47565b6109ae565b600e54610224906001600160a01b031681565b61024f610394366004611b41565b6109b9565b610204610a14565b61024f6103af366004611bcb565b610aa2565b6102046103c2366004611d6a565b610ada565b6102686103d5366004611c83565b610ae5565b6101e76103e8366004611b5c565b6001600160a01b03918216600090815260066020908152604080832093909416825291909152205460ff1690565b61024f610424366004611b41565b610c4f565b61024f610437366004611d6a565b610cf9565b600063152a902d60e11b6001600160e01b031983161480610461575061046182610d37565b92915050565b60606001805461047690611fcf565b80601f01602080910402602001604051908101604052809291908181526020018280546104a290611fcf565b80156104ef5780601f106104c4576101008083540402835291602001916104ef565b820191906000526020600020905b8154815290600101906020018083116104d257829003601f168201915b5050505050905090565b600061050482610d5c565b506000908152600560205260409020546001600160a01b031690565b336105336000546001600160a01b031690565b6001600160a01b0316146105625760405162461bcd60e51b815260040161055990611ebe565b60405180910390fd5b61056d838383610dbb565b505050565b600061057d82610824565b9050806001600160a01b0316836001600160a01b031614156105eb5760405162461bcd60e51b815260206004820152602160248201527f4552433732313a20617070726f76616c20746f2063757272656e74206f776e656044820152603960f91b6064820152608401610559565b336001600160a01b0382161480610607575061060781336103e8565b6106795760405162461bcd60e51b815260206004820152603e60248201527f4552433732313a20617070726f76652063616c6c6572206973206e6f7420746f60448201527f6b656e206f776e6572206e6f7220617070726f76656420666f7220616c6c00006064820152608401610559565b61056d8383610f62565b61068d3382610fd0565b6105625760405162461bcd60e51b815260040161055990611ef3565b6000806000612710600f54856106bf9190611f6d565b6106c99190611f59565b600e546001600160a01b0316969095509350505050565b60006106eb83610884565b821061074d5760405162461bcd60e51b815260206004820152602b60248201527f455243373231456e756d657261626c653a206f776e657220696e646578206f7560448201526a74206f6620626f756e647360a81b6064820152608401610559565b506001600160a01b03919091166000908152600760209081526040808320938352929052205490565b61056d83838360405180602001604052806000815250610aa2565b600061079c60095490565b82106107ff5760405162461bcd60e51b815260206004820152602c60248201527f455243373231456e756d657261626c653a20676c6f62616c20696e646578206f60448201526b7574206f6620626f756e647360a01b6064820152608401610559565b600982815481106108125761081261207b565b90600052602060002001549050919050565b6000818152600360205260408120546001600160a01b0316806104615760405162461bcd60e51b8152602060048201526018602482015277115490cdcc8c4e881a5b9d985b1a59081d1bdad95b88125160421b6044820152606401610559565b60006001600160a01b0382166108ee5760405162461bcd60e51b815260206004820152602960248201527f4552433732313a2061646472657373207a65726f206973206e6f7420612076616044820152683634b21037bbb732b960b91b6064820152608401610559565b506001600160a01b031660009081526004602052604090205490565b3361091d6000546001600160a01b031690565b6001600160a01b0316146109435760405162461bcd60e51b815260040161055990611ebe565b61094d600061104f565b565b336109626000546001600160a01b031690565b6001600160a01b0316146109885760405162461bcd60e51b815260040161055990611ebe565b805161099b9060119060208401906119f6565b5050565b60606002805461047690611fcf565b61099b33838361109f565b336109cc6000546001600160a01b031690565b6001600160a01b0316146109f25760405162461bcd60e51b815260040161055990611ebe565b600e80546001600160a01b0319166001600160a01b0392909216919091179055565b60118054610a2190611fcf565b80601f0160208091040260200160405190810160405280929190818152602001828054610a4d90611fcf565b8015610a9a5780601f10610a6f57610100808354040283529160200191610a9a565b820191906000526020600020905b815481529060010190602001808311610a7d57829003601f168201915b505050505081565b610aac3383610fd0565b610ac85760405162461bcd60e51b815260040161055990611ef3565b610ad48484848461116e565b50505050565b6060610461826111a1565b600033610afa6000546001600160a01b031690565b6001600160a01b031614610b205760405162461bcd60e51b815260040161055990611ebe565b600d546009541115610b685760405162461bcd60e51b8152602060048201526011602482015270105b1b081d1bdad95b9cc81b5a5b9d1959607a1b6044820152606401610559565b6000825111610b7657600080fd5b600c82604051610b869190611dd1565b9081526040519081900360200190205460ff1660011415610ba657600080fd5b6001600c83604051610bb89190611dd1565b908152604051908190036020019020805460ff9290921660ff199092169190911790556000610be660095490565b610bf1906001611f41565b9050610bfd848261129d565b610c0781846112b7565b604080518281526001600160a01b03861660208201527ff3cea5493d790af0133817606f7350a91d7f154ea52eaa79d179d4d231e50102910160405180910390a19392505050565b33610c626000546001600160a01b031690565b6001600160a01b031614610c885760405162461bcd60e51b815260040161055990611ebe565b6001600160a01b038116610ced5760405162461bcd60e51b815260206004820152602660248201527f4f776e61626c653a206e6577206f776e657220697320746865207a65726f206160448201526564647265737360d01b6064820152608401610559565b610cf68161104f565b50565b33610d0c6000546001600160a01b031690565b6001600160a01b031614610d325760405162461bcd60e51b815260040161055990611ebe565b600f55565b60006001600160e01b0319821663780e9d6360e01b1480610461575061046182611351565b6000818152600360205260409020546001600160a01b0316610cf65760405162461bcd60e51b8152602060048201526018602482015277115490cdcc8c4e881a5b9d985b1a59081d1bdad95b88125160421b6044820152606401610559565b826001600160a01b0316610dce82610824565b6001600160a01b031614610e325760405162461bcd60e51b815260206004820152602560248201527f4552433732313a207472616e736665722066726f6d20696e636f72726563742060448201526437bbb732b960d91b6064820152608401610559565b6001600160a01b038216610e945760405162461bcd60e51b8152602060048201526024808201527f4552433732313a207472616e7366657220746f20746865207a65726f206164646044820152637265737360e01b6064820152608401610559565b610e9f8383836113a1565b610eaa600082610f62565b6001600160a01b0383166000908152600460205260408120805460019290610ed3908490611f8c565b90915550506001600160a01b0382166000908152600460205260408120805460019290610f01908490611f41565b909155505060008181526003602052604080822080546001600160a01b0319166001600160a01b0386811691821790925591518493918716917fddf252ad1be2c89b69c2b068fc378daa952ba7f163c4a11628f55a4df523b3ef91a4505050565b600081815260056020526040902080546001600160a01b0319166001600160a01b0384169081179091558190610f9782610824565b6001600160a01b03167f8c5be1e5ebec7d5bd14f71427d1e84f3dd0314c0f7b2291e5b200ac8c7c3b92560405160405180910390a45050565b600080610fdc83610824565b9050806001600160a01b0316846001600160a01b0316148061102357506001600160a01b0380821660009081526006602090815260408083209388168352929052205460ff165b806110475750836001600160a01b031661103c846104f9565b6001600160a01b0316145b949350505050565b600080546001600160a01b038381166001600160a01b0319831681178455604051919092169283917f8be0079c531659141344cd1fd0a4f28419497f9722a3daafe3b4186f6b6457e09190a35050565b816001600160a01b0316836001600160a01b031614156111015760405162461bcd60e51b815260206004820152601960248201527f4552433732313a20617070726f766520746f2063616c6c6572000000000000006044820152606401610559565b6001600160a01b03838116600081815260066020908152604080832094871680845294825291829020805460ff191686151590811790915591519182527f17307eab39ab6107e8899845ad3d59bd9653f200f220920489ca2b5937696c31910160405180910390a3505050565b611179848484610dbb565b611185848484846113ac565b610ad45760405162461bcd60e51b815260040161055990611e6c565b60606111ac82610d5c565b6000828152600b6020526040812080546111c590611fcf565b80601f01602080910402602001604051908101604052809291908181526020018280546111f190611fcf565b801561123e5780601f106112135761010080835404028352916020019161123e565b820191906000526020600020905b81548152906001019060200180831161122157829003601f168201915b50505050509050600061124f6114b9565b9050805160001415611262575092915050565b81511561129457808260405160200161127c929190611ded565b60405160208183030381529060405292505050919050565b611047846114c8565b61099b82826040518060200160405280600081525061152f565b6000828152600360205260409020546001600160a01b03166113325760405162461bcd60e51b815260206004820152602e60248201527f45524337323155524953746f726167653a2055524920736574206f66206e6f6e60448201526d32bc34b9ba32b73a103a37b5b2b760911b6064820152608401610559565b6000828152600b60209081526040909120825161056d928401906119f6565b60006001600160e01b031982166380ac58cd60e01b148061138257506001600160e01b03198216635b5e139f60e01b145b8061046157506301ffc9a760e01b6001600160e01b0319831614610461565b61056d838383611562565b60006001600160a01b0384163b156114ae57604051630a85bd0160e11b81526001600160a01b0385169063150b7a02906113f0903390899088908890600401611e1c565b602060405180830381600087803b15801561140a57600080fd5b505af192505050801561143a575060408051601f3d908101601f1916820190925261143791810190611d18565b60015b611494573d808015611468576040519150601f19603f3d011682016040523d82523d6000602084013e61146d565b606091505b50805161148c5760405162461bcd60e51b815260040161055990611e6c565b805181602001fd5b6001600160e01b031916630a85bd0160e11b149050611047565b506001949350505050565b60606010805461047690611fcf565b60606114d382610d5c565b60006114dd6114b9565b905060008151116114fd5760405180602001604052806000815250611528565b806115078461161a565b604051602001611518929190611ded565b6040516020818303038152906040525b9392505050565b6115398383611718565b61154660008484846113ac565b61056d5760405162461bcd60e51b815260040161055990611e6c565b6001600160a01b0383166115bd576115b881600980546000838152600a60205260408120829055600182018355919091527f6e1540171b6c0c960b71a7020d9f60077f6af931a8bbf590da0223dacf75c7af0155565b6115e0565b816001600160a01b0316836001600160a01b0316146115e0576115e08382611866565b6001600160a01b0382166115f75761056d81611903565b826001600160a01b0316826001600160a01b03161461056d5761056d82826119b2565b60608161163e5750506040805180820190915260018152600360fc1b602082015290565b8160005b811561166857806116528161200a565b91506116619050600a83611f59565b9150611642565b60008167ffffffffffffffff81111561168357611683612091565b6040519080825280601f01601f1916602001820160405280156116ad576020820181803683370190505b5090505b8415611047576116c2600183611f8c565b91506116cf600a86612025565b6116da906030611f41565b60f81b8183815181106116ef576116ef61207b565b60200101906001600160f81b031916908160001a905350611711600a86611f59565b94506116b1565b6001600160a01b03821661176e5760405162461bcd60e51b815260206004820181905260248201527f4552433732313a206d696e7420746f20746865207a65726f20616464726573736044820152606401610559565b6000818152600360205260409020546001600160a01b0316156117d35760405162461bcd60e51b815260206004820152601c60248201527f4552433732313a20746f6b656e20616c7265616479206d696e746564000000006044820152606401610559565b6117df600083836113a1565b6001600160a01b0382166000908152600460205260408120805460019290611808908490611f41565b909155505060008181526003602052604080822080546001600160a01b0319166001600160a01b03861690811790915590518392907fddf252ad1be2c89b69c2b068fc378daa952ba7f163c4a11628f55a4df523b3ef908290a45050565b6000600161187384610884565b61187d9190611f8c565b6000838152600860205260409020549091508082146118d0576001600160a01b03841660009081526007602090815260408083208584528252808320548484528184208190558352600890915290208190555b5060009182526008602090815260408084208490556001600160a01b039094168352600781528383209183525290812055565b60095460009061191590600190611f8c565b6000838152600a60205260408120546009805493945090928490811061193d5761193d61207b565b90600052602060002001549050806009838154811061195e5761195e61207b565b6000918252602080832090910192909255828152600a9091526040808220849055858252812055600980548061199657611996612065565b6001900381819060005260206000200160009055905550505050565b60006119bd83610884565b6001600160a01b039093166000908152600760209081526040808320868452825280832085905593825260089052919091209190915550565b828054611a0290611fcf565b90600052602060002090601f016020900481019282611a245760008555611a6a565b82601f10611a3d57805160ff1916838001178555611a6a565b82800160010185558215611a6a579182015b82811115611a6a578251825591602001919060010190611a4f565b50611a76929150611a7a565b5090565b5b80821115611a765760008155600101611a7b565b600067ffffffffffffffff80841115611aaa57611aaa612091565b604051601f8501601f19908116603f01168101908282118183101715611ad257611ad2612091565b81604052809350858152868686011115611aeb57600080fd5b858560208301376000602087830101525050509392505050565b80356001600160a01b0381168114611b1c57600080fd5b919050565b600082601f830112611b3257600080fd5b61152883833560208501611a8f565b600060208284031215611b5357600080fd5b61152882611b05565b60008060408385031215611b6f57600080fd5b611b7883611b05565b9150611b8660208401611b05565b90509250929050565b600080600060608486031215611ba457600080fd5b611bad84611b05565b9250611bbb60208501611b05565b9150604084013590509250925092565b60008060008060808587031215611be157600080fd5b611bea85611b05565b9350611bf860208601611b05565b925060408501359150606085013567ffffffffffffffff811115611c1b57600080fd5b8501601f81018713611c2c57600080fd5b611c3b87823560208401611a8f565b91505092959194509250565b60008060408385031215611c5a57600080fd5b611c6383611b05565b915060208301358015158114611c7857600080fd5b809150509250929050565b60008060408385031215611c9657600080fd5b611c9f83611b05565b9150602083013567ffffffffffffffff811115611cbb57600080fd5b611cc785828601611b21565b9150509250929050565b60008060408385031215611ce457600080fd5b611ced83611b05565b946020939093013593505050565b600060208284031215611d0d57600080fd5b8135611528816120a7565b600060208284031215611d2a57600080fd5b8151611528816120a7565b600060208284031215611d4757600080fd5b813567ffffffffffffffff811115611d5e57600080fd5b61104784828501611b21565b600060208284031215611d7c57600080fd5b5035919050565b60008060408385031215611d9657600080fd5b50508035926020909101359150565b60008151808452611dbd816020860160208601611fa3565b601f01601f19169290920160200192915050565b60008251611de3818460208701611fa3565b9190910192915050565b60008351611dff818460208801611fa3565b835190830190611e13818360208801611fa3565b01949350505050565b6001600160a01b0385811682528416602082015260408101839052608060608201819052600090611e4f90830184611da5565b9695505050505050565b6020815260006115286020830184611da5565b60208082526032908201527f4552433732313a207472616e7366657220746f206e6f6e20455243373231526560408201527131b2b4bb32b91034b6b83632b6b2b73a32b960711b606082015260800190565b6020808252818101527f4f776e61626c653a2063616c6c6572206973206e6f7420746865206f776e6572604082015260600190565b6020808252602e908201527f4552433732313a2063616c6c6572206973206e6f7420746f6b656e206f776e6560408201526d1c881b9bdc88185c1c1c9bdd995960921b606082015260800190565b60008219821115611f5457611f54612039565b500190565b600082611f6857611f6861204f565b500490565b6000816000190483118215151615611f8757611f87612039565b500290565b600082821015611f9e57611f9e612039565b500390565b60005b83811015611fbe578181015183820152602001611fa6565b83811115610ad45750506000910152565b600181811c90821680611fe357607f821691505b6020821081141561200457634e487b7160e01b600052602260045260246000fd5b50919050565b600060001982141561201e5761201e612039565b5060010190565b6000826120345761203461204f565b500690565b634e487b7160e01b600052601160045260246000fd5b634e487b7160e01b600052601260045260246000fd5b634e487b7160e01b600052603160045260246000fd5b634e487b7160e01b600052603260045260246000fd5b634e487b7160e01b600052604160045260246000fd5b6001600160e01b031981168114610cf657600080fdfea2646970667358221220cd80d35c3658f90612be4d8af432d2aaff80aa34c6033c7c4add1966787eefb764736f6c63430008070033",
  "immutableReferences": {},
  "source": "// SPDX-License-Identifier: Apache-2.0\r\npragma solidity ^0.8.0;\r\n\r\n//import '@openZeppelin/contracts/access/Ownable.sol';\r\nimport '@openzeppelin/contracts/token/ERC721/extensions/ERC721URIStorage.sol';\r\nimport '@openzeppelin/contracts/token/ERC721/extensions/ERC721Enumerable.sol';\r\n\r\nimport \"./libraries/Ownable.sol\";\r\nimport \"./interface/IERC2981.sol\";\r\n\r\n\r\ncontract NFTCollection is Ownable, ERC721Enumerable, ERC721URIStorage {\r\n\r\n    // Keep a mapping of token ids and corresponding IPFS hashes\r\n    mapping(string => uint8) hashes;\r\n    // Maximum amounts of mintable tokens\r\n    uint256 public MAX_SUPPLY;\r\n    // Address of the royalties recipient\r\n    address public royaltiesReceiver;\r\n    // Percentage of each sale to pay as royalties 2.5 = 250 in bips\r\n    uint256 public  royaltiesPercentageInBips ;\r\n    //Overrides ERC-721's _baseURI function\r\n    string private baseURI;\r\n    //metaInfo\r\n    string public metaInfo;\r\n    // Events\r\n    event Mint(uint256 tokenId, address recipient);\r\n\r\n    constructor(string memory name_, string memory symbol_, string memory baseURI_, uint max_supply_)\r\n    ERC721(name_, symbol_) {\r\n        baseURI = baseURI_;\r\n        MAX_SUPPLY = max_supply_;\r\n        require(uint(uint96(MAX_SUPPLY)) == MAX_SUPPLY, \"Too many supplies: overflow\");\r\n    }\r\n\r\n    /** Overrides ERC-721's _baseURI function */\r\n    function _baseURI() internal view override returns (string memory) {\r\n        return baseURI;\r\n    }\r\n\r\n    function setMetaInfo(string memory metaInfo_) external onlyOwner {\r\n        metaInfo = metaInfo_;\r\n    }\r\n\r\n    function setRoyaltiesPercentageInBips(uint newRoyaltiesPercentageInBips)\r\n    external onlyOwner {\r\n        royaltiesPercentageInBips = newRoyaltiesPercentageInBips;\r\n    }\r\n\r\n    function setRoyaltiesReceiver(address newRoyaltiesReceiver)\r\n    external onlyOwner {\r\n        royaltiesReceiver = newRoyaltiesReceiver;\r\n    }\r\n\r\n\r\n    /// @notice Called with the sale price to determine how much royalty\r\n    //          is owed and to whom.\r\n    /// @param _tokenId - the NFT asset queried for royalty information\r\n    /// @param _salePrice - sale price of the NFT asset specified by _tokenId\r\n    /// @return receiver - address of who should be sent the royalty payment\r\n    /// @return royaltyAmount - the royalty payment amount for _value sale price\r\n    function royaltyInfo(uint256 _tokenId, uint256 _salePrice) external view\r\n    returns (address receiver, uint256 royaltyAmount) {\r\n        _tokenId;\r\n        uint256 royalties = (_salePrice * royaltiesPercentageInBips) / 10000 ;\r\n        return (royaltiesReceiver, royalties);\r\n    }\r\n\r\n\r\n    /// @notice Mints tokens\r\n    /// @param recipient - the address to which the token will be transfered\r\n    /// @param hash - the IPFS hash of the token's resource\r\n    /// @return tokenId - the id of the token\r\n    function mint(address recipient, string memory hash)\r\n    external onlyOwner\r\n    returns (uint256 tokenId)\r\n    {\r\n        require(totalSupply() <= MAX_SUPPLY, \"All tokens minted\");\r\n        require(bytes(hash).length > 0); // dev: Hash can not be empty!\r\n        require(hashes[hash] != 1); // dev: Can't use the same hash twice\r\n        hashes[hash] = 1;\r\n        uint256 newItemId = totalSupply() + 1;\r\n        _safeMint(recipient, newItemId);\r\n        _setTokenURI(newItemId, hash);\r\n        emit Mint(newItemId, recipient);\r\n        return newItemId;\r\n    }\r\n\r\n    //overrides for compiler check\r\n    function _beforeTokenTransfer(address from, address to, uint256 amount)\r\n    internal override(ERC721, ERC721Enumerable) {\r\n        super._beforeTokenTransfer(from, to, amount);\r\n    }\r\n\r\n    //overrides for compiler check\r\n    function _burn(uint256 tokenId)\r\n    internal override(ERC721, ERC721URIStorage) {\r\n        super._burn(tokenId);\r\n    }\r\n\r\n    //overrides for compiler check\r\n    function tokenURI(uint256 tokenId)\r\n    public view override(ERC721, ERC721URIStorage)\r\n    returns (string memory) {\r\n        return super.tokenURI(tokenId);\r\n    }\r\n\r\n    /// @notice Informs callers that this contract supports ERC2981\r\n    function supportsInterface(bytes4 interfaceId)\r\n    public view override(ERC721, ERC721Enumerable)\r\n    returns (bool) {\r\n        return interfaceId == 0x2a55205a || //ERC2981\r\n        super.supportsInterface(interfaceId);\r\n    }\r\n\r\n    //note that logical owner of collection should be master contract\r\n    //yet actual owner is recoreded in master contract\r\n    function transferByMaster(address from, address to, uint tokenId) external onlyOwner {\r\n        _transfer(from, to, tokenId);\r\n    }\r\n}\r\n",
  "sourcePath": "E:\\\\metaLifeProtocol\\contracts\\NFTCollection.sol",
  "compiler": {
    "name": "solc",
    "version": "0.8.7+commit.e28d00a7.Emscripten.clang"
  },
  "schemaVersion": "3.4.7",
  "updatedAt": "2022-07-20T15:04:49.368Z",
  "devdoc": {
    "kind": "dev",
    "methods": {
      "approve(address,uint256)": {
        "details": "See {IERC721-approve}."
      },
      "balanceOf(address)": {
        "details": "See {IERC721-balanceOf}."
      },
      "getApproved(uint256)": {
        "details": "See {IERC721-getApproved}."
      },
      "isApprovedForAll(address,address)": {
        "details": "See {IERC721-isApprovedForAll}."
      },
      "mint(address,string)": {
        "params": {
          "hash": "- the IPFS hash of the token's resource",
          "recipient": "- the address to which the token will be transfered"
        },
        "returns": {
          "tokenId": "- the id of the token"
        }
      },
      "name()": {
        "details": "See {IERC721Metadata-name}."
      },
      "owner()": {
        "details": "Returns the address of the current owner."
      },
      "ownerOf(uint256)": {
        "details": "See {IERC721-ownerOf}."
      },
      "renounceOwnership()": {
        "details": "Leaves the contract without owner. It will not be possible to call `onlyOwner` functions anymore. Can only be called by the current owner. NOTE: Renouncing ownership will leave the contract without an owner, thereby removing any functionality that is only available to the owner."
      },
      "royaltyInfo(uint256,uint256)": {
        "params": {
          "_salePrice": "- sale price of the NFT asset specified by _tokenId",
          "_tokenId": "- the NFT asset queried for royalty information"
        },
        "returns": {
          "receiver": "- address of who should be sent the royalty payment",
          "royaltyAmount": "- the royalty payment amount for _value sale price"
        }
      },
      "safeTransferFrom(address,address,uint256)": {
        "details": "See {IERC721-safeTransferFrom}."
      },
      "safeTransferFrom(address,address,uint256,bytes)": {
        "details": "See {IERC721-safeTransferFrom}."
      },
      "setApprovalForAll(address,bool)": {
        "details": "See {IERC721-setApprovalForAll}."
      },
      "symbol()": {
        "details": "See {IERC721Metadata-symbol}."
      },
      "tokenByIndex(uint256)": {
        "details": "See {IERC721Enumerable-tokenByIndex}."
      },
      "tokenOfOwnerByIndex(address,uint256)": {
        "details": "See {IERC721Enumerable-tokenOfOwnerByIndex}."
      },
      "totalSupply()": {
        "details": "See {IERC721Enumerable-totalSupply}."
      },
      "transferFrom(address,address,uint256)": {
        "details": "See {IERC721-transferFrom}."
      },
      "transferOwnership(address)": {
        "details": "Transfers ownership of the contract to a new account (`newOwner`). Can only be called by the current owner."
      }
    },
    "version": 1
  },
  "userdoc": {
    "kind": "user",
    "methods": {
      "mint(address,string)": {
        "notice": "Mints tokens"
      },
      "supportsInterface(bytes4)": {
        "notice": "Informs callers that this contract supports ERC2981"
      }
    },
    "version": 1
  }
}