{
  "contractName": "NFTInfoStorage",
  "abi": [
    {
      "inputs": [
        {
          "internalType": "uint256",
          "name": "record",
          "type": "uint256"
        },
        {
          "internalType": "address",
          "name": "seller",
          "type": "address"
        }
      ],
      "name": "recordNewItem",
      "outputs": [],
      "stateMutability": "nonpayable",
      "type": "function"
    },
    {
      "inputs": [
        {
          "internalType": "uint256",
          "name": "record",
          "type": "uint256"
        },
        {
          "internalType": "address",
          "name": "seller",
          "type": "address"
        },
        {
          "internalType": "address",
          "name": "buyer",
          "type": "address"
        },
        {
          "internalType": "address",
          "name": "token",
          "type": "address"
        },
        {
          "internalType": "uint256",
          "name": "price",
          "type": "uint256"
        }
      ],
      "name": "recordItemSold",
      "outputs": [],
      "stateMutability": "nonpayable",
      "type": "function"
    },
    {
      "inputs": [
        {
          "internalType": "uint256",
          "name": "record",
          "type": "uint256"
        },
        {
          "internalType": "address",
          "name": "seller",
          "type": "address"
        }
      ],
      "name": "recordItemCancel",
      "outputs": [],
      "stateMutability": "nonpayable",
      "type": "function"
    },
    {
      "inputs": [
        {
          "internalType": "uint256",
          "name": "record",
          "type": "uint256"
        },
        {
          "internalType": "address",
          "name": "bidder",
          "type": "address"
        }
      ],
      "name": "recordNewBid",
      "outputs": [],
      "stateMutability": "nonpayable",
      "type": "function"
    },
    {
      "inputs": [
        {
          "internalType": "uint256",
          "name": "record",
          "type": "uint256"
        },
        {
          "internalType": "address",
          "name": "bidder",
          "type": "address"
        }
      ],
      "name": "recordDelBid",
      "outputs": [],
      "stateMutability": "nonpayable",
      "type": "function"
    },
    {
      "inputs": [
        {
          "internalType": "address",
          "name": "collection",
          "type": "address"
        },
        {
          "internalType": "uint96",
          "name": "token_id",
          "type": "uint96"
        }
      ],
      "name": "getSaleInfo",
      "outputs": [
        {
          "components": [
            {
              "internalType": "address",
              "name": "sales",
              "type": "address"
            },
            {
              "internalType": "address",
              "name": "collection",
              "type": "address"
            },
            {
              "internalType": "uint96",
              "name": "token_id",
              "type": "uint96"
            },
            {
              "internalType": "address",
              "name": "token",
              "type": "address"
            },
            {
              "internalType": "uint128",
              "name": "price",
              "type": "uint128"
            },
            {
              "internalType": "uint64",
              "name": "duetime",
              "type": "uint64"
            },
            {
              "internalType": "address",
              "name": "seller",
              "type": "address"
            }
          ],
          "internalType": "struct NFTInfoStorage.salesInfo",
          "name": "",
          "type": "tuple"
        }
      ],
      "stateMutability": "view",
      "type": "function"
    },
    {
      "inputs": [
        {
          "internalType": "uint256",
          "name": "limit",
          "type": "uint256"
        },
        {
          "internalType": "uint256",
          "name": "offset",
          "type": "uint256"
        }
      ],
      "name": "getSales",
      "outputs": [
        {
          "components": [
            {
              "internalType": "address",
              "name": "sales",
              "type": "address"
            },
            {
              "internalType": "address",
              "name": "collection",
              "type": "address"
            },
            {
              "internalType": "uint96",
              "name": "token_id",
              "type": "uint96"
            },
            {
              "internalType": "address",
              "name": "token",
              "type": "address"
            },
            {
              "internalType": "uint128",
              "name": "price",
              "type": "uint128"
            },
            {
              "internalType": "uint64",
              "name": "duetime",
              "type": "uint64"
            },
            {
              "internalType": "address",
              "name": "seller",
              "type": "address"
            }
          ],
          "internalType": "struct NFTInfoStorage.salesInfo[]",
          "name": "records",
          "type": "tuple[]"
        }
      ],
      "stateMutability": "view",
      "type": "function"
    },
    {
      "inputs": [],
      "name": "getSalesCount",
      "outputs": [
        {
          "internalType": "uint256",
          "name": "",
          "type": "uint256"
        }
      ],
      "stateMutability": "view",
      "type": "function"
    },
    {
      "inputs": [
        {
          "internalType": "address",
          "name": "collcetion",
          "type": "address"
        },
        {
          "internalType": "uint256",
          "name": "limit",
          "type": "uint256"
        },
        {
          "internalType": "uint256",
          "name": "offset",
          "type": "uint256"
        }
      ],
      "name": "getSalesByCollection",
      "outputs": [
        {
          "components": [
            {
              "internalType": "address",
              "name": "sales",
              "type": "address"
            },
            {
              "internalType": "address",
              "name": "collection",
              "type": "address"
            },
            {
              "internalType": "uint96",
              "name": "token_id",
              "type": "uint96"
            },
            {
              "internalType": "address",
              "name": "token",
              "type": "address"
            },
            {
              "internalType": "uint128",
              "name": "price",
              "type": "uint128"
            },
            {
              "internalType": "uint64",
              "name": "duetime",
              "type": "uint64"
            },
            {
              "internalType": "address",
              "name": "seller",
              "type": "address"
            }
          ],
          "internalType": "struct NFTInfoStorage.salesInfo[]",
          "name": "records",
          "type": "tuple[]"
        }
      ],
      "stateMutability": "view",
      "type": "function"
    },
    {
      "inputs": [
        {
          "internalType": "address",
          "name": "user",
          "type": "address"
        },
        {
          "internalType": "uint256",
          "name": "limit",
          "type": "uint256"
        },
        {
          "internalType": "uint256",
          "name": "offset",
          "type": "uint256"
        }
      ],
      "name": "getSalesByUser",
      "outputs": [
        {
          "components": [
            {
              "internalType": "address",
              "name": "sales",
              "type": "address"
            },
            {
              "internalType": "address",
              "name": "collection",
              "type": "address"
            },
            {
              "internalType": "uint96",
              "name": "token_id",
              "type": "uint96"
            },
            {
              "internalType": "address",
              "name": "token",
              "type": "address"
            },
            {
              "internalType": "uint128",
              "name": "price",
              "type": "uint128"
            },
            {
              "internalType": "uint64",
              "name": "duetime",
              "type": "uint64"
            },
            {
              "internalType": "address",
              "name": "seller",
              "type": "address"
            }
          ],
          "internalType": "struct NFTInfoStorage.salesInfo[]",
          "name": "records",
          "type": "tuple[]"
        }
      ],
      "stateMutability": "view",
      "type": "function"
    },
    {
      "inputs": [
        {
          "internalType": "address",
          "name": "user",
          "type": "address"
        }
      ],
      "name": "getSalesCountByUser",
      "outputs": [
        {
          "internalType": "uint256",
          "name": "",
          "type": "uint256"
        }
      ],
      "stateMutability": "view",
      "type": "function"
    },
    {
      "inputs": [
        {
          "internalType": "address",
          "name": "user",
          "type": "address"
        },
        {
          "internalType": "uint256",
          "name": "limit",
          "type": "uint256"
        },
        {
          "internalType": "uint256",
          "name": "offset",
          "type": "uint256"
        }
      ],
      "name": "getUserBids",
      "outputs": [
        {
          "components": [
            {
              "internalType": "address",
              "name": "sales",
              "type": "address"
            },
            {
              "internalType": "address",
              "name": "collection",
              "type": "address"
            },
            {
              "internalType": "uint96",
              "name": "token_id",
              "type": "uint96"
            },
            {
              "internalType": "address",
              "name": "token",
              "type": "address"
            },
            {
              "internalType": "uint128",
              "name": "price",
              "type": "uint128"
            },
            {
              "internalType": "uint64",
              "name": "duetime",
              "type": "uint64"
            },
            {
              "internalType": "address",
              "name": "seller",
              "type": "address"
            }
          ],
          "internalType": "struct NFTInfoStorage.salesInfo[]",
          "name": "records",
          "type": "tuple[]"
        }
      ],
      "stateMutability": "view",
      "type": "function"
    },
    {
      "inputs": [
        {
          "internalType": "address",
          "name": "user",
          "type": "address"
        }
      ],
      "name": "getUserBidsCount",
      "outputs": [
        {
          "internalType": "uint256",
          "name": "",
          "type": "uint256"
        }
      ],
      "stateMutability": "view",
      "type": "function"
    },
    {
      "inputs": [
        {
          "internalType": "address",
          "name": "user",
          "type": "address"
        },
        {
          "internalType": "uint256",
          "name": "limit",
          "type": "uint256"
        },
        {
          "internalType": "uint256",
          "name": "offset",
          "type": "uint256"
        }
      ],
      "name": "getUserBuys",
      "outputs": [
        {
          "components": [
            {
              "internalType": "address",
              "name": "sales",
              "type": "address"
            },
            {
              "internalType": "address",
              "name": "collection",
              "type": "address"
            },
            {
              "internalType": "uint96",
              "name": "token_id",
              "type": "uint96"
            },
            {
              "internalType": "address",
              "name": "token",
              "type": "address"
            },
            {
              "internalType": "uint128",
              "name": "price",
              "type": "uint128"
            },
            {
              "internalType": "uint64",
              "name": "duetime",
              "type": "uint64"
            },
            {
              "internalType": "address",
              "name": "seller",
              "type": "address"
            }
          ],
          "internalType": "struct NFTInfoStorage.salesInfo[]",
          "name": "records",
          "type": "tuple[]"
        }
      ],
      "stateMutability": "view",
      "type": "function"
    },
    {
      "inputs": [
        {
          "internalType": "address",
          "name": "user",
          "type": "address"
        }
      ],
      "name": "getUserBuysCount",
      "outputs": [
        {
          "internalType": "uint256",
          "name": "",
          "type": "uint256"
        }
      ],
      "stateMutability": "view",
      "type": "function"
    }
  ],
  "bytecode": "0x608060405234801561001057600080fd5b50611327806100206000396000f3fe608060405234801561001057600080fd5b50600436106100f55760003560e01c806346eb67ef11610097578063cdfde4e411610066578063cdfde4e414610207578063dd8027db1461021a578063e782fae714610222578063ffff0d111461023557600080fd5b806346eb67ef146101bb57806352374f6f146101ce57806383651255146101e1578063b78fd5b3146101f457600080fd5b80632b171c71116100d35780632b171c711461014b5780632c32b2d6146101825780632feeab361461019557806341084242146101a857600080fd5b806308d3fed3146100fa57806315412a961461010f5780631a92777914610138575b600080fd5b61010d6101083660046110e2565b610255565b005b61012261011d366004610fef565b6102c0565b60405161012f91906111f1565b60405180910390f35b610122610146366004611162565b610412565b610174610159366004610fd2565b6001600160a01b031660009081526004602052604090205490565b60405190815260200161012f565b610122610190366004610fef565b610535565b61010d6101a33660046110e2565b6105dd565b61010d6101b63660046110e2565b61061b565b61010d6101c9366004611107565b61067f565b6101746101dc366004610fd2565b610800565b6101226101ef366004610fef565b610820565b610122610202366004610fef565b6109c9565b61010d6102153660046110e2565b610b11565b600054610174565b610174610230366004610fd2565b610b4f565b610248610243366004611024565b610b6d565b60405161012f919061123f565b3360009081526006602052604090205460ff1661027157600080fd5b61027c600083610b94565b50600082815260026020908152604080832080546001600160a01b031916331790556001600160a01b0384168352600590915290206102bb9083610b94565b505050565b60608267ffffffffffffffff8111156102db576102db6112c3565b60405190808252806020026020018201604052801561031457816020015b610301610f96565b8152602001906001900390816102f95790505b50905060006001815b84811080156103295750815b801561033d5750600083118061033d575080155b1561037a576001600160a01b03871660009081526005602052604090206103649084610ba9565b93509150806103728161127c565b91505061031d565b5060005b858110801561038a5750815b801561039e5750600083118061039e575080155b15610408576001600160a01b03871660009081526005602052604090206103c59084610ba9565b9350915081156103f6576103d883610bc3565b8482815181106103ea576103ea6112ad565b60200260200101819052505b806104008161127c565b91505061037e565b5050509392505050565b60608267ffffffffffffffff81111561042d5761042d6112c3565b60405190808252806020026020018201604052801561046657816020015b610453610f96565b81526020019060019003908161044b5790505b50905060006001815b848110801561047b5750815b801561048f5750600083118061048f575080155b156104b55761049f600084610ba9565b93509150806104ad8161127c565b91505061046f565b5060005b85811080156104c55750815b80156104d9575060008311806104d9575080155b1561052c576104e9600084610ba9565b93509150811561051a576104fc83610bc3565b84828151811061050e5761050e6112ad565b60200260200101819052505b806105248161127c565b9150506104b9565b50505092915050565b60608267ffffffffffffffff811115610550576105506112c3565b60405190808252806020026020018201604052801561058957816020015b610576610f96565b81526020019060019003908161056e5790505b50905060005b838110156105d5576105a585610243868661124d565b8282815181106105b7576105b76112ad565b602002602001018190525080806105cd9061127c565b91505061058f565b509392505050565b3360009081526006602052604090205460ff166105f957600080fd5b6001600160a01b03811660009081526003602052604090206102bb9083610b94565b3360009081526006602052604090205460ff1661063757600080fd5b600082815260026020908152604080832080546001600160a01b03191690556001600160a01b0384168352600590915290206106739083610d30565b506102bb600083610d30565b3360009081526006602052604090205460ff1661069b57600080fd5b600085815260026020908152604080832080546001600160a01b03191690556001600160a01b038716835260059091529020606086901c9086906106df9082610d30565b506106eb600088610d30565b506001600160a01b039485166000908152600460208181526040808420815160e081018352338152968a168784019081526001600160601b03968716928801928352988a16606088019081526001600160801b039889166080890190815267ffffffffffffffff42811660a08b019081529d8d1660c08b01908152845460018181018755958a5296909820995160059096029099018054958d166001600160a01b03199687161781559a519351909716600160a01b02928b16929092179089015551600288018054918a1691831691909117905592516003870180549951909516600160801b026001600160c01b03199099169516949094179690961790915593519101805491909216921691909117905550565b6001600160a01b0381166000908152600360205260408120545b92915050565b60608267ffffffffffffffff81111561083b5761083b6112c3565b60405190808252806020026020018201604052801561087457816020015b610861610f96565b8152602001906001900390816108595790505b506001600160a01b0385166000908152600460205260409020549091508083111561089d578092505b806108a8858561124d565b11156108bb576108b88382611265565b93505b60005b848110156109c0576001600160a01b03861660009081526004602052604090206108e88284611265565b815481106108f8576108f86112ad565b60009182526020918290206040805160e08101825260059390930290910180546001600160a01b039081168452600182015480821695850195909552600160a01b9094046001600160601b03169183019190915260028101548316606083015260038101546001600160801b0381166080840152600160801b900467ffffffffffffffff1660a08301526004015490911660c082015283518490839081106109a2576109a26112ad565b602002602001018190525080806109b89061127c565b9150506108be565b50509392505050565b60608267ffffffffffffffff8111156109e4576109e46112c3565b604051908082528060200260200182016040528015610a1d57816020015b610a0a610f96565b815260200190600190039081610a025790505b50905060006001815b8481108015610a325750815b8015610a4657506000831180610a46575080155b15610a83576001600160a01b0387166000908152600360205260409020610a6d9084610ba9565b9350915080610a7b8161127c565b915050610a26565b5060005b8581108015610a935750815b8015610aa757506000831180610aa7575080155b15610408576001600160a01b0387166000908152600360205260409020610ace9084610ba9565b935091508115610aff57610ae183610bc3565b848281518110610af357610af36112ad565b60200260200101819052505b80610b098161127c565b915050610a87565b3360009081526006602052604090205460ff16610b2d57600080fd5b6001600160a01b03811660009081526003602052604090206102bb9083610d30565b6001600160a01b03811660009081526005602052604081205461081a565b610b75610f96565b6000610b818484610dca565b9050610b8c81610bc3565b949350505050565b6000610ba283836001610dfe565b9392505050565b600080610bb884846001610e0d565b915091509250929050565b610bcb610f96565b6000828152600260205260409020546001600160a01b031680610c285750506040805160e081018252600080825260208201819052918101829052606081018290526080810182905260a0810182905260c0810191909152919050565b6000806000806000856001600160a01b03166364b3b844896040518263ffffffff1660e01b8152600401610c5e91815260200190565b60c06040518083038186803b158015610c7657600080fd5b505afa158015610c8a573d6000803e3d6000fd5b505050506040513d601f19601f82011682018060405250810190610cae9190611069565b509450945094509450945084610cc357600095505b6040805160e0810182526001600160a01b03978816815260608a811c60208301526001600160601b03909a1691810191909152938616978401979097526001600160801b0391909116608083015267ffffffffffffffff1660a08201529390911660c08401525090919050565b6000811580610d465750610d448383610e54565b155b15610d535750600061081a565b600082815260018481016020908152604080842084805290915280832054828452922054610d85928692909190610ed8565b60008281526001848101602090815260408084208480529091528083208390558183528220829055845490918591610dbe908490611265565b90915550919392505050565b6000610de96bffffffffffffffffffffffff19606085901b168261124d565b9050610ba26001600160601b0383168261124d565b6000610b8c8460008585610f0d565b600080610e1a8585610e54565b610e2957506000905080610e4c565b505060008281526001848101602090815260408084208515158552909152909120545b935093915050565b60008181526001830160209081526040808320838052909152812054158015610e9757506000828152600180850160209081526040808420928452919052902054155b15610ed0576000808052600180850160209081526040808420928452919052902054821415610ec85750600161081a565b50600061081a565b50600161081a565b600082815260019094016020818152604080872093158088529382528087208690559486529081528385209115855252912055565b6000610f198584610e54565b158015610f2b5750610f2b8585610e54565b15610f8b57600084815260018601602090815260408083208515158452909152902054610f5a86868686610ed8565b610f6686858386610ed8565b6001866000016000828254610f7b919061124d565b9091555060019250610b8c915050565b506000949350505050565b6040805160e081018252600080825260208201819052918101829052606081018290526080810182905260a0810182905260c081019190915290565b600060208284031215610fe457600080fd5b8135610ba2816112d9565b60008060006060848603121561100457600080fd5b833561100f816112d9565b95602085013595506040909401359392505050565b6000806040838503121561103757600080fd5b8235611042816112d9565b915060208301356001600160601b038116811461105e57600080fd5b809150509250929050565b60008060008060008060c0878903121561108257600080fd5b8651801515811461109257600080fd5b60208801519096506110a3816112d9565b80955050604087015193506060870151925060808701516110c3816112d9565b60a08801519092506110d4816112d9565b809150509295509295509295565b600080604083850312156110f557600080fd5b82359150602083013561105e816112d9565b600080600080600060a0868803121561111f57600080fd5b853594506020860135611131816112d9565b93506040860135611141816112d9565b92506060860135611151816112d9565b949793965091946080013592915050565b6000806040838503121561117557600080fd5b50508035926020909101359150565b80516001600160a01b0390811683526020808301518216908401526040808301516001600160601b0316908401526060808301518216908401526080808301516001600160801b03169084015260a08281015167ffffffffffffffff169084015260c09182015116910152565b6020808252825182820181905260009190848201906040850190845b8181101561123357611220838551611184565b9284019260e0929092019160010161120d565b50909695505050505050565b60e0810161081a8284611184565b6000821982111561126057611260611297565b500190565b60008282101561127757611277611297565b500390565b600060001982141561129057611290611297565b5060010190565b634e487b7160e01b600052601160045260246000fd5b634e487b7160e01b600052603260045260246000fd5b634e487b7160e01b600052604160045260246000fd5b6001600160a01b03811681146112ee57600080fd5b5056fea2646970667358221220344cbe29efa627cdf5b818d9b9d1581082bc792c99bc03c9649b866f886b3f0164736f6c63430008070033",
  "immutableReferences": {},
  "source": "// SPDX-License-Identifier: Apache-2.0\r\npragma solidity ^0.8.0;\r\nimport './interface/ISales.sol';\r\nimport './libraries/StructuredLinkedList.sol';\r\nimport './RecordPacker.sol';\r\n\r\ncontract NFTInfoStorage is RecordPacker {\r\n    using StructuredLinkedList for StructuredLinkedList.List;\r\n    //------------\r\n    //storage: market_sale\r\n    //------------\r\n    //(collection, token_id)\r\n    StructuredLinkedList.List nftsInSale;\r\n    //(collection, token_id) -> sales address\r\n    mapping (uint256 => address) saleBook;\r\n    //user address -> (collection, token_id)\r\n    mapping (address => StructuredLinkedList.List) userBids;\r\n    //user address -> (collection, token_id)\r\n    mapping (address => salesInfo[]) userBuys;\r\n    //user address -> (collection, token_id)\r\n    mapping (address => StructuredLinkedList.List) userSales;\r\n\r\n    struct salesInfo {\r\n       address sales;\r\n       address collection;\r\n       uint96 token_id;\r\n       address token;\r\n       uint128 price;\r\n       uint64 duetime;\r\n       address seller;\r\n    }\r\n\r\n    mapping (address => bool) isSale;\r\n\r\n    function setSale(address _sale, bool _status) internal{\r\n        isSale[_sale] = _status;\r\n    }\r\n\r\n    //------------\r\n    //update records\r\n    //------------\r\n\r\n    function recordNewItem(uint256 record, address seller) external {\r\n        require(isSale[msg.sender]);\r\n        nftsInSale.pushFront(record);\r\n        saleBook[record] = msg.sender;\r\n        userSales[seller].pushFront(record);\r\n    }\r\n\r\n    function recordItemSold(uint256 record, address seller, address buyer, address token, uint256 price) external {\r\n        require(isSale[msg.sender]);\r\n        (address collcetion, uint96 token_id) = resovleRecord(record);\r\n        delete saleBook[record];\r\n        userSales[seller].remove(record);\r\n        nftsInSale.remove(record);\r\n        userBuys[buyer].push(salesInfo(msg.sender, collcetion, token_id,\r\n            token, uint128(price), uint64(block.timestamp), seller));\r\n    }\r\n\r\n    function recordItemCancel(uint256 record, address seller) external {\r\n        require(isSale[msg.sender]);\r\n        delete saleBook[record];\r\n        userSales[seller].remove(record);\r\n        nftsInSale.remove(record);\r\n    }\r\n\r\n    function recordNewBid(uint256 record, address bidder) external {\r\n        require(isSale[msg.sender]);\r\n        userBids[bidder].pushFront(record);\r\n    }\r\n\r\n    function recordDelBid(uint256 record, address bidder) external {\r\n        require(isSale[msg.sender]);\r\n        userBids[bidder].remove(record);\r\n    }\r\n\r\n    //------------\r\n    //get records\r\n    //------------\r\n\r\n    function getSaleInfo(address collection, uint96 token_id) public view returns (salesInfo memory){\r\n        uint256 record = packRecord(collection, token_id);\r\n        return getSaleInfoByRecord(record);\r\n    }\r\n\r\n    function getSaleInfoByRecord(uint256 record) internal view returns (salesInfo memory){\r\n        address sales = saleBook[record];\r\n        if (sales == address(0)){\r\n            return salesInfo(address(0), address(0), 0, address(0), 0, 0, address(0));\r\n        }\r\n        (bool _isOpen, address _token, uint _price, uint _due, address _seller,) =\r\n            ISales(sales).getSaleInfo(record);\r\n        if (!_isOpen) {\r\n            sales = address(0);\r\n        }\r\n        (address _contract, uint _tokenId) = resovleRecord(record);\r\n        return salesInfo(sales, _contract, uint96(_tokenId), _token, uint128(_price), uint64(_due), _seller);\r\n    }\r\n\r\n    function getSales(uint256 limit, uint256 offset) external view returns(salesInfo[] memory records){\r\n        records = new salesInfo[](limit);\r\n        uint256 cursor;\r\n        bool toContinue = true;\r\n        for(uint i; (i < offset) && toContinue && (cursor > 0 || i == 0); i++){\r\n            (toContinue, cursor) = nftsInSale.getNextNode(cursor);\r\n        }\r\n        for(uint i; (i < limit) && toContinue && (cursor > 0 || i == 0); i++){\r\n            (toContinue, cursor) = nftsInSale.getNextNode(cursor);\r\n            if(toContinue) records[i] = getSaleInfoByRecord(cursor);\r\n        }\r\n    }\r\n\r\n    function getSalesCount() external view returns(uint){\r\n        return nftsInSale.sizeOf();\r\n    }\r\n\r\n    function getSalesByCollection(address collcetion, uint256 limit, uint256 offset) external view returns(salesInfo[] memory records){\r\n        records = new salesInfo[](limit);\r\n        for(uint i; i < limit; i++){\r\n            records[i] = getSaleInfo(collcetion, uint96(offset + limit));\r\n        }\r\n    }\r\n\r\n    function getSalesByUser(address user, uint256 limit, uint256 offset) external view returns(salesInfo[] memory records){\r\n        records = new salesInfo[](limit);\r\n        uint256 cursor;\r\n        bool toContinue = true;\r\n        for(uint i; (i < offset) && toContinue && (cursor > 0 || i == 0); i++){\r\n            (toContinue, cursor) = userSales[user].getNextNode(cursor);\r\n        }\r\n        for(uint i; (i < limit) && toContinue && (cursor > 0 || i == 0); i++){\r\n            (toContinue, cursor) = userSales[user].getNextNode(cursor);\r\n            if(toContinue) records[i] = getSaleInfoByRecord(cursor);\r\n        }\r\n    }\r\n\r\n    function getSalesCountByUser(address user) external view returns(uint){\r\n        return userSales[user].sizeOf();\r\n    }\r\n\r\n    function getUserBids(address user, uint256 limit, uint256 offset) external view returns(salesInfo[] memory records){\r\n        records = new salesInfo[](limit);\r\n        uint256 cursor;\r\n        bool toContinue = true;\r\n        for(uint i; (i < offset) && toContinue && (cursor > 0 || i == 0); i++){\r\n            (toContinue, cursor) = userBids[user].getNextNode(cursor);\r\n        }\r\n        for(uint i; (i < limit) && toContinue && (cursor > 0 || i == 0); i++){\r\n            (toContinue, cursor) = userBids[user].getNextNode(cursor);\r\n            if(toContinue) records[i] = getSaleInfoByRecord(cursor);\r\n        }\r\n    }\r\n\r\n    function getUserBidsCount(address user) external view returns(uint){\r\n        return userBids[user].sizeOf();\r\n    }\r\n\r\n    function getUserBuys(address user, uint256 limit, uint256 offset) external view returns(salesInfo[] memory records){\r\n        records = new salesInfo[](limit);\r\n        uint length = userBuys[user].length;\r\n        if (offset > length){\r\n            offset = length;\r\n        }\r\n        if (offset + limit > length){\r\n            limit = length - offset;\r\n        }\r\n        for(uint i; i<limit; i++){\r\n            records[i] = userBuys[user][length - i];\r\n        }\r\n    }\r\n\r\n    function getUserBuysCount(address user) external view returns(uint){\r\n        return userBuys[user].length;\r\n    }\r\n}\r\n",
  "sourcePath": "E:\\\\metaLifeProtocol\\contracts\\NFTInfoStorage.sol",
  "compiler": {
    "name": "solc",
    "version": "0.8.7+commit.e28d00a7.Emscripten.clang"
  },
  "schemaVersion": "3.4.7",
  "updatedAt": "2022-07-20T15:04:49.375Z",
  "devdoc": {
    "kind": "dev",
    "methods": {},
    "version": 1
  },
  "userdoc": {
    "kind": "user",
    "methods": {},
    "version": 1
  }
}