{
  "contractName": "NFTInfoStorage",
  "abi": [
    {
      "inputs": [
        {
          "internalType": "uint256",
          "name": "record",
          "type": "uint256"
        },
        {
          "internalType": "address",
          "name": "seller",
          "type": "address"
        }
      ],
      "name": "recordNewItem",
      "outputs": [],
      "stateMutability": "nonpayable",
      "type": "function"
    },
    {
      "inputs": [
        {
          "internalType": "uint256",
          "name": "record",
          "type": "uint256"
        },
        {
          "internalType": "address",
          "name": "seller",
          "type": "address"
        },
        {
          "internalType": "address",
          "name": "buyer",
          "type": "address"
        },
        {
          "internalType": "address",
          "name": "token",
          "type": "address"
        },
        {
          "internalType": "uint256",
          "name": "price",
          "type": "uint256"
        }
      ],
      "name": "recordItemSold",
      "outputs": [],
      "stateMutability": "nonpayable",
      "type": "function"
    },
    {
      "inputs": [
        {
          "internalType": "uint256",
          "name": "record",
          "type": "uint256"
        },
        {
          "internalType": "address",
          "name": "seller",
          "type": "address"
        }
      ],
      "name": "recordItemCancel",
      "outputs": [],
      "stateMutability": "nonpayable",
      "type": "function"
    },
    {
      "inputs": [
        {
          "internalType": "uint256",
          "name": "record",
          "type": "uint256"
        },
        {
          "internalType": "address",
          "name": "bidder",
          "type": "address"
        }
      ],
      "name": "recordNewBid",
      "outputs": [],
      "stateMutability": "nonpayable",
      "type": "function"
    },
    {
      "inputs": [
        {
          "internalType": "uint256",
          "name": "record",
          "type": "uint256"
        },
        {
          "internalType": "address",
          "name": "bidder",
          "type": "address"
        }
      ],
      "name": "recordDelBid",
      "outputs": [],
      "stateMutability": "nonpayable",
      "type": "function"
    },
    {
      "inputs": [
        {
          "internalType": "address",
          "name": "collection",
          "type": "address"
        },
        {
          "internalType": "uint96",
          "name": "token_id",
          "type": "uint96"
        }
      ],
      "name": "getSaleInfo",
      "outputs": [
        {
          "components": [
            {
              "internalType": "address",
              "name": "sales",
              "type": "address"
            },
            {
              "internalType": "address",
              "name": "collection",
              "type": "address"
            },
            {
              "internalType": "uint96",
              "name": "token_id",
              "type": "uint96"
            },
            {
              "internalType": "address",
              "name": "token",
              "type": "address"
            },
            {
              "internalType": "uint128",
              "name": "price",
              "type": "uint128"
            },
            {
              "internalType": "uint64",
              "name": "duetime",
              "type": "uint64"
            },
            {
              "internalType": "address",
              "name": "seller",
              "type": "address"
            }
          ],
          "internalType": "struct NFTInfoStorage.salesInfo",
          "name": "",
          "type": "tuple"
        }
      ],
      "stateMutability": "view",
      "type": "function"
    },
    {
      "inputs": [
        {
          "internalType": "uint256",
          "name": "limit",
          "type": "uint256"
        },
        {
          "internalType": "uint256",
          "name": "offset",
          "type": "uint256"
        }
      ],
      "name": "getSales",
      "outputs": [
        {
          "components": [
            {
              "internalType": "address",
              "name": "sales",
              "type": "address"
            },
            {
              "internalType": "address",
              "name": "collection",
              "type": "address"
            },
            {
              "internalType": "uint96",
              "name": "token_id",
              "type": "uint96"
            },
            {
              "internalType": "address",
              "name": "token",
              "type": "address"
            },
            {
              "internalType": "uint128",
              "name": "price",
              "type": "uint128"
            },
            {
              "internalType": "uint64",
              "name": "duetime",
              "type": "uint64"
            },
            {
              "internalType": "address",
              "name": "seller",
              "type": "address"
            }
          ],
          "internalType": "struct NFTInfoStorage.salesInfo[]",
          "name": "records",
          "type": "tuple[]"
        }
      ],
      "stateMutability": "view",
      "type": "function"
    },
    {
      "inputs": [],
      "name": "getSalesCount",
      "outputs": [
        {
          "internalType": "uint256",
          "name": "",
          "type": "uint256"
        }
      ],
      "stateMutability": "view",
      "type": "function"
    },
    {
      "inputs": [
        {
          "internalType": "address",
          "name": "collcetion",
          "type": "address"
        },
        {
          "internalType": "uint256",
          "name": "limit",
          "type": "uint256"
        },
        {
          "internalType": "uint256",
          "name": "offset",
          "type": "uint256"
        }
      ],
      "name": "getSalesByCollection",
      "outputs": [
        {
          "components": [
            {
              "internalType": "address",
              "name": "sales",
              "type": "address"
            },
            {
              "internalType": "address",
              "name": "collection",
              "type": "address"
            },
            {
              "internalType": "uint96",
              "name": "token_id",
              "type": "uint96"
            },
            {
              "internalType": "address",
              "name": "token",
              "type": "address"
            },
            {
              "internalType": "uint128",
              "name": "price",
              "type": "uint128"
            },
            {
              "internalType": "uint64",
              "name": "duetime",
              "type": "uint64"
            },
            {
              "internalType": "address",
              "name": "seller",
              "type": "address"
            }
          ],
          "internalType": "struct NFTInfoStorage.salesInfo[]",
          "name": "records",
          "type": "tuple[]"
        }
      ],
      "stateMutability": "view",
      "type": "function"
    },
    {
      "inputs": [
        {
          "internalType": "address",
          "name": "user",
          "type": "address"
        },
        {
          "internalType": "uint256",
          "name": "limit",
          "type": "uint256"
        },
        {
          "internalType": "uint256",
          "name": "offset",
          "type": "uint256"
        }
      ],
      "name": "getSalesByUser",
      "outputs": [
        {
          "components": [
            {
              "internalType": "address",
              "name": "sales",
              "type": "address"
            },
            {
              "internalType": "address",
              "name": "collection",
              "type": "address"
            },
            {
              "internalType": "uint96",
              "name": "token_id",
              "type": "uint96"
            },
            {
              "internalType": "address",
              "name": "token",
              "type": "address"
            },
            {
              "internalType": "uint128",
              "name": "price",
              "type": "uint128"
            },
            {
              "internalType": "uint64",
              "name": "duetime",
              "type": "uint64"
            },
            {
              "internalType": "address",
              "name": "seller",
              "type": "address"
            }
          ],
          "internalType": "struct NFTInfoStorage.salesInfo[]",
          "name": "records",
          "type": "tuple[]"
        }
      ],
      "stateMutability": "view",
      "type": "function"
    },
    {
      "inputs": [
        {
          "internalType": "address",
          "name": "user",
          "type": "address"
        }
      ],
      "name": "getSalesCountByUser",
      "outputs": [
        {
          "internalType": "uint256",
          "name": "",
          "type": "uint256"
        }
      ],
      "stateMutability": "view",
      "type": "function"
    },
    {
      "inputs": [
        {
          "internalType": "address",
          "name": "user",
          "type": "address"
        },
        {
          "internalType": "uint256",
          "name": "limit",
          "type": "uint256"
        },
        {
          "internalType": "uint256",
          "name": "offset",
          "type": "uint256"
        }
      ],
      "name": "getUserBids",
      "outputs": [
        {
          "components": [
            {
              "internalType": "address",
              "name": "sales",
              "type": "address"
            },
            {
              "internalType": "address",
              "name": "collection",
              "type": "address"
            },
            {
              "internalType": "uint96",
              "name": "token_id",
              "type": "uint96"
            },
            {
              "internalType": "address",
              "name": "token",
              "type": "address"
            },
            {
              "internalType": "uint128",
              "name": "price",
              "type": "uint128"
            },
            {
              "internalType": "uint64",
              "name": "duetime",
              "type": "uint64"
            },
            {
              "internalType": "address",
              "name": "seller",
              "type": "address"
            }
          ],
          "internalType": "struct NFTInfoStorage.salesInfo[]",
          "name": "records",
          "type": "tuple[]"
        }
      ],
      "stateMutability": "view",
      "type": "function"
    },
    {
      "inputs": [
        {
          "internalType": "address",
          "name": "user",
          "type": "address"
        }
      ],
      "name": "getUserBidsCount",
      "outputs": [
        {
          "internalType": "uint256",
          "name": "",
          "type": "uint256"
        }
      ],
      "stateMutability": "view",
      "type": "function"
    },
    {
      "inputs": [
        {
          "internalType": "address",
          "name": "user",
          "type": "address"
        },
        {
          "internalType": "uint256",
          "name": "limit",
          "type": "uint256"
        },
        {
          "internalType": "uint256",
          "name": "offset",
          "type": "uint256"
        }
      ],
      "name": "getUserBuys",
      "outputs": [
        {
          "components": [
            {
              "internalType": "address",
              "name": "sales",
              "type": "address"
            },
            {
              "internalType": "address",
              "name": "collection",
              "type": "address"
            },
            {
              "internalType": "uint96",
              "name": "token_id",
              "type": "uint96"
            },
            {
              "internalType": "address",
              "name": "token",
              "type": "address"
            },
            {
              "internalType": "uint128",
              "name": "price",
              "type": "uint128"
            },
            {
              "internalType": "uint64",
              "name": "duetime",
              "type": "uint64"
            },
            {
              "internalType": "address",
              "name": "seller",
              "type": "address"
            }
          ],
          "internalType": "struct NFTInfoStorage.salesInfo[]",
          "name": "records",
          "type": "tuple[]"
        }
      ],
      "stateMutability": "view",
      "type": "function"
    },
    {
      "inputs": [
        {
          "internalType": "address",
          "name": "user",
          "type": "address"
        }
      ],
      "name": "getUserBuysCount",
      "outputs": [
        {
          "internalType": "uint256",
          "name": "",
          "type": "uint256"
        }
      ],
      "stateMutability": "view",
      "type": "function"
    }
  ],
  "bytecode": "0x608060405234801561001057600080fd5b506113fd806100206000396000f3fe608060405234801561001057600080fd5b50600436106100f55760003560e01c806346eb67ef11610097578063cdfde4e411610066578063cdfde4e4146101f0578063dd8027db14610203578063e782fae71461020b578063ffff0d111461021e576100f5565b806346eb67ef146101a457806352374f6f146101b757806383651255146101ca578063b78fd5b3146101dd576100f5565b80632b171c71116100d35780632b171c711461014b5780632c32b2d61461016b5780632feeab361461017e5780634108424214610191576100f5565b806308d3fed3146100fa57806315412a961461010f5780631a92777914610138575b600080fd5b61010d6101083660046111de565b61023e565b005b61012261011d3660046110f0565b6102a9565b60405161012f91906112ea565b60405180910390f35b61012261014636600461125c565b610417565b61015e6101593660046110d4565b610556565b60405161012f9190611346565b6101226101793660046110f0565b610575565b61010d61018c3660046111de565b610639565b61010d61019f3660046111de565b610677565b61010d6101b2366004611202565b6106db565b61015e6101c53660046110d4565b610890565b6101226101d83660046110f0565b6108b7565b6101226101eb3660046110f0565b610a8a565b61010d6101fe3660046111de565b610bee565b61015e610c2c565b61015e6102193660046110d4565b610c3d565b61023161022c366004611124565b610c5e565b60405161012f9190611338565b3360009081526006602052604090205460ff1661025a57600080fd5b610265600083610c85565b50600082815260026020908152604080832080546001600160a01b031916331790556001600160a01b0384168352600590915290206102a49083610c85565b505050565b60608267ffffffffffffffff8111156102d257634e487b7160e01b600052604160045260246000fd5b60405190808252806020026020018201604052801561030b57816020015b6102f8611098565b8152602001906001900390816102f05790505b50905060006001815b84811080156103205750815b801561033457506000831180610334575080155b15610371576001600160a01b038716600090815260056020526040902061035b9084610c9a565b93509150806103698161137e565b915050610314565b5060005b85811080156103815750815b801561039557506000831180610395575080155b1561040d576001600160a01b03871660009081526005602052604090206103bc9084610c9a565b9350915081156103fb576103cf83610cb4565b8482815181106103ef57634e487b7160e01b600052603260045260246000fd5b60200260200101819052505b806104058161137e565b915050610375565b5050509392505050565b60608267ffffffffffffffff81111561044057634e487b7160e01b600052604160045260246000fd5b60405190808252806020026020018201604052801561047957816020015b610466611098565b81526020019060019003908161045e5790505b50905060006001815b848110801561048e5750815b80156104a2575060008311806104a2575080155b156104c8576104b2600084610c9a565b93509150806104c08161137e565b915050610482565b5060005b85811080156104d85750815b80156104ec575060008311806104ec575080155b1561054d576104fc600084610c9a565b93509150811561053b5761050f83610cb4565b84828151811061052f57634e487b7160e01b600052603260045260246000fd5b60200260200101819052505b806105458161137e565b9150506104cc565b50505092915050565b6001600160a01b0381166000908152600460205260409020545b919050565b60608267ffffffffffffffff81111561059e57634e487b7160e01b600052604160045260246000fd5b6040519080825280602002602001820160405280156105d757816020015b6105c4611098565b8152602001906001900390816105bc5790505b50905060005b83811015610631576105f38561022c868661134f565b82828151811061061357634e487b7160e01b600052603260045260246000fd5b602002602001018190525080806106299061137e565b9150506105dd565b509392505050565b3360009081526006602052604090205460ff1661065557600080fd5b6001600160a01b03811660009081526003602052604090206102a49083610c85565b3360009081526006602052604090205460ff1661069357600080fd5b600082815260026020908152604080832080546001600160a01b03191690556001600160a01b0384168352600590915290206106cf9083610e26565b506102a4600083610e26565b3360009081526006602052604090205460ff166106f757600080fd5b60008061070387610ec0565b600089815260026020908152604080832080546001600160a01b03191690556001600160a01b038b1683526005909152902091935091506107449088610e26565b50610750600088610e26565b506001600160a01b039485166000908152600460208181526040808420815160e081018352338152968a168784019081526001600160601b03968716928801928352988a16606088019081526001600160801b03988916608089019081524267ffffffffffffffff90811660a08b019081529d8d1660c08b01908152845460018082018755958a52969098209951600590960290990180546001600160a01b0319908116968e169690961781559a51928b0180549451948616938d16939093178c16600160a01b949098169390930296909617905593516002880180548316918a16919091179055925160038701805499516fffffffffffffffffffffffffffffffff19909a16919096161767ffffffffffffffff60801b1916600160801b98909416979097029290921790925551919093018054909316911617905550565b6001600160a01b03811660009081526003602052604081206108b190610ec8565b92915050565b60608267ffffffffffffffff8111156108e057634e487b7160e01b600052604160045260246000fd5b60405190808252806020026020018201604052801561091957816020015b610906611098565b8152602001906001900390816108fe5790505b506001600160a01b03851660009081526004602052604090205490915080831115610942578092505b8061094d858561134f565b11156109605761095d8382611367565b93505b60005b84811015610a81576001600160a01b038616600090815260046020526040902061098d8284611367565b815481106109ab57634e487b7160e01b600052603260045260246000fd5b60009182526020918290206040805160e08101825260059390930290910180546001600160a01b039081168452600182015480821695850195909552600160a01b9094046001600160601b03169183019190915260028101548316606083015260038101546001600160801b0381166080840152600160801b900467ffffffffffffffff1660a08301526004015490911660c08201528351849083908110610a6357634e487b7160e01b600052603260045260246000fd5b60200260200101819052508080610a799061137e565b915050610963565b50509392505050565b60608267ffffffffffffffff811115610ab357634e487b7160e01b600052604160045260246000fd5b604051908082528060200260200182016040528015610aec57816020015b610ad9611098565b815260200190600190039081610ad15790505b50905060006001815b8481108015610b015750815b8015610b1557506000831180610b15575080155b15610b52576001600160a01b0387166000908152600360205260409020610b3c9084610c9a565b9350915080610b4a8161137e565b915050610af5565b5060005b8581108015610b625750815b8015610b7657506000831180610b76575080155b1561040d576001600160a01b0387166000908152600360205260409020610b9d9084610c9a565b935091508115610bdc57610bb083610cb4565b848281518110610bd057634e487b7160e01b600052603260045260246000fd5b60200260200101819052505b80610be68161137e565b915050610b56565b3360009081526006602052604090205460ff16610c0a57600080fd5b6001600160a01b03811660009081526003602052604090206102a49083610e26565b6000610c386000610ec8565b905090565b6001600160a01b03811660009081526005602052604081206108b190610ec8565b610c66611098565b6000610c728484610ecc565b9050610c7d81610cb4565b949350505050565b6000610c9383836001610f00565b9392505050565b600080610ca984846001610f0f565b915091509250929050565b610cbc611098565b6000828152600260205260409020546001600160a01b031680610d195750506040805160e081018252600080825260208201819052918101829052606081018290526080810182905260a0810182905260c0810191909152610570565b6000806000806000856001600160a01b03166364b3b844896040518263ffffffff1660e01b8152600401610d4d9190611346565b60c06040518083038186803b158015610d6557600080fd5b505afa158015610d79573d6000803e3d6000fd5b505050506040513d601f19601f82011682018060405250810190610d9d9190611167565b509450945094509450945084610db257600095505b600080610dbe8a610ec0565b6040805160e0810182526001600160a01b039b8c168152928b1660208401526001600160601b039190911690820152958816606087015250506001600160801b03909216608084015267ffffffffffffffff1660a083015290921660c0830152509050919050565b6000811580610e3c5750610e3a8383610f56565b155b15610e49575060006108b1565b600082815260018481016020908152604080842084805290915280832054828452922054610e7b928692909190610fda565b60008281526001848101602090815260408084208480529091528083208390558183528220829055845490918591610eb4908490611367565b90915550919392505050565b606081901c91565b5490565b6000610eeb6bffffffffffffffffffffffff19606085901b168261134f565b9050610c936001600160601b0383168261134f565b6000610c7d846000858561100f565b600080610f1c8585610f56565b610f2b57506000905080610f4e565b505060008281526001848101602090815260408084208515158552909152909120545b935093915050565b60008181526001830160209081526040808320838052909152812054158015610f9957506000828152600180850160209081526040808420928452919052902054155b15610fd2576000808052600180850160209081526040808420928452919052902054821415610fca575060016108b1565b5060006108b1565b5060016108b1565b600082815260019094016020818152604080872093158088529382528087208690559486529081528385209115855252912055565b600061101b8584610f56565b15801561102d575061102d8585610f56565b1561108d5760008481526001860160209081526040808320851515845290915290205461105c86868686610fda565b61106886858386610fda565b600186600001600082825461107d919061134f565b9091555060019250610c7d915050565b506000949350505050565b6040805160e081018252600080825260208201819052918101829052606081018290526080810182905260a0810182905260c081019190915290565b6000602082840312156110e5578081fd5b8135610c93816113af565b600080600060608486031215611104578182fd5b833561110f816113af565b95602085013595506040909401359392505050565b60008060408385031215611136578182fd5b8235611141816113af565b915060208301356001600160601b038116811461115c578182fd5b809150509250929050565b60008060008060008060c0878903121561117f578182fd5b8651801515811461118e578283fd5b602088015190965061119f816113af565b80955050604087015193506060870151925060808701516111bf816113af565b60a08801519092506111d0816113af565b809150509295509295509295565b600080604083850312156111f0578182fd5b82359150602083013561115c816113af565b600080600080600060a08688031215611219578081fd5b85359450602086013561122b816113af565b9350604086013561123b816113af565b9250606086013561124b816113af565b949793965091946080013592915050565b6000806040838503121561126e578182fd5b50508035926020909101359150565b80516001600160a01b0390811683526020808301518216908401526040808301516001600160601b0316908401526060808301518216908401526080808301516001600160801b03169084015260a08281015167ffffffffffffffff169084015260c09182015116910152565b6020808252825182820181905260009190848201906040850190845b8181101561132c5761131983855161127d565b9284019260e09290920191600101611306565b50909695505050505050565b60e081016108b1828461127d565b90815260200190565b6000821982111561136257611362611399565b500190565b60008282101561137957611379611399565b500390565b600060001982141561139257611392611399565b5060010190565b634e487b7160e01b600052601160045260246000fd5b6001600160a01b03811681146113c457600080fd5b5056fea26469706673582212200dbcc87023187b0d651fc2d018f7bb8281653eb4a5836a88f2c1c3498ddbb5d864736f6c63430008010033",
  "immutableReferences": {},
  "source": "// SPDX-License-Identifier: Apache-2.0\npragma solidity ^0.8.0;\nimport './interface/ISales.sol';\nimport './libraries/StructuredLinkedList.sol';\nimport './RecordPacker.sol';\n\ncontract NFTInfoStorage is RecordPacker {\n    using StructuredLinkedList for StructuredLinkedList.List;\n    //------------\n    //storage: market_sale\n    //------------\n    //(collection, token_id)\n    StructuredLinkedList.List nftsInSale;\n    //(collection, token_id) -> sales address\n    mapping (uint256 => address) saleBook;\n    //user address -> (collection, token_id)\n    mapping (address => StructuredLinkedList.List) userBids;\n    //user address -> (collection, token_id)\n    mapping (address => salesInfo[]) userBuys;\n    //user address -> (collection, token_id)\n    mapping (address => StructuredLinkedList.List) userSales;\n\n    struct salesInfo {\n       address sales;\n       address collection;\n       uint96 token_id;\n       address token;\n       uint128 price;\n       uint64 duetime;\n       address seller;\n    }\n\n    mapping (address => bool) isSale;\n\n    function setSale(address _sale, bool _status) internal{\n        isSale[_sale] = _status;\n    }\n\n    //------------\n    //update records\n    //------------\n\n    function recordNewItem(uint256 record, address seller) external {\n        require(isSale[msg.sender]);\n        nftsInSale.pushFront(record);\n        saleBook[record] = msg.sender;\n        userSales[seller].pushFront(record);\n    }\n\n    function recordItemSold(uint256 record, address seller, address buyer, address token, uint256 price) external {\n        require(isSale[msg.sender]);\n        (address collcetion, uint96 token_id) = resovleRecord(record);\n        delete saleBook[record];\n        userSales[seller].remove(record);\n        nftsInSale.remove(record);\n        userBuys[buyer].push(salesInfo(msg.sender, collcetion, token_id,\n            token, uint128(price), uint64(block.timestamp), seller));\n    }\n\n    function recordItemCancel(uint256 record, address seller) external {\n        require(isSale[msg.sender]);\n        delete saleBook[record];\n        userSales[seller].remove(record);\n        nftsInSale.remove(record);\n    }\n\n    function recordNewBid(uint256 record, address bidder) external {\n        require(isSale[msg.sender]);\n        userBids[bidder].pushFront(record);\n    }\n\n    function recordDelBid(uint256 record, address bidder) external {\n        require(isSale[msg.sender]);\n        userBids[bidder].remove(record);\n    }\n\n    //------------\n    //get records\n    //------------\n\n    function getSaleInfo(address collection, uint96 token_id) public view returns (salesInfo memory){\n        uint256 record = packRecord(collection, token_id);\n        return getSaleInfoByRecord(record);\n    }\n\n    function getSaleInfoByRecord(uint256 record) internal view returns (salesInfo memory){\n        address sales = saleBook[record];\n        if (sales == address(0)){\n            return salesInfo(address(0), address(0), 0, address(0), 0, 0, address(0));\n        }\n        (bool _isOpen, address _token, uint _price, uint _due, address _seller,) =\n            ISales(sales).getSaleInfo(record);\n        if (!_isOpen) {\n            sales = address(0);\n        }\n        (address _contract, uint _tokenId) = resovleRecord(record);\n        return salesInfo(sales, _contract, uint96(_tokenId), _token, uint128(_price), uint64(_due), _seller);\n    }\n\n    function getSales(uint256 limit, uint256 offset) external view returns(salesInfo[] memory records){\n        records = new salesInfo[](limit);\n        uint256 cursor;\n        bool toContinue = true;\n        for(uint i; (i < offset) && toContinue && (cursor > 0 || i == 0); i++){\n            (toContinue, cursor) = nftsInSale.getNextNode(cursor);\n        }\n        for(uint i; (i < limit) && toContinue && (cursor > 0 || i == 0); i++){\n            (toContinue, cursor) = nftsInSale.getNextNode(cursor);\n            if(toContinue) records[i] = getSaleInfoByRecord(cursor);\n        }\n    }\n\n    function getSalesCount() external view returns(uint){\n        return nftsInSale.sizeOf();\n    }\n\n    function getSalesByCollection(address collcetion, uint256 limit, uint256 offset) external view returns(salesInfo[] memory records){\n        records = new salesInfo[](limit);\n        for(uint i; i < limit; i++){\n            records[i] = getSaleInfo(collcetion, uint96(offset + limit));\n        }\n    }\n\n    function getSalesByUser(address user, uint256 limit, uint256 offset) external view returns(salesInfo[] memory records){\n        records = new salesInfo[](limit);\n        uint256 cursor;\n        bool toContinue = true;\n        for(uint i; (i < offset) && toContinue && (cursor > 0 || i == 0); i++){\n            (toContinue, cursor) = userSales[user].getNextNode(cursor);\n        }\n        for(uint i; (i < limit) && toContinue && (cursor > 0 || i == 0); i++){\n            (toContinue, cursor) = userSales[user].getNextNode(cursor);\n            if(toContinue) records[i] = getSaleInfoByRecord(cursor);\n        }\n    }\n\n    function getSalesCountByUser(address user) external view returns(uint){\n        return userSales[user].sizeOf();\n    }\n\n    function getUserBids(address user, uint256 limit, uint256 offset) external view returns(salesInfo[] memory records){\n        records = new salesInfo[](limit);\n        uint256 cursor;\n        bool toContinue = true;\n        for(uint i; (i < offset) && toContinue && (cursor > 0 || i == 0); i++){\n            (toContinue, cursor) = userBids[user].getNextNode(cursor);\n        }\n        for(uint i; (i < limit) && toContinue && (cursor > 0 || i == 0); i++){\n            (toContinue, cursor) = userBids[user].getNextNode(cursor);\n            if(toContinue) records[i] = getSaleInfoByRecord(cursor);\n        }\n    }\n\n    function getUserBidsCount(address user) external view returns(uint){\n        return userBids[user].sizeOf();\n    }\n\n    function getUserBuys(address user, uint256 limit, uint256 offset) external view returns(salesInfo[] memory records){\n        records = new salesInfo[](limit);\n        uint length = userBuys[user].length;\n        if (offset > length){\n            offset = length;\n        }\n        if (offset + limit > length){\n            limit = length - offset;\n        }\n        for(uint i; i<limit; i++){\n            records[i] = userBuys[user][length - i];\n        }\n    }\n\n    function getUserBuysCount(address user) external view returns(uint){\n        return userBuys[user].length;\n    }\n}\n",
  "sourcePath": "/Users/troll/Repository/metaLifeNFT/contracts/NFTInfoStorage.sol",
  "compiler": {
    "name": "solc",
    "version": "0.8.1+commit.df193b15.Emscripten.clang"
  },
  "schemaVersion": "3.4.1",
  "updatedAt": "2022-06-11T02:26:19.788Z",
  "devdoc": {
    "kind": "dev",
    "methods": {},
    "version": 1
  },
  "userdoc": {
    "kind": "user",
    "methods": {},
    "version": 1
  }
}