{
  "contractName": "saleAuction",
  "abi": [
    {
      "inputs": [
        {
          "internalType": "address",
          "name": "master",
          "type": "address"
        }
      ],
      "stateMutability": "nonpayable",
      "type": "constructor"
    },
    {
      "anonymous": false,
      "inputs": [
        {
          "indexed": true,
          "internalType": "address",
          "name": "_contract",
          "type": "address"
        },
        {
          "indexed": false,
          "internalType": "uint256",
          "name": "_tokenId",
          "type": "uint256"
        }
      ],
      "name": "CancelSale",
      "type": "event"
    },
    {
      "anonymous": false,
      "inputs": [
        {
          "indexed": true,
          "internalType": "address",
          "name": "_contract",
          "type": "address"
        },
        {
          "indexed": false,
          "internalType": "uint256",
          "name": "_tokenId",
          "type": "uint256"
        },
        {
          "indexed": true,
          "internalType": "address",
          "name": "solder",
          "type": "address"
        },
        {
          "indexed": true,
          "internalType": "address",
          "name": "buyer",
          "type": "address"
        },
        {
          "indexed": false,
          "internalType": "address",
          "name": "token",
          "type": "address"
        },
        {
          "indexed": false,
          "internalType": "uint256",
          "name": "_price",
          "type": "uint256"
        }
      ],
      "name": "ConfirmSale",
      "type": "event"
    },
    {
      "anonymous": false,
      "inputs": [
        {
          "indexed": true,
          "internalType": "address",
          "name": "_contract",
          "type": "address"
        },
        {
          "indexed": false,
          "internalType": "uint256",
          "name": "_tokenId",
          "type": "uint256"
        },
        {
          "indexed": false,
          "internalType": "address",
          "name": "seller",
          "type": "address"
        },
        {
          "indexed": false,
          "internalType": "address",
          "name": "token",
          "type": "address"
        },
        {
          "indexed": false,
          "internalType": "uint256",
          "name": "_price",
          "type": "uint256"
        },
        {
          "indexed": false,
          "internalType": "uint256",
          "name": "_due",
          "type": "uint256"
        }
      ],
      "name": "CreateSale",
      "type": "event"
    },
    {
      "anonymous": false,
      "inputs": [
        {
          "indexed": true,
          "internalType": "address",
          "name": "_contract",
          "type": "address"
        },
        {
          "indexed": false,
          "internalType": "uint256",
          "name": "_tokenId",
          "type": "uint256"
        },
        {
          "indexed": true,
          "internalType": "address",
          "name": "bidder",
          "type": "address"
        },
        {
          "indexed": false,
          "internalType": "address",
          "name": "token",
          "type": "address"
        },
        {
          "indexed": false,
          "internalType": "uint256",
          "name": "_price",
          "type": "uint256"
        }
      ],
      "name": "NewBid",
      "type": "event"
    },
    {
      "anonymous": false,
      "inputs": [
        {
          "indexed": true,
          "internalType": "address",
          "name": "_contract",
          "type": "address"
        },
        {
          "indexed": false,
          "internalType": "uint256",
          "name": "_tokenId",
          "type": "uint256"
        },
        {
          "indexed": false,
          "internalType": "address",
          "name": "seller",
          "type": "address"
        },
        {
          "indexed": false,
          "internalType": "address",
          "name": "token",
          "type": "address"
        },
        {
          "indexed": false,
          "internalType": "uint256",
          "name": "_price",
          "type": "uint256"
        },
        {
          "indexed": false,
          "internalType": "uint256",
          "name": "_due",
          "type": "uint256"
        }
      ],
      "name": "UpdateSale",
      "type": "event"
    },
    {
      "inputs": [],
      "name": "masterAddress",
      "outputs": [
        {
          "internalType": "address",
          "name": "",
          "type": "address"
        }
      ],
      "stateMutability": "view",
      "type": "function"
    },
    {
      "inputs": [
        {
          "internalType": "address",
          "name": "_contract",
          "type": "address"
        },
        {
          "internalType": "uint256",
          "name": "_tokenId",
          "type": "uint256"
        },
        {
          "internalType": "address",
          "name": "seller",
          "type": "address"
        },
        {
          "internalType": "address",
          "name": "_token",
          "type": "address"
        },
        {
          "internalType": "uint256",
          "name": "_price",
          "type": "uint256"
        },
        {
          "internalType": "uint256",
          "name": "_duration",
          "type": "uint256"
        }
      ],
      "name": "create",
      "outputs": [
        {
          "internalType": "uint256",
          "name": "record",
          "type": "uint256"
        }
      ],
      "stateMutability": "nonpayable",
      "type": "function"
    },
    {
      "inputs": [
        {
          "internalType": "uint256",
          "name": "_saleId",
          "type": "uint256"
        }
      ],
      "name": "cancel",
      "outputs": [],
      "stateMutability": "nonpayable",
      "type": "function"
    },
    {
      "inputs": [
        {
          "internalType": "uint256",
          "name": "_saleId",
          "type": "uint256"
        },
        {
          "internalType": "address",
          "name": "_token",
          "type": "address"
        },
        {
          "internalType": "uint256",
          "name": "_price",
          "type": "uint256"
        }
      ],
      "name": "updatePrice",
      "outputs": [],
      "stateMutability": "nonpayable",
      "type": "function"
    },
    {
      "inputs": [
        {
          "internalType": "uint256",
          "name": "_saleId",
          "type": "uint256"
        },
        {
          "internalType": "uint256",
          "name": "_duration",
          "type": "uint256"
        }
      ],
      "name": "updateDuration",
      "outputs": [],
      "stateMutability": "nonpayable",
      "type": "function"
    },
    {
      "inputs": [
        {
          "internalType": "uint256",
          "name": "_saleId",
          "type": "uint256"
        }
      ],
      "name": "bidWithValue",
      "outputs": [],
      "stateMutability": "payable",
      "type": "function"
    },
    {
      "inputs": [
        {
          "internalType": "uint256",
          "name": "_saleId",
          "type": "uint256"
        },
        {
          "internalType": "uint256",
          "name": "_amount",
          "type": "uint256"
        }
      ],
      "name": "bidWithToken",
      "outputs": [],
      "stateMutability": "nonpayable",
      "type": "function"
    },
    {
      "inputs": [
        {
          "internalType": "uint256",
          "name": "_saleId",
          "type": "uint256"
        }
      ],
      "name": "claim",
      "outputs": [],
      "stateMutability": "nonpayable",
      "type": "function"
    },
    {
      "inputs": [
        {
          "internalType": "uint256",
          "name": "_saleId",
          "type": "uint256"
        },
        {
          "internalType": "address",
          "name": "_claimer",
          "type": "address"
        }
      ],
      "name": "claimable",
      "outputs": [
        {
          "internalType": "bool",
          "name": "",
          "type": "bool"
        }
      ],
      "stateMutability": "view",
      "type": "function"
    },
    {
      "inputs": [
        {
          "internalType": "address",
          "name": "_contract",
          "type": "address"
        },
        {
          "internalType": "uint256",
          "name": "_tokenId",
          "type": "uint256"
        }
      ],
      "name": "getSaleId",
      "outputs": [
        {
          "internalType": "uint256",
          "name": "_saleId",
          "type": "uint256"
        }
      ],
      "stateMutability": "pure",
      "type": "function"
    },
    {
      "inputs": [
        {
          "internalType": "address",
          "name": "_contract",
          "type": "address"
        },
        {
          "internalType": "uint256",
          "name": "_tokenId",
          "type": "uint256"
        }
      ],
      "name": "getSaleInfo",
      "outputs": [
        {
          "internalType": "bool",
          "name": "",
          "type": "bool"
        },
        {
          "internalType": "address",
          "name": "",
          "type": "address"
        },
        {
          "internalType": "uint256",
          "name": "",
          "type": "uint256"
        },
        {
          "internalType": "uint256",
          "name": "",
          "type": "uint256"
        },
        {
          "internalType": "address",
          "name": "",
          "type": "address"
        },
        {
          "internalType": "address",
          "name": "",
          "type": "address"
        }
      ],
      "stateMutability": "view",
      "type": "function"
    },
    {
      "inputs": [
        {
          "internalType": "uint256",
          "name": "_saleId",
          "type": "uint256"
        }
      ],
      "name": "getSaleInfo",
      "outputs": [
        {
          "internalType": "bool",
          "name": "_isOpen",
          "type": "bool"
        },
        {
          "internalType": "address",
          "name": "_token",
          "type": "address"
        },
        {
          "internalType": "uint256",
          "name": "_price",
          "type": "uint256"
        },
        {
          "internalType": "uint256",
          "name": "_due",
          "type": "uint256"
        },
        {
          "internalType": "address",
          "name": "_seller",
          "type": "address"
        },
        {
          "internalType": "address",
          "name": "_bidder",
          "type": "address"
        }
      ],
      "stateMutability": "view",
      "type": "function"
    }
  ],
  "bytecode": "0x608060405234801561001057600080fd5b50604051611f70380380611f7083398101604081905261002f91610054565b600180546001600160a01b0319166001600160a01b0392909216919091179055610082565b600060208284031215610065578081fd5b81516001600160a01b038116811461007b578182fd5b9392505050565b611edf806100916000396000f3fe6080604052600436106100a75760003560e01c806340e58ee51161006457806340e58ee51461019657806364b3b844146101b65780638ff05a2a146101d6578063a0c7f71c146101f6578063d365a08e14610223578063faa21b1114610245576100a7565b8063087db5b8146100ac5780630f0a1b9e146100e75780632ad1f1db14610109578063370b008114610129578063379607f5146101565780633969e1ae14610176575b600080fd5b3480156100b857600080fd5b506100cc6100c7366004611999565b610258565b6040516100de96959493929190611baa565b60405180910390f35b3480156100f357600080fd5b50610107610102366004611ad4565b610283565b005b34801561011557600080fd5b50610107610124366004611b0b565b610465565b34801561013557600080fd5b506101496101443660046119f1565b6105b0565b6040516100de9190611d22565b34801561016257600080fd5b50610107610171366004611a75565b610820565b34801561018257600080fd5b50610149610191366004611999565b610f5c565b3480156101a257600080fd5b506101076101b1366004611a75565b610f6f565b3480156101c257600080fd5b506100cc6101d1366004611a75565b611149565b3480156101e257600080fd5b506101076101f1366004611b0b565b6111a2565b34801561020257600080fd5b50610216610211366004611aa5565b6115b4565b6040516100de9190611b9f565b34801561022f57600080fd5b50610238611607565b6040516100de9190611b2c565b610107610253366004611a75565b611616565b60008060008060008061026e6101d18989610f5c565b949d939c50919a509850965090945092505050565b60008061028f85611941565b6000878152602081905260409020549193506001600160601b031691506001600160a01b031633146102dc5760405162461bcd60e51b81526004016102d390611c80565b60405180910390fd5b600154604051630e70619560e41b81526001600160a01b039091169063e70619509061030c908790600401611b2c565b60206040518083038186803b15801561032457600080fd5b505afa158015610338573d6000803e3d6000fd5b505050506040513d601f19601f8201168201806040525081019061035c9190611a55565b6103785760405162461bcd60e51b81526004016102d390611cd6565b6000858152602081905260409020600301546001600160a01b0316156103b05760405162461bcd60e51b81526004016102d390611c08565b600085815260208190526040908190206001810180546001600160a01b0319166001600160a01b038881169190911791829055600290920180546001600160801b0319166001600160801b0388811691909117918290559351868416947ffe8937da95814c69018f7a05dcec87068d26502ab6dabf6516ea314dc1dca32b9461045694889433949190921692821691600160801b900467ffffffffffffffff1690611d70565b60405180910390a25050505050565b60008061047184611941565b6000868152602081905260409020549193506001600160601b031691506001600160a01b031633146104b55760405162461bcd60e51b81526004016102d390611c80565b60006104c14285611e0d565b905067ffffffffffffffff8111156104de575067ffffffffffffffff5b6000858152602081905260409020600301546001600160a01b0316156105165760405162461bcd60e51b81526004016102d390611c08565b6000858152602081905260409081902060028101805467ffffffffffffffff60801b1916600160801b67ffffffffffffffff8681168202929092179283905560019093015493516001600160a01b03888116957ffe8937da95814c69018f7a05dcec87068d26502ab6dabf6516ea314dc1dca32b95610456958a95339594909316936001600160801b038216939290910490911690611d70565b6040516331a9108f60e11b815260009030906001600160a01b03891690636352211e906105e1908a90600401611d22565b60206040518083038186803b1580156105f957600080fd5b505afa15801561060d573d6000803e3d6000fd5b505050506040513d601f19601f82011682018060405250810190610631919061197d565b6001600160a01b03161461064457600080fd5b60006106504284611e0d565b905067ffffffffffffffff81111561066d575067ffffffffffffffff5b836001600160801b031684146106955760405162461bcd60e51b81526004016102d390611c2a565b61069f8888611949565b6040805160a0810182526001600160a01b03898116825288811660208084019182526001600160801b038a811685870190815267ffffffffffffffff898116606088019081526000608089018181528b825295819052899020975188546001600160a01b031990811691891691909117895595516001808a0180548916928a1692909217909155925160028901805492516001600160801b0319909316919095161767ffffffffffffffff60801b1916600160801b919092160217909155905160039094018054909216938316939093179055905491516308d3fed360e01b815292945016906308d3fed39061079b9085908a90600401611d2b565b600060405180830381600087803b1580156107b557600080fd5b505af11580156107c9573d6000803e3d6000fd5b50505050876001600160a01b03167e8f298a385d495e86787887da324d1603491ea0ea157acffd6c5851d6ddfa2f888888888660405161080d959493929190611db1565b60405180910390a2509695505050505050565b60008061082c83611941565b6001600160601b03169150915061084383336115b4565b61085f5760405162461bcd60e51b81526004016102d390611cb0565b60008381526020819052604080822060020154905163152a902d60e11b81526001600160801b03909116919081906001600160a01b03861690632a55205a906108ae9087908790600401611dff565b604080518083038186803b1580156108c557600080fd5b505afa1580156108d9573d6000803e3d6000fd5b505050506040513d601f19601f820116820180604052508101906108fd91906119c4565b91509150600061271084600160009054906101000a90046001600160a01b03166001600160a01b0316630e716d976040518163ffffffff1660e01b815260040160206040518083038186803b15801561095557600080fd5b505afa158015610969573d6000803e3d6000fd5b505050506040513d601f19601f8201168201806040525081019061098d9190611a8d565b6109979190611e45565b6109a19190611e25565b6000888152602081905260409020600101549091506001600160a01b0316610b1757600160009054906101000a90046001600160a01b03166001600160a01b031663c415b95c6040518163ffffffff1660e01b815260040160206040518083038186803b158015610a1157600080fd5b505afa158015610a25573d6000803e3d6000fd5b505050506040513d601f19601f82011682018060405250810190610a49919061197d565b6001600160a01b03166108fc829081150290604051600060405180830381858888f19350505050158015610a81573d6000803e3d6000fd5b506040516001600160a01b0384169083156108fc029084906000818181858888f19350505050158015610ab8573d6000803e3d6000fd5b506000878152602081905260409020546001600160a01b03166108fc83610adf8488611e64565b610ae99190611e64565b6040518115909202916000818181858888f19350505050158015610b11573d6000803e3d6000fd5b50610d61565b60008781526020818152604091829020600190810154905483516331056e5760e21b815293516001600160a01b039283169463a9059cbb94939092169263c415b95c9260048082019391829003018186803b158015610b7557600080fd5b505afa158015610b89573d6000803e3d6000fd5b505050506040513d601f19601f82011682018060405250810190610bad919061197d565b836040518363ffffffff1660e01b8152600401610bcb929190611b86565b602060405180830381600087803b158015610be557600080fd5b505af1158015610bf9573d6000803e3d6000fd5b505050506040513d601f19601f82011682018060405250810190610c1d9190611a55565b506000878152602081905260409081902060010154905163a9059cbb60e01b81526001600160a01b039091169063a9059cbb90610c609086908690600401611b86565b602060405180830381600087803b158015610c7a57600080fd5b505af1158015610c8e573d6000803e3d6000fd5b505050506040513d601f19601f82011682018060405250810190610cb29190611a55565b506000878152602081905260409020600181015490546001600160a01b039182169163a9059cbb911684610ce68589611e64565b610cf09190611e64565b6040518363ffffffff1660e01b8152600401610d0d929190611b86565b602060405180830381600087803b158015610d2757600080fd5b505af1158015610d3b573d6000803e3d6000fd5b505050506040513d601f19601f82011682018060405250810190610d5f9190611a55565b505b6040516323b872dd60e01b81526001600160a01b038716906323b872dd90610d9190309033908a90600401611b40565b600060405180830381600087803b158015610dab57600080fd5b505af1158015610dbf573d6000803e3d6000fd5b505060015460405163337f793960e21b81526001600160a01b03909116925063cdfde4e49150610df5908a903390600401611d2b565b600060405180830381600087803b158015610e0f57600080fd5b505af1158015610e23573d6000803e3d6000fd5b50506001805460008b81526020819052604090819020805493015490516346eb67ef60e01b81526001600160a01b0392831695506346eb67ef9450610e77938d939081169233929116908b90600401611d42565b600060405180830381600087803b158015610e9157600080fd5b505af1158015610ea5573d6000803e3d6000fd5b50505060008881526020819052604090819020805460019091015491513393506001600160a01b03918216928a8316927f8484265a68fd7cea22f85d6a338d7534f34ae4ff7d204bfa9faaec9e9e696ba392610f06928c9216908b90611de0565b60405180910390a4505050600093845250505060208190526040902080546001600160a01b03199081168255600182018054821690556002820180546001600160c01b0319169055600390910180549091169055565b6000610f688383611949565b9392505050565b600080610f7b83611941565b6000858152602081905260409020549193506001600160601b031691506001600160a01b03163314610fbf5760405162461bcd60e51b81526004016102d390611c80565b6000838152602081905260409020600301546001600160a01b031615610ff75760405162461bcd60e51b81526004016102d390611c08565b6000838152602081905260409081902080546001600160a01b03199081168255600182018054821690556002820180546001600160c01b0319169055600390910180549091169055516323b872dd60e01b81526001600160a01b038316906323b872dd9061106d90309033908690600401611b40565b600060405180830381600087803b15801561108757600080fd5b505af115801561109b573d6000803e3d6000fd5b5050600154604051632084212160e11b81526001600160a01b039091169250634108424291506110d19086903390600401611d2b565b600060405180830381600087803b1580156110eb57600080fd5b505af11580156110ff573d6000803e3d6000fd5b50505050816001600160a01b03167f8b0a052bd72fec557d5735593db719bcb565d7afec8d76ee165e317e8cc984098260405161113c9190611d22565b60405180910390a2505050565b60009081526020819052604090206001810154600282015482546003909301544267ffffffffffffffff600160801b840416908111956001600160a01b03948516956001600160801b0390941694919382169290911690565b6000806111ae84611941565b6000868152602081905260409020600201549193506001600160601b0316915042600160801b90910467ffffffffffffffff16116111fe5760405162461bcd60e51b81526004016102d390611be2565b6000848152602081905260409020600101546001600160a01b03166112355760405162461bcd60e51b81526004016102d390611cfb565b6000848152602081905260409020600301546001600160a01b031615611293576000848152602081905260409020600201546001600160801b0316831161128e5760405162461bcd60e51b81526004016102d390611c52565b6112cd565b6000848152602081905260409020600201546001600160801b03168310156112cd5760405162461bcd60e51b81526004016102d390611c52565b600084815260208190526040908190206001015490516323b872dd60e01b81526001600160a01b03909116906323b872dd9061131190339030908890600401611b40565b602060405180830381600087803b15801561132b57600080fd5b505af115801561133f573d6000803e3d6000fd5b505050506040513d601f19601f820116820180604052508101906113639190611a55565b506000848152602081905260409020600301546001600160a01b0316156114a9576000848152602081905260409081902060018101546003820154600290920154925163a9059cbb60e01b81526001600160a01b039182169363a9059cbb936113dc9316916001600160801b0390911690600401611b64565b602060405180830381600087803b1580156113f657600080fd5b505af115801561140a573d6000803e3d6000fd5b505050506040513d601f19601f8201168201806040525081019061142e9190611a55565b506001546000858152602081905260409081902060030154905163337f793960e21b81526001600160a01b039283169263cdfde4e49261147692899290911690600401611d2b565b600060405180830381600087803b15801561149057600080fd5b505af11580156114a4573d6000803e3d6000fd5b505050505b60008481526020819052604090819020600381018054336001600160a01b03199091168117909155600290910180546001600160801b0319166001600160801b03871617905560015491516317f7559b60e11b81526001600160a01b0390921691632feeab369161151f91889190600401611d2b565b600060405180830381600087803b15801561153957600080fd5b505af115801561154d573d6000803e3d6000fd5b505050600085815260208190526040908190206001015490513392506001600160a01b03858116927f3a62da8721790771856162caef0b31ff0c28626c1a7bcd82ed8a6a2a6b0009a2926115a692879216908990611de0565b60405180910390a350505050565b60008281526020819052604081206002015442600160801b90910467ffffffffffffffff1611801590610f68575050600091825260208290526040909120600301546001600160a01b0391821691161490565b6001546001600160a01b031681565b60008061162283611941565b6000858152602081905260409020600201549193506001600160601b0316915042600160801b90910467ffffffffffffffff16116116725760405162461bcd60e51b81526004016102d390611be2565b6000838152602081905260409020600101546001600160a01b0316156116aa5760405162461bcd60e51b81526004016102d390611cfb565b6000838152602081905260409020600301546001600160a01b031615611708576000838152602081905260409020600201546001600160801b031634116117035760405162461bcd60e51b81526004016102d390611c52565b611742565b6000838152602081905260409020600201546001600160801b03163410156117425760405162461bcd60e51b81526004016102d390611c52565b6000838152602081905260409020600301546001600160a01b03161561183757600083815260208190526040808220600381015460029091015491516001600160a01b03909116926001600160801b0390921680156108fc0292909190818181858888f193505050501580156117bc573d6000803e3d6000fd5b506001546000848152602081905260409081902060030154905163337f793960e21b81526001600160a01b039283169263cdfde4e49261180492889290911690600401611d2b565b600060405180830381600087803b15801561181e57600080fd5b505af1158015611832573d6000803e3d6000fd5b505050505b60008381526020819052604090819020600381018054336001600160a01b03199091168117909155600290910180546001600160801b031916346001600160801b031617905560015491516317f7559b60e11b81526001600160a01b0390921691632feeab36916118ad91879190600401611d2b565b600060405180830381600087803b1580156118c757600080fd5b505af11580156118db573d6000803e3d6000fd5b505050600084815260208190526040908190206001015490513392506001600160a01b03858116927f3a62da8721790771856162caef0b31ff0c28626c1a7bcd82ed8a6a2a6b0009a29261193492879216903490611de0565b60405180910390a3505050565b606081901c91565b60006119686bffffffffffffffffffffffff19606085901b1682611e0d565b9050610f686001600160601b03831682611e0d565b60006020828403121561198e578081fd5b8151610f6881611e91565b600080604083850312156119ab578081fd5b82356119b681611e91565b946020939093013593505050565b600080604083850312156119d6578182fd5b82516119e181611e91565b6020939093015192949293505050565b60008060008060008060c08789031215611a09578182fd5b8635611a1481611e91565b9550602087013594506040870135611a2b81611e91565b93506060870135611a3b81611e91565b9598949750929560808101359460a0909101359350915050565b600060208284031215611a66578081fd5b81518015158114610f68578182fd5b600060208284031215611a86578081fd5b5035919050565b600060208284031215611a9e578081fd5b5051919050565b60008060408385031215611ab7578182fd5b823591506020830135611ac981611e91565b809150509250929050565b600080600060608486031215611ae8578283fd5b833592506020840135611afa81611e91565b929592945050506040919091013590565b60008060408385031215611b1d578182fd5b50508035926020909101359150565b6001600160a01b0391909116815260200190565b6001600160a01b039384168152919092166020820152604081019190915260600190565b6001600160a01b039290921682526001600160801b0316602082015260400190565b6001600160a01b03929092168252602082015260400190565b901515815260200190565b95151586526001600160a01b03948516602087015260408601939093526060850191909152821660808401521660a082015260c00190565b6020808252600c908201526b496e76616c69642073616c6560a01b604082015260600190565b602080825260089082015267486173206269642160c01b604082015260600190565b6020808252600e908201526d5072696365206f766572666c6f7760901b604082015260600190565b602080825260149082015273125b9cdd59999a58da595b9d081c185e5b595b9d60621b604082015260600190565b602080825260169082015275139bdd081bdddb995c881bdc881a5d195b481cdbdb1960521b604082015260600190565b6020808252600c908201526b43616e6e6f7420636c61696d60a01b604082015260600190565b6020808252600b908201526a2bb937b733902a37b5b2b760a91b604082015260600190565b6020808252600d908201526c15dc9bdb99c81c185e5b595b9d609a1b604082015260600190565b90815260200190565b9182526001600160a01b0316602082015260400190565b9485526001600160a01b03938416602086015291831660408501529091166060830152608082015260a00190565b9485526001600160a01b0393841660208601529190921660408401526001600160801b03909116606083015267ffffffffffffffff16608082015260a00190565b9485526001600160a01b0393841660208601529190921660408401526060830191909152608082015260a00190565b9283526001600160a01b03919091166020830152604082015260600190565b918252602082015260400190565b60008219821115611e2057611e20611e7b565b500190565b600082611e4057634e487b7160e01b81526012600452602481fd5b500490565b6000816000190483118215151615611e5f57611e5f611e7b565b500290565b600082821015611e7657611e76611e7b565b500390565b634e487b7160e01b600052601160045260246000fd5b6001600160a01b0381168114611ea657600080fd5b5056fea26469706673582212201356002b626a06353748cb71a24437b77e3f4d09b2a1ec475ba049245d74244a64736f6c63430008010033",
  "immutableReferences": {},
  "source": "// SPDX-License-Identifier: Apache-2.0\npragma solidity ^0.8.0;\nimport '@openzeppelin/contracts/token/ERC721/IERC721.sol';\nimport '@openzeppelin/contracts/token/ERC20/IERC20.sol';\nimport './metaMaster.sol';\nimport './NFTInfoStorage.sol';\nimport './RecordPacker.sol';\nimport './NFTCollection.sol';\n\ncontract saleAuction is ISales, RecordPacker{\n    struct saleAuctionItem {\n       address seller;\n       address token;\n       uint128 price;\n       uint64 duetime;\n       address bidder;\n    }\n\n    mapping (uint256 => saleAuctionItem) saleItems;\n\n    address public masterAddress;\n\n    constructor(address master){\n        masterAddress = master;\n    }\n\n    //Owner Interaction\n    function create(address _contract, uint _tokenId, address seller,\n        address _token, uint _price, uint _duration) external override returns (uint record){\n            //check\n            require(IERC721(_contract).ownerOf(_tokenId) == address(this));\n            uint _due = _duration + block.timestamp;\n            if (_due > type(uint64).max) _due = type(uint64).max;\n            require(_price == uint256(uint128(_price)), 'Price overflow');\n            //update\n            record = packRecord(_contract, uint96(_tokenId));\n            saleItems[record] = saleAuctionItem(seller, _token, uint128(_price), uint64(_due), address(0));\n            //record\n            NFTInfoStorage(masterAddress).recordNewItem(record, seller);\n            emit CreateSale(_contract, _tokenId, seller, _token, _price, _due);\n        }\n\n    function cancel(uint _saleId) external override{\n        (address _contract, uint _tokenId) = resovleRecord(_saleId);\n        //check\n        require(saleItems[_saleId].seller == msg.sender , 'Not owner or item sold');\n        require(saleItems[_saleId].bidder == address(0) , 'Has bid!');\n        //update\n        delete saleItems[_saleId];\n        IERC721(_contract).transferFrom(address(this), msg.sender, _tokenId);\n        //record\n        NFTInfoStorage(masterAddress).recordItemCancel(_saleId, msg.sender);\n        emit CancelSale(_contract, _tokenId);\n    }\n\n    function updatePrice(uint _saleId, address _token, uint _price) external override{\n        (address _contract, uint _tokenId) = resovleRecord(_saleId);\n        //check\n        require(saleItems[_saleId].seller == msg.sender , 'Not owner or item sold');\n        require(metaMaster(masterAddress).tokenIsSupported(_token), 'Wrong Token');\n        require(saleItems[_saleId].bidder == address(0) , 'Has bid!');\n        //update\n        saleItems[_saleId].token = _token;\n        saleItems[_saleId].price = uint128(_price);\n        //record\n        emit UpdateSale(_contract, _tokenId, msg.sender,\n            saleItems[_saleId].token, saleItems[_saleId].price, saleItems[_saleId].duetime);\n    }\n\n    function updateDuration(uint _saleId, uint _duration) external override{\n        (address _contract, uint _tokenId) = resovleRecord(_saleId);\n        //check\n        require(saleItems[_saleId].seller == msg.sender , 'Not owner or item sold');\n        uint _due = _duration + block.timestamp;\n        if (_due > type(uint64).max) _due = type(uint64).max;\n        require(saleItems[_saleId].bidder == address(0) , 'Has bid!');\n        //update\n        saleItems[_saleId].duetime = uint64(_due);\n        //record\n        emit UpdateSale(_contract, _tokenId, msg.sender,\n            saleItems[_saleId].token, saleItems[_saleId].price, saleItems[_saleId].duetime);\n    }\n\n    //Customer Interaction\n    function bidWithValue(uint _saleId) external override payable{\n        (address _contract, uint _tokenId) = resovleRecord(_saleId);\n        //check\n        require(saleItems[_saleId].duetime > block.timestamp, 'Invalid sale');\n        require(saleItems[_saleId].token == address(0), 'Wrong payment');\n        if (saleItems[_saleId].bidder != address(0)){\n            require(msg.value > saleItems[_saleId].price, 'Insufficient payment');\n        } else {\n            require(msg.value >= saleItems[_saleId].price, 'Insufficient payment');\n        }\n        //handle payment\n        msg.value;\n        //remove previous bid\n        if (saleItems[_saleId].bidder != address(0)){\n            payable(saleItems[_saleId].bidder).transfer(saleItems[_saleId].price);\n            NFTInfoStorage(masterAddress).recordDelBid(_saleId, saleItems[_saleId].bidder);\n        }\n        //place bid\n        saleItems[_saleId].bidder = msg.sender;\n        saleItems[_saleId].price = uint128(msg.value);\n        //record\n        NFTInfoStorage(masterAddress).recordNewBid(_saleId, msg.sender);\n        emit NewBid(_contract, _tokenId, msg.sender, saleItems[_saleId].token, msg.value);\n    }\n\n    function bidWithToken(uint _saleId, uint _amount) external override{\n        (address _contract, uint _tokenId) = resovleRecord(_saleId);\n        //check\n        require(saleItems[_saleId].duetime > block.timestamp, 'Invalid sale');\n        require(saleItems[_saleId].token != address(0), 'Wrong payment');\n        if (saleItems[_saleId].bidder != address(0)){\n            require(_amount > saleItems[_saleId].price, 'Insufficient payment');\n        } else {\n            require(_amount >= saleItems[_saleId].price, 'Insufficient payment');\n        }\n        //handle payment\n        IERC20(saleItems[_saleId].token).transferFrom(msg.sender, address(this), _amount);\n        //remove previous bid\n        if (saleItems[_saleId].bidder != address(0)){\n            IERC20(saleItems[_saleId].token).transfer(saleItems[_saleId].bidder, saleItems[_saleId].price);\n            NFTInfoStorage(masterAddress).recordDelBid(_saleId, saleItems[_saleId].bidder);\n        }\n        //place bid\n        saleItems[_saleId].bidder = msg.sender;\n        saleItems[_saleId].price = uint128(_amount);\n        //record\n        NFTInfoStorage(masterAddress).recordNewBid(_saleId, msg.sender);\n        emit NewBid(_contract, _tokenId, msg.sender, saleItems[_saleId].token, _amount);\n    }\n\n    function claim(uint _saleId) external override{\n        //check\n        (address _contract, uint _tokenId) = resovleRecord(_saleId);\n        require(claimable(_saleId, msg.sender), 'Cannot claim');\n        //handle payment\n        uint _amount = saleItems[_saleId].price;\n        (address royaltiesReceiver, uint royalties) = NFTCollection(_contract).royaltyInfo(_tokenId, _amount);\n        uint fee = metaMaster(masterAddress).feeInBips() * _amount / 10000;\n        if (saleItems[_saleId].token == address(0)){\n            payable(metaMaster(masterAddress).feeCollector()).transfer(fee);\n            payable(royaltiesReceiver).transfer(royalties);\n            payable(saleItems[_saleId].seller).transfer(_amount - fee - royalties);\n        } else {\n            IERC20(saleItems[_saleId].token).transfer(metaMaster(masterAddress).feeCollector(), fee);\n            IERC20(saleItems[_saleId].token).transfer(royaltiesReceiver, royalties);\n            IERC20(saleItems[_saleId].token).transfer(saleItems[_saleId].seller, _amount-fee-royalties);\n        }\n        //delivery item\n        IERC721(_contract).transferFrom(address(this), msg.sender, _tokenId);\n        //record\n        NFTInfoStorage(masterAddress).recordDelBid(_saleId, msg.sender);\n        NFTInfoStorage(masterAddress).recordItemSold(_saleId, saleItems[_saleId].seller, msg.sender,\n            saleItems[_saleId].token, _amount);\n        emit ConfirmSale(_contract, _tokenId, saleItems[_saleId].seller, msg.sender,\n            saleItems[_saleId].token, _amount);\n        //update\n        delete saleItems[_saleId];\n    }\n\n    function claimable(uint _saleId, address _claimer) public override view returns (bool){\n        return saleItems[_saleId].duetime <= block.timestamp && saleItems[_saleId].bidder == _claimer;\n    }\n\n    //Views\n    function getSaleId(address _contract, uint _tokenId) public override pure returns (uint _saleId){\n        return packRecord(_contract, uint96(_tokenId));\n    }\n\n    function getSaleInfo(uint _saleId) public override view returns (bool _isOpen, address _token,\n         uint _price, uint _due, address _seller, address _bidder){\n        _token = saleItems[_saleId].token;\n        _price = saleItems[_saleId].price;\n        _due = saleItems[_saleId].duetime;\n        _seller = saleItems[_saleId].seller;\n        _isOpen = _due > block.timestamp;\n        _bidder = saleItems[_saleId].bidder;\n    }\n\n    function getSaleInfo(address _contract, uint _tokenId) public override view\n    returns (bool, address, uint, uint, address, address){\n        return getSaleInfo(getSaleId(_contract, _tokenId));\n    }\n}\n",
  "sourcePath": "/Users/troll/Repository/metaLifeNFT/contracts/saleAuction.sol",
  "compiler": {
    "name": "solc",
    "version": "0.8.1+commit.df193b15.Emscripten.clang"
  },
  "schemaVersion": "3.4.1",
  "updatedAt": "2022-06-11T02:26:19.819Z",
  "devdoc": {
    "kind": "dev",
    "methods": {},
    "version": 1
  },
  "userdoc": {
    "kind": "user",
    "methods": {},
    "version": 1
  }
}