{
  "contractName": "testCoinA",
  "abi": [
    {
      "anonymous": false,
      "inputs": [
        {
          "indexed": true,
          "internalType": "address",
          "name": "owner",
          "type": "address"
        },
        {
          "indexed": true,
          "internalType": "address",
          "name": "spender",
          "type": "address"
        },
        {
          "indexed": false,
          "internalType": "uint256",
          "name": "value",
          "type": "uint256"
        }
      ],
      "name": "Approval",
      "type": "event"
    },
    {
      "anonymous": false,
      "inputs": [
        {
          "indexed": true,
          "internalType": "address",
          "name": "from",
          "type": "address"
        },
        {
          "indexed": true,
          "internalType": "address",
          "name": "to",
          "type": "address"
        },
        {
          "indexed": false,
          "internalType": "uint256",
          "name": "value",
          "type": "uint256"
        }
      ],
      "name": "Transfer",
      "type": "event"
    },
    {
      "inputs": [
        {
          "internalType": "address",
          "name": "owner",
          "type": "address"
        },
        {
          "internalType": "address",
          "name": "spender",
          "type": "address"
        }
      ],
      "name": "allowance",
      "outputs": [
        {
          "internalType": "uint256",
          "name": "",
          "type": "uint256"
        }
      ],
      "stateMutability": "view",
      "type": "function"
    },
    {
      "inputs": [
        {
          "internalType": "address",
          "name": "spender",
          "type": "address"
        },
        {
          "internalType": "uint256",
          "name": "amount",
          "type": "uint256"
        }
      ],
      "name": "approve",
      "outputs": [
        {
          "internalType": "bool",
          "name": "",
          "type": "bool"
        }
      ],
      "stateMutability": "nonpayable",
      "type": "function"
    },
    {
      "inputs": [
        {
          "internalType": "address",
          "name": "account",
          "type": "address"
        }
      ],
      "name": "balanceOf",
      "outputs": [
        {
          "internalType": "uint256",
          "name": "",
          "type": "uint256"
        }
      ],
      "stateMutability": "view",
      "type": "function"
    },
    {
      "inputs": [],
      "name": "decimals",
      "outputs": [
        {
          "internalType": "uint8",
          "name": "",
          "type": "uint8"
        }
      ],
      "stateMutability": "view",
      "type": "function"
    },
    {
      "inputs": [
        {
          "internalType": "address",
          "name": "spender",
          "type": "address"
        },
        {
          "internalType": "uint256",
          "name": "subtractedValue",
          "type": "uint256"
        }
      ],
      "name": "decreaseAllowance",
      "outputs": [
        {
          "internalType": "bool",
          "name": "",
          "type": "bool"
        }
      ],
      "stateMutability": "nonpayable",
      "type": "function"
    },
    {
      "inputs": [
        {
          "internalType": "address",
          "name": "spender",
          "type": "address"
        },
        {
          "internalType": "uint256",
          "name": "addedValue",
          "type": "uint256"
        }
      ],
      "name": "increaseAllowance",
      "outputs": [
        {
          "internalType": "bool",
          "name": "",
          "type": "bool"
        }
      ],
      "stateMutability": "nonpayable",
      "type": "function"
    },
    {
      "inputs": [],
      "name": "name",
      "outputs": [
        {
          "internalType": "string",
          "name": "",
          "type": "string"
        }
      ],
      "stateMutability": "view",
      "type": "function"
    },
    {
      "inputs": [],
      "name": "symbol",
      "outputs": [
        {
          "internalType": "string",
          "name": "",
          "type": "string"
        }
      ],
      "stateMutability": "view",
      "type": "function"
    },
    {
      "inputs": [],
      "name": "totalSupply",
      "outputs": [
        {
          "internalType": "uint256",
          "name": "",
          "type": "uint256"
        }
      ],
      "stateMutability": "view",
      "type": "function"
    },
    {
      "inputs": [
        {
          "internalType": "address",
          "name": "to",
          "type": "address"
        },
        {
          "internalType": "uint256",
          "name": "amount",
          "type": "uint256"
        }
      ],
      "name": "transfer",
      "outputs": [
        {
          "internalType": "bool",
          "name": "",
          "type": "bool"
        }
      ],
      "stateMutability": "nonpayable",
      "type": "function"
    },
    {
      "inputs": [
        {
          "internalType": "address",
          "name": "from",
          "type": "address"
        },
        {
          "internalType": "address",
          "name": "to",
          "type": "address"
        },
        {
          "internalType": "uint256",
          "name": "amount",
          "type": "uint256"
        }
      ],
      "name": "transferFrom",
      "outputs": [
        {
          "internalType": "bool",
          "name": "",
          "type": "bool"
        }
      ],
      "stateMutability": "nonpayable",
      "type": "function"
    },
    {
      "inputs": [
        {
          "internalType": "uint256",
          "name": "amount",
          "type": "uint256"
        }
      ],
      "name": "getCoin",
      "outputs": [],
      "stateMutability": "nonpayable",
      "type": "function"
    }
  ],
  "bytecode": "0x608060405234801561001057600080fd5b50604080518082018252600981526874657374436f696e4160b81b6020808301918252835180850190945260018452604160f81b90840152815191929161005991600391610075565b50805161006d906004906020840190610075565b505050610149565b8280546100819061010e565b90600052602060002090601f0160209004810192826100a357600085556100e9565b82601f106100bc57805160ff19168380011785556100e9565b828001600101855582156100e9579182015b828111156100e95782518255916020019190600101906100ce565b506100f59291506100f9565b5090565b5b808211156100f557600081556001016100fa565b60028104600182168061012257607f821691505b6020821081141561014357634e487b7160e01b600052602260045260246000fd5b50919050565b610a86806101586000396000f3fe608060405234801561001057600080fd5b50600436106100b45760003560e01c806370a082311161007157806370a082311461014757806395d89b411461015a578063a457c2d714610162578063a9059cbb14610175578063da31158814610188578063dd62ed3e1461019d576100b4565b806306fdde03146100b9578063095ea7b3146100d757806318160ddd146100f757806323b872dd1461010c578063313ce5671461011f5780633950935114610134575b600080fd5b6100c16101b0565b6040516100ce9190610780565b60405180910390f35b6100ea6100e5366004610734565b610242565b6040516100ce9190610775565b6100ff610264565b6040516100ce91906109da565b6100ea61011a3660046106f9565b61026a565b610127610298565b6040516100ce91906109e3565b6100ea610142366004610734565b61029d565b6100ff6101553660046106a6565b6102c9565b6100c16102e8565b6100ea610170366004610734565b6102f7565b6100ea610183366004610734565b610348565b61019b61019636600461075d565b610360565b005b6100ff6101ab3660046106c7565b61036d565b6060600380546101bf90610a15565b80601f01602080910402602001604051908101604052809291908181526020018280546101eb90610a15565b80156102385780601f1061020d57610100808354040283529160200191610238565b820191906000526020600020905b81548152906001019060200180831161021b57829003601f168201915b5050505050905090565b60008061024d610398565b905061025a81858561039c565b5060019392505050565b60025490565b600080610275610398565b9050610282858285610450565b61028d85858561049a565b506001949350505050565b601290565b6000806102a8610398565b905061025a8185856102ba858961036d565b6102c491906109f1565b61039c565b6001600160a01b0381166000908152602081905260409020545b919050565b6060600480546101bf90610a15565b600080610302610398565b90506000610310828661036d565b90508381101561033b5760405162461bcd60e51b81526004016103329061095e565b60405180910390fd5b61028d828686840361039c565b600080610353610398565b905061025a81858561049a565b61036a33826105be565b50565b6001600160a01b03918216600090815260016020908152604080832093909416825291909152205490565b3390565b6001600160a01b0383166103c25760405162461bcd60e51b81526004016103329061091a565b6001600160a01b0382166103e85760405162461bcd60e51b815260040161033290610816565b6001600160a01b0380841660008181526001602090815260408083209487168084529490915290819020849055517f8c5be1e5ebec7d5bd14f71427d1e84f3dd0314c0f7b2291e5b200ac8c7c3b925906104439085906109da565b60405180910390a3505050565b600061045c848461036d565b9050600019811461049457818110156104875760405162461bcd60e51b815260040161033290610858565b610494848484840361039c565b50505050565b6001600160a01b0383166104c05760405162461bcd60e51b8152600401610332906108d5565b6001600160a01b0382166104e65760405162461bcd60e51b8152600401610332906107d3565b6104f183838361068a565b6001600160a01b0383166000908152602081905260409020548181101561052a5760405162461bcd60e51b81526004016103329061088f565b6001600160a01b038085166000908152602081905260408082208585039055918516815290812080548492906105619084906109f1565b92505081905550826001600160a01b0316846001600160a01b03167fddf252ad1be2c89b69c2b068fc378daa952ba7f163c4a11628f55a4df523b3ef846040516105ab91906109da565b60405180910390a361049484848461068a565b6001600160a01b0382166105e45760405162461bcd60e51b8152600401610332906109a3565b6105f06000838361068a565b806002600082825461060291906109f1565b90915550506001600160a01b0382166000908152602081905260408120805483929061062f9084906109f1565b90915550506040516001600160a01b038316906000907fddf252ad1be2c89b69c2b068fc378daa952ba7f163c4a11628f55a4df523b3ef906106729085906109da565b60405180910390a36106866000838361068a565b5050565b505050565b80356001600160a01b03811681146102e357600080fd5b6000602082840312156106b7578081fd5b6106c08261068f565b9392505050565b600080604083850312156106d9578081fd5b6106e28361068f565b91506106f06020840161068f565b90509250929050565b60008060006060848603121561070d578081fd5b6107168461068f565b92506107246020850161068f565b9150604084013590509250925092565b60008060408385031215610746578182fd5b61074f8361068f565b946020939093013593505050565b60006020828403121561076e578081fd5b5035919050565b901515815260200190565b6000602080835283518082850152825b818110156107ac57858101830151858201604001528201610790565b818111156107bd5783604083870101525b50601f01601f1916929092016040019392505050565b60208082526023908201527f45524332303a207472616e7366657220746f20746865207a65726f206164647260408201526265737360e81b606082015260800190565b60208082526022908201527f45524332303a20617070726f766520746f20746865207a65726f206164647265604082015261737360f01b606082015260800190565b6020808252601d908201527f45524332303a20696e73756666696369656e7420616c6c6f77616e6365000000604082015260600190565b60208082526026908201527f45524332303a207472616e7366657220616d6f756e7420657863656564732062604082015265616c616e636560d01b606082015260800190565b60208082526025908201527f45524332303a207472616e736665722066726f6d20746865207a65726f206164604082015264647265737360d81b606082015260800190565b60208082526024908201527f45524332303a20617070726f76652066726f6d20746865207a65726f206164646040820152637265737360e01b606082015260800190565b60208082526025908201527f45524332303a2064656372656173656420616c6c6f77616e63652062656c6f77604082015264207a65726f60d81b606082015260800190565b6020808252601f908201527f45524332303a206d696e7420746f20746865207a65726f206164647265737300604082015260600190565b90815260200190565b60ff91909116815260200190565b60008219821115610a1057634e487b7160e01b81526011600452602481fd5b500190565b600281046001821680610a2957607f821691505b60208210811415610a4a57634e487b7160e01b600052602260045260246000fd5b5091905056fea264697066735822122091ed32bf75a2d13ed9edabeb0ece0a052a14074df69017f1ef4c398e7d82686064736f6c63430008010033",
  "immutableReferences": {},
  "source": "// SPDX-License-Identifier: GPL 2.0\npragma solidity ^0.8.0;\n\nimport '@openzeppelin/contracts/token/ERC20/ERC20.sol';\n\n\ncontract testCoinA is ERC20('testCoinA', 'A'){\n    function getCoin(uint amount) public{\n        _mint(msg.sender, amount);\n    }\n}\n",
  "sourcePath": "/Users/troll/Repository/metaLifeNFT/contracts/test/testCoin.sol",
  "compiler": {
    "name": "solc",
    "version": "0.8.1+commit.df193b15.Emscripten.clang"
  },
  "schemaVersion": "3.4.1",
  "updatedAt": "2022-05-30T04:17:57.096Z",
  "devdoc": {
    "kind": "dev",
    "methods": {
      "allowance(address,address)": {
        "details": "See {IERC20-allowance}."
      },
      "approve(address,uint256)": {
        "details": "See {IERC20-approve}. NOTE: If `amount` is the maximum `uint256`, the allowance is not updated on `transferFrom`. This is semantically equivalent to an infinite approval. Requirements: - `spender` cannot be the zero address."
      },
      "balanceOf(address)": {
        "details": "See {IERC20-balanceOf}."
      },
      "decimals()": {
        "details": "Returns the number of decimals used to get its user representation. For example, if `decimals` equals `2`, a balance of `505` tokens should be displayed to a user as `5.05` (`505 / 10 ** 2`). Tokens usually opt for a value of 18, imitating the relationship between Ether and Wei. This is the value {ERC20} uses, unless this function is overridden; NOTE: This information is only used for _display_ purposes: it in no way affects any of the arithmetic of the contract, including {IERC20-balanceOf} and {IERC20-transfer}."
      },
      "decreaseAllowance(address,uint256)": {
        "details": "Atomically decreases the allowance granted to `spender` by the caller. This is an alternative to {approve} that can be used as a mitigation for problems described in {IERC20-approve}. Emits an {Approval} event indicating the updated allowance. Requirements: - `spender` cannot be the zero address. - `spender` must have allowance for the caller of at least `subtractedValue`."
      },
      "increaseAllowance(address,uint256)": {
        "details": "Atomically increases the allowance granted to `spender` by the caller. This is an alternative to {approve} that can be used as a mitigation for problems described in {IERC20-approve}. Emits an {Approval} event indicating the updated allowance. Requirements: - `spender` cannot be the zero address."
      },
      "name()": {
        "details": "Returns the name of the token."
      },
      "symbol()": {
        "details": "Returns the symbol of the token, usually a shorter version of the name."
      },
      "totalSupply()": {
        "details": "See {IERC20-totalSupply}."
      },
      "transfer(address,uint256)": {
        "details": "See {IERC20-transfer}. Requirements: - `to` cannot be the zero address. - the caller must have a balance of at least `amount`."
      },
      "transferFrom(address,address,uint256)": {
        "details": "See {IERC20-transferFrom}. Emits an {Approval} event indicating the updated allowance. This is not required by the EIP. See the note at the beginning of {ERC20}. NOTE: Does not update the allowance if the current allowance is the maximum `uint256`. Requirements: - `from` and `to` cannot be the zero address. - `from` must have a balance of at least `amount`. - the caller must have allowance for ``from``'s tokens of at least `amount`."
      }
    },
    "version": 1
  },
  "userdoc": {
    "kind": "user",
    "methods": {},
    "version": 1
  }
}